{
  "transactions": [
    {
      "hash": "0xfc88757a16ac6ccfec006d7e1ed9a9b53e03995dbd1abeeb7c7a19ccb69f8f43",
      "transactionType": "CREATE",
      "contractName": "AxieMock",
      "contractAddress": "0xe957366c2be7d2a96ef9b0e55e3650f9cfdb810e",
      "function": null,
      "arguments": null,
      "transaction": {
        "from": "0xe8df60a93b2b328397a8cbf73f0d732aaa11e33d",
        "gas": "0x30bcda",
        "value": "0x0",
        "input": "0x6080604052346103bb57604080519081016001600160401b038111828210176102e857604090815260088252674d6f636b4158494560c01b602083015280519081016001600160401b038111828210176102e85760405260058152646d4158494560d81b602082015281516001600160401b0381116102e8576100836000546103c0565b601f811161036d575b50602092601f821160011461030957928192936000926102fe575b50508160011b916000199060031b1c1916176000555b80516001600160401b0381116102e8576100d86001546103c0565b601f811161028e575b50602091601f821160011461022a5791819260009261021f575b50508160011b916000199060031b1c1916176001555b60ff19600b5416600b5561012433610411565b50610130600c546103c0565b601f81116101c2575b604f600c9081556000527f68747470733a2f2f6d657461646174612e61786965696e66696e6974792e636f7fdf6966c971051c3d54ec59162606531493a51404a002842f56009d7e5cf4a8c755666d2f617869652f60c81b7fdf6966c971051c3d54ec59162606531493a51404a002842f56009d7e5cf4a8c8556040516128eb90816104c48239f35b600c60005261021990601f0160051c7fdf6966c971051c3d54ec59162606531493a51404a002842f56009d7e5cf4a8c7017fdf6966c971051c3d54ec59162606531493a51404a002842f56009d7e5cf4a8c96103fa565b38610139565b0151905038806100fb565b601f198216926001600052806000209160005b8581106102765750836001951061025d575b505050811b01600155610111565b015160001960f88460031b161c1916905538808061024f565b9192602060018192868501518155019401920161023d565b60016000526102d8907fb10e2d527612073b26eecdfd717e6a320cf44b4afac2b0732d9fcbe2b7fa0cf6601f840160051c810191602085106102de575b601f0160051c01906103fa565b386100e1565b90915081906102cb565b634e487b7160e01b600052604160045260246000fd5b0151905038806100a7565b601f1982169360008052806000209160005b868110610355575083600195961061033c575b505050811b016000556100bd565b015160001960f88460031b161c1916905538808061032e565b9192602060018192868501518155019401920161031b565b600080526103b5907f290decd9548b62a8d60345a988386fc84ba6bc95484008f6362f93160ef3e563601f840160051c810191602085106102de57601f0160051c01906103fa565b3861008c565b600080fd5b90600182811c921680156103f0575b60208310146103da57565b634e487b7160e01b600052602260045260246000fd5b91607f16916103cf565b818110610405575050565b600081556001016103fa565b6001600160a01b03811660009081527f13da86008ba1c6922daee3e07db95305ef49ebced9f5467a0b8613fcc6b343e3602052604090205460ff166104bd576001600160a01b031660008181527f13da86008ba1c6922daee3e07db95305ef49ebced9f5467a0b8613fcc6b343e360205260408120805460ff191660011790553391907f2f8788117e7eff1d82e926ec794901d17c78024a50270940304540a733656f0d8180a4600190565b5060009056fe608080604052600436101561001357600080fd5b60003560e01c90816301ffc9a7146119035750806306fdde031461185e578063073b7180146117fe578063081812fc146117bf578063095ea7b31461169857806318160ddd1461167a5780631b2a71571461165c57806323b872dd14611645578063248a9ca3146116185780632f2ff15d146115d85780632f745c591461154d57806330176e131461138657806336568abe1461132757806338e72267146111e05780633e2156aa146111555780633f4ba83a146110d357806342842e0e146110a3578063474da590146110875780634f6ccce71461101d5780635c975abb14610ffa5780636352211e14610fcb57806364a9148714610f9057806370a0823114610f6d5780638456cb5914610f135780638be1dcaa14610db957806391d1485414610d6b57806395d89b4114610cc257806399534e3114610b2c5780639e7f487d14610b10578063a217fddf14610b10578063a22cb46514610a56578063a647290614610957578063b6724efe146106e6578063b88d4fde14610651578063c7d25b1514610618578063c87b56dd146103a1578063d539139314610366578063d547741f1461031f578063d547cfb7146102395763e985e9c5146101d757600080fd5b34610234576040600319360112610234576101f0611a80565b6001600160a01b03610200611a96565b911660005260056020526001600160a01b0360406000209116600052602052602060ff604060002054166040519015158152f35b600080fd5b34610234576000600319360112610234576040516000600c5461025b81611b73565b80845290600181169081156102fb575060011461029b575b6102978361028381850382611b34565b604051918291602083526020830190611a5b565b0390f35b919050600c6000527fdf6966c971051c3d54ec59162606531493a51404a002842f56009d7e5cf4a8c7916000905b8082106102e157509091508101602001610283610273565b9192600181602092548385880101520191019092916102c9565b60ff191660208086019190915291151560051b840190910191506102839050610273565b346102345760406003193601126102345761036460043561033e611a96565b9061035f61035a82600052600a60205260016040600020015490565b6120c1565b6124d4565b005b346102345760006003193601126102345760206040517f9f2df0fed2c77648de5860a4cc508cd0818c85b8b8a1ab4ceeef8d981c8956a68152f35b34610234576020600319360112610234576004356103be81612121565b5080816000927a184f03e93ff9f4daa797ed6e38ed64bf6a1f0100000000000000008110156105ed575b50806d04ee2d6d415b85acef8100000000600a9210156105d2575b662386f26fc100008110156105be575b6305f5e1008110156105ad575b61271081101561059e575b6064811015610590575b1015610586575b6001820190600a600019602161046a61045486611b57565b956104626040519788611b34565b808752611b57565b95601f196020870197013688378501015b01917f30313233343536373839616263646566000000000000000000000000000000008282061a83530480156104b757600019600a919261047b565b505060405190600090600c546104cc81611b73565b90600181169081156105625750600114610508575b5081610283926104f961029796869451938491611a38565b0103601f198101835282611b34565b909150600c6000527fdf6966c971051c3d54ec59162606531493a51404a002842f56009d7e5cf4a8c76000905b82821061054c5750508201602001906102976104e1565b6001816020925483858901015201910190610535565b60ff19166020808701919091528215159092028501909101925061029790506104e1565b906001019061043c565b606460029104930192610435565b6127106004910493019261042b565b6305f5e10060089104930192610420565b662386f26fc1000060109104930192610413565b6d04ee2d6d415b85acef810000000060209104930192610403565b604093507a184f03e93ff9f4daa797ed6e38ed64bf6a1f01000000000000000090049050600a6103e8565b346102345760206003193601126102345760043561063581612121565b50600052600f602052602060ff60406000205416604051908152f35b346102345760806003193601126102345761066a611a80565b610672611a96565b906044356064359267ffffffffffffffff84116102345736602385011215610234578360040135926106a384611b57565b936106b16040519586611b34565b8085523660248288010111610234576020816000926024610364990183890137860101526106e0838383611bad565b33612736565b34610234576060600319360112610234576106ff611a80565b6024359067ffffffffffffffff821161023457366023830112156102345781600401359067ffffffffffffffff8211610234573660248360051b850101116102345760443567ffffffffffffffff811161023457366023820112156102345780600401359167ffffffffffffffff83116102345736602460e08502840101116102345761078a612036565b82840361092d5760006020926001600160a01b03831615915b8681101561036457600060248260051b8a01013590878310156109195760e0830284016040516107d38982611b34565b868382526108ed576001600160a01b036107ed858a612171565b166108c1576107fe90848933612563565b828252600e88526005604083206024830135815560448301356001820155606483013560028201556084830135600382015560a48301356004820155019060c481013560ff811681036108bd579060ff60e4921660ff1984541617835501359061ffff821682036108b9579161088d60409260019695949062ffff001962ffff0083549260081b169116179055565b828152600f8952208360ff19825416179055600d5481116108b0575b50016107a3565b600d55896108a9565b8280fd5b8380fd5b6024837f73c6ac6e00000000000000000000000000000000000000000000000000000000815280600452fd5b6024837f64a0ae9200000000000000000000000000000000000000000000000000000000815280600452fd5b80634e487b7160e01b602492526032600452fd5b7f986cdc850000000000000000000000000000000000000000000000000000000060005260046000fd5b3461023457602060031936011261023457600435600060a060405161097b81611ae6565b82815282602082015282604082015260405161099681611b18565b838152836020820152606082015282608082015201526109b581612121565b50600052600e60205260e0604060002061ffff604051916109d583611ae6565b8054835260ff6001820154602085019081526020600284015493604087019485526005610a0460038301611f2c565b9160608901928352015494608088019385871685528760a08a019760081c168752604051985189525183890152516040880152518051606088015201516080860152511660a0840152511660c0820152f35b3461023457604060031936011261023457610a6f611a80565b60243590811515809203610234576001600160a01b0316908115610ae257336000526005602052604060002082600052602052604060002060ff1981541660ff83161790556040519081527f17307eab39ab6107e8899845ad3d59bd9653f200f220920489ca2b5937696c3160203392a3005b507f5b08ba180000000000000000000000000000000000000000000000000000000060005260045260246000fd5b3461023457600060031936011261023457602060405160008152f35b346102345761012060031936011261023457610b46611a80565b6024359060e07fffffffffffffffffffffffffffffffffffffffffffffffffffffffffffffffbc36011261023457610b7c612036565b602090604051610b8c8382611b34565b600081526001600160a01b03821615610c93576001600160a01b03610bb18584612171565b16610c645783610bc19233612563565b81600052600e81526005604060002060443581556064356001820155608435600282015560a435600382015560c4356004820155019060e43560ff811681036102345760ff1660ff19835416178255610104359161ffff8316830361023457600f92610c3f919062ffff001962ffff0083549260081b169116179055565b82600052526040600020600160ff19825416179055600d548111610c5f57005b600d55005b7f73c6ac6e00000000000000000000000000000000000000000000000000000000600052600060045260246000fd5b7f64a0ae9200000000000000000000000000000000000000000000000000000000600052600060045260246000fd5b34610234576000600319360112610234576040516000600154610ce481611b73565b80845290600181169081156102fb5750600114610d0b576102978361028381850382611b34565b91905060016000527fb10e2d527612073b26eecdfd717e6a320cf44b4afac2b0732d9fcbe2b7fa0cf6916000905b808210610d5157509091508101602001610283610273565b919260018160209254838588010152019101909291610d39565b3461023457604060031936011261023457610d84611a96565b600435600052600a6020526001600160a01b0360406000209116600052602052602060ff604060002054166040519015158152f35b346102345761010060031936011261023457610dd3611a80565b60e07fffffffffffffffffffffffffffffffffffffffffffffffffffffffffffffffdc36011261023457610e05612036565b600d5460018101809111610efd57602091604051610e238482611b34565b600081526001600160a01b03821615610c93576001600160a01b03610e488484612171565b16610c645782610e589233612563565b80600052600e825260056040600020602435815560443560018201556064356002820155608435600382015560a43560048201550160c43560ff811681036102345760ff1660ff1982541617815560e43561ffff8116810361023457815462ffff00191660089190911b62ffff001617905580600052600f82526040600020600160ff19825416179055600d548111610ef4575b604051908152f35b80600d55610eec565b634e487b7160e01b600052601160045260246000fd5b3461023457600060031936011261023457610f2c611fca565b610f3461287f565b600160ff19600b541617600b557f62e78cea01bee320cd4e420270b5ea74000d11b0c9f74754ebdbfc544b05a2586020604051338152a1005b34610234576020600319360112610234576020610eec610f8b611a80565b611f7b565b346102345760006003193601126102345760206040517f240afcd1926e36e0297a1eb63ba484f52ddbef788e7f4e9b38b0dcc66de129e18152f35b34610234576020600319360112610234576020610fe9600435612121565b6001600160a01b0360405191168152f35b3461023457600060031936011261023457602060ff600b54166040519015158152f35b346102345760206003193601126102345760043560085481101561105557611046602091611f4a565b90549060031b1c604051908152f35b7fa57d13dc00000000000000000000000000000000000000000000000000000000600052600060045260245260446000fd5b3461023457600060031936011261023457602060405160018152f35b34610234576103646110b436611aac565b90604051926110c4602085611b34565b600084526106e0838383611bad565b34610234576000600319360112610234576110ec611fca565b600b5460ff81161561112b5760ff1916600b557f5db9ee0a495bf2e6ff9c91a7834c1ba4fdd244a5e8aa4e537bd38aeae4b073aa6020604051338152a1005b7f8dfc202b0000000000000000000000000000000000000000000000000000000060005260046000fd5b3461023457602060031936011261023457600435611171611f13565b5061117b81612121565b50600052600e60205260e0604060002061ffff8154916020600182015460028301546111ae600360058601549501611f2c565b91604051968752838701526040860152805160608601520151608084015260ff811660a084015260081c1660c0820152f35b34610234576020600319360112610234573360009081527f463873c6883cb07292e65e601651898dcae8ac817769058a0701a0d2c8419e6760205260409020546004359060ff1615806112ee575b61129c5761123b81612121565b5080600052600f60205260ff6040600020541661126f57600052600f6020526040600020600160ff19825416179055600080f35b7fb1c9590c0000000000000000000000000000000000000000000000000000000060005260045260246000fd5b7fe2517d3f00000000000000000000000000000000000000000000000000000000600052336004527f240afcd1926e36e0297a1eb63ba484f52ddbef788e7f4e9b38b0dcc66de129e160245260446000fd5b503360009081527f13da86008ba1c6922daee3e07db95305ef49ebced9f5467a0b8613fcc6b343e3602052604090205460ff161561122e565b3461023457604060031936011261023457611340611a96565b336001600160a01b0382160361135c57610364906004356124d4565b7f6697b2320000000000000000000000000000000000000000000000000000000060005260046000fd5b346102345760206003193601126102345760043567ffffffffffffffff8111610234573660238201121561023457806004013567ffffffffffffffff8111610234573660248284010111610234576113dc611fca565b6000906113ea600c54611b73565b601f81116114b0575b5081601f821160011461142f578293829392611421575b50506000198260011b9260031b1c191617600c5580f35b60249250010135838061140a565b601f198216937fdf6966c971051c3d54ec59162606531493a51404a002842f56009d7e5cf4a8c791845b8681106114955750836001959610611478575b505050811b01600c5580f35b0160240135600019600384901b60f8161c1916905583808061146c565b90926020600181926024878701013581550194019101611459565b601f820160051c7fdf6966c971051c3d54ec59162606531493a51404a002842f56009d7e5cf4a8c7019060208310611525575b601f0160051c7fdf6966c971051c3d54ec59162606531493a51404a002842f56009d7e5cf4a8c701905b81811061151a57506113f3565b83815560010161150d565b7fdf6966c971051c3d54ec59162606531493a51404a002842f56009d7e5cf4a8c791506114e3565b3461023457604060031936011261023457611566611a80565b6001600160a01b036024359161157b81611f7b565b8310156115a7571660005260066020526040600020906000526020526020604060002054604051908152f35b7fa57d13dc000000000000000000000000000000000000000000000000000000006000521660045260245260446000fd5b34610234576040600319360112610234576103646004356115f7611a96565b9061161361035a82600052600a60205260016040600020015490565b61243a565b34610234576020600319360112610234576020610eec600435600052600a60205260016040600020015490565b346102345761036461165636611aac565b91611bad565b34610234576000600319360112610234576020600d54604051908152f35b34610234576000600319360112610234576020600854604051908152f35b34610234576040600319360112610234576116b1611a80565b6024356116bd81612121565b331515806117ac575b80611775575b6117475781906001600160a01b0380851691167f8c5be1e5ebec7d5bd14f71427d1e84f3dd0314c0f7b2291e5b200ac8c7c3b925600080a460005260046020526001600160a01b03604060002091167fffffffffffffffffffffffff0000000000000000000000000000000000000000825416179055600080f35b7fa9fbf51f000000000000000000000000000000000000000000000000000000006000523360045260246000fd5b506001600160a01b038116600052600560205260406000206001600160a01b03331660005260205260ff60406000205416156116cc565b50336001600160a01b03821614156116c6565b34610234576020600319360112610234576004356117dc81612121565b50600052600460205260206001600160a01b0360406000205416604051908152f35b346102345760406003193601126102345760043560243561ffff81168103610234576103649161182c611fca565b61183581612121565b50600052600e60205260056040600020019062ffff001962ffff0083549260081b169116179055565b34610234576000600319360112610234576040516000805461187f81611b73565b80845290600181169081156102fb57506001146118a6576102978361028381850382611b34565b60008080527f290decd9548b62a8d60345a988386fc84ba6bc95484008f6362f93160ef3e563939250905b8082106118e957509091508101602001610283610273565b9192600181602092548385880101520191019092916118d1565b3461023457602060031936011261023457600435907fffffffff00000000000000000000000000000000000000000000000000000000821680920361023457817f7965db0b0000000000000000000000000000000000000000000000000000000060209314908115611977575b5015158152f35b7f780e9d63000000000000000000000000000000000000000000000000000000008114915081156119aa575b5083611970565b7f80ac58cd00000000000000000000000000000000000000000000000000000000811491508115611a0e575b81156119e4575b50836119a3565b7f01ffc9a700000000000000000000000000000000000000000000000000000000915014836119dd565b7f5b5e139f00000000000000000000000000000000000000000000000000000000811491506119d6565b60005b838110611a4b5750506000910152565b8181015183820152602001611a3b565b90601f19601f602093611a7981518092818752878088019101611a38565b0116010190565b600435906001600160a01b038216820361023457565b602435906001600160a01b038216820361023457565b6003196060910112610234576004356001600160a01b038116810361023457906024356001600160a01b0381168103610234579060443590565b60c0810190811067ffffffffffffffff821117611b0257604052565b634e487b7160e01b600052604160045260246000fd5b6040810190811067ffffffffffffffff821117611b0257604052565b90601f601f19910116810190811067ffffffffffffffff821117611b0257604052565b67ffffffffffffffff8111611b0257601f01601f191660200190565b90600182811c92168015611ba3575b6020831014611b8d57565b634e487b7160e01b600052602260045260246000fd5b91607f1691611b82565b9190916001600160a01b0383168015610c93576000611bca61287f565b83815260026020526001600160a01b036040822054169433151580611e4a575b5085158015611df8575b83835260036020526040832060018154019055858352600260205260408320847fffffffffffffffffffffffff00000000000000000000000000000000000000008254161790558584887fddf252ad1be2c89b69c2b068fc378daa952ba7f163c4a11628f55a4df523b3ef8680a415611d7b57600854858352600960205280604084205568010000000000000000811015611d675785611c9d826001611cb59401600855611f4a565b90919060001983549160031b92831b921b1916179055565b828603611d08575b5050506001600160a01b0316808303611cd557505050565b7f64283d7b0000000000000000000000000000000000000000000000000000000060005260045260245260445260646000fd5b611d1190611f7b565b916000198301928311611d5357816040916001600160a01b03959493526006602052818120838252602052858282205585815260076020522055903880611cbd565b602482634e487b7160e01b81526011600452fd5b602483634e487b7160e01b81526041600452fd5b858314611cb557611d8b86611f7b565b858352600760205260408320549087845260066020526040842091818103611dcd575b5086845260076020528360408120558352602052816040812055611cb5565b8185528260205260408520548186528360205280604087205585526007602052604085205538611dae565b611e3186600052600460205260406000207fffffffffffffffffffffffff00000000000000000000000000000000000000008154169055565b8683526003602052604083206000198154019055611bf4565b80611ebc575b15611e5b5738611bea565b848287611e8d576024917f7e273289000000000000000000000000000000000000000000000000000000008252600452fd5b6044917f177e802f00000000000000000000000000000000000000000000000000000000825233600452602452fd5b503386148015611eea575b80611e5057508482526004602052336001600160a01b0360408420541614611e50565b508582526005602052604082206001600160a01b033316835260205260ff604083205416611ec7565b60405190611f2082611b18565b60006020838281520152565b90604051611f3981611b18565b602060018294805484520154910152565b600854811015611f6557600860005260206000200190600090565b634e487b7160e01b600052603260045260246000fd5b6001600160a01b03168015611f9b57600052600360205260406000205490565b7f89c62b6400000000000000000000000000000000000000000000000000000000600052600060045260246000fd5b3360009081527f13da86008ba1c6922daee3e07db95305ef49ebced9f5467a0b8613fcc6b343e3602052604090205460ff161561200357565b7fe2517d3f0000000000000000000000000000000000000000000000000000000060005233600452600060245260446000fd5b3360009081527faa1d7351356c4ddc11907b1ee0660f579cfdf507235af2ae01ecd22a4b7ceaae602052604090205460ff161561206f57565b7fe2517d3f00000000000000000000000000000000000000000000000000000000600052336004527f9f2df0fed2c77648de5860a4cc508cd0818c85b8b8a1ab4ceeef8d981c8956a660245260446000fd5b80600052600a60205260406000206001600160a01b03331660005260205260ff60406000205416156120f05750565b7fe2517d3f000000000000000000000000000000000000000000000000000000006000523360045260245260446000fd5b8060005260026020526001600160a01b0360406000205416908115612144575090565b7f7e2732890000000000000000000000000000000000000000000000000000000060005260045260246000fd5b61217961287f565b8160005260026020526001600160a01b03604060002054169182159182156123e6575b6001600160a01b0381169283159081156123cc575b8360005260026020526040600020857fffffffffffffffffffffffff00000000000000000000000000000000000000008254161790558385877fddf252ad1be2c89b69c2b068fc378daa952ba7f163c4a11628f55a4df523b3ef600080a415612341576008548360005260096020528060406000205568010000000000000000811015611b025783611c9d82600161224c9401600855611f4a565b156122ec575090506008546000198101908111610efd5781600052600960205261227b60406000205491611f4a565b90549060031b1c61228f81611c9d84611f4a565b600052600960205260406000205560005260096020526000604081205560085480156122d657600019016122c281611f4a565b60001982549160031b1b1916905560085590565b634e487b7160e01b600052603160045260246000fd5b8284036122fa575b50505090565b61230390611f7b565b916000198301928311610efd5760005260066020526040600020826000526020528060406000205560005260076020526040600020553880806122f4565b84841461224c5761235185611f7b565b8360005260076020526040600020549086600052600660205260406000209181810361239b575b50846000526007602052600060408120556000526020526000604081205561224c565b8160005282602052604060002054816000528360205280604060002055600052600760205260406000205538612378565b8460005260036020526040600020600181540190556121b1565b61241f82600052600460205260406000207fffffffffffffffffffffffff00000000000000000000000000000000000000008154169055565b8360005260036020526040600020600019815401905561219c565b80600052600a60205260406000206001600160a01b03831660005260205260ff60406000205416156000146124cd5780600052600a60205260406000206001600160a01b0383166000526020526040600020600160ff198254161790556001600160a01b03339216907f2f8788117e7eff1d82e926ec794901d17c78024a50270940304540a733656f0d600080a4600190565b5050600090565b80600052600a60205260406000206001600160a01b03831660005260205260ff604060002054166000146124cd5780600052600a60205260406000206001600160a01b038316600052602052604060002060ff1981541690556001600160a01b03339216907ff6391f5c32d9c69d2a47ea670b442974b53935d1edc7fd64eb21e047a839171b600080a4600190565b90803b612571575b50505050565b6020916125d16001600160a01b038093169560405195869485947f150b7a02000000000000000000000000000000000000000000000000000000008652166004850152600060248501526044840152608060648401526084830190611a5b565b03816000865af180916000916126d4575b509061265457503d1561264d573d6125f981611b57565b906126076040519283611b34565b81523d6000602083013e5b8051908161264857827f64a0ae920000000000000000000000000000000000000000000000000000000060005260045260246000fd5b602001fd5b6060612612565b7fffffffff000000000000000000000000000000000000000000000000000000007f150b7a02000000000000000000000000000000000000000000000000000000009116036126a757503880808061256b565b7f64a0ae920000000000000000000000000000000000000000000000000000000060005260045260246000fd5b6020813d60201161272e575b816126ed60209383611b34565b8101031261272a5751907fffffffff00000000000000000000000000000000000000000000000000000000821682036127275750386125e2565b80fd5b5080fd5b3d91506126e0565b93909293823b612748575b5050505050565b6127a86001600160a01b03928360209516968460405197889687967f150b7a020000000000000000000000000000000000000000000000000000000088521660048701521660248501526044840152608060648401526084830190611a5b565b03816000865af18091600091612824575b50906127d057503d1561264d573d6125f981611b57565b7fffffffff000000000000000000000000000000000000000000000000000000007f150b7a02000000000000000000000000000000000000000000000000000000009116036126a757503880808080612741565b6020813d602011612877575b8161283d60209383611b34565b8101031261272a5751907fffffffff00000000000000000000000000000000000000000000000000000000821682036127275750386127b9565b3d9150612830565b60ff600b541661288b57565b7fd93c06650000000000000000000000000000000000000000000000000000000060005260046000fdfea2646970667358221220e12ee7562fb50bc6032a22fbb7e259149cde2c3a13cf2a74c6e05825c3c5ecdc64736f6c634300081c0033",
        "nonce": "0x3ce",
        "chainId": "0xaa36a7"
      },
      "additionalContracts": [],
      "isFixedGasLimit": false
    },
    {
      "hash": "0xb42d3e8949874a0996ddb4ea826586f2b0d4b7791437fcaafdf935b6e59d35fe",
      "transactionType": "CALL",
      "contractName": "AxieMock",
      "contractAddress": "0xe957366c2be7d2a96ef9b0e55e3650f9cfdb810e",
      "function": "grantRole(bytes32,address)",
      "arguments": [
        "0x9f2df0fed2c77648de5860a4cc508cd0818c85b8b8a1ab4ceeef8d981c8956a6",
        "0xE8dF60a93b2B328397a8CBf73f0d732aaa11e33D"
      ],
      "transaction": {
        "from": "0xe8df60a93b2b328397a8cbf73f0d732aaa11e33d",
        "to": "0xe957366c2be7d2a96ef9b0e55e3650f9cfdb810e",
        "gas": "0x114e3",
        "value": "0x0",
        "input": "0x2f2ff15d9f2df0fed2c77648de5860a4cc508cd0818c85b8b8a1ab4ceeef8d981c8956a6000000000000000000000000e8df60a93b2b328397a8cbf73f0d732aaa11e33d",
        "nonce": "0x3cf",
        "chainId": "0xaa36a7"
      },
      "additionalContracts": [],
      "isFixedGasLimit": false
    },
    {
      "hash": "0xde8a22b20cefa615beb42c8368b53f3daf7c762dedd844e2e7804ec976ec5dff",
      "transactionType": "CALL",
      "contractName": "AxieMock",
      "contractAddress": "0xe957366c2be7d2a96ef9b0e55e3650f9cfdb810e",
      "function": "grantRole(bytes32,address)",
      "arguments": [
        "0x240afcd1926e36e0297a1eb63ba484f52ddbef788e7f4e9b38b0dcc66de129e1",
        "0xE8dF60a93b2B328397a8CBf73f0d732aaa11e33D"
      ],
      "transaction": {
        "from": "0xe8df60a93b2b328397a8cbf73f0d732aaa11e33d",
        "to": "0xe957366c2be7d2a96ef9b0e55e3650f9cfdb810e",
        "gas": "0x114e3",
        "value": "0x0",
        "input": "0x2f2ff15d240afcd1926e36e0297a1eb63ba484f52ddbef788e7f4e9b38b0dcc66de129e1000000000000000000000000e8df60a93b2b328397a8cbf73f0d732aaa11e33d",
        "nonce": "0x3d0",
        "chainId": "0xaa36a7"
      },
      "additionalContracts": [],
      "isFixedGasLimit": false
    },
    {
      "hash": "0xdbd9ab25319a3e715e64b73ddf7b7473c13ae89c65a356c8b102d6bcb86570de",
      "transactionType": "CALL",
      "contractName": "AxieMock",
      "contractAddress": "0xe957366c2be7d2a96ef9b0e55e3650f9cfdb810e",
      "function": "setBaseTokenURI(string)",
      "arguments": [
        "https://metadata.axieinfinity.com/axie/"
      ],
      "transaction": {
        "from": "0xe8df60a93b2b328397a8cbf73f0d732aaa11e33d",
        "to": "0xe957366c2be7d2a96ef9b0e55e3650f9cfdb810e",
        "gas": "0xac1e",
        "value": "0x0",
        "input": "0x30176e130000000000000000000000000000000000000000000000000000000000000020000000000000000000000000000000000000000000000000000000000000002768747470733a2f2f6d657461646174612e61786965696e66696e6974792e636f6d2f617869652f00000000000000000000000000000000000000000000000000",
        "nonce": "0x3d1",
        "chainId": "0xaa36a7"
      },
      "additionalContracts": [],
      "isFixedGasLimit": false
    },
    {
      "hash": "0x10ef8ee4f74c7d9a5a2b9dda9fd8593c295b38ce64c5c08a528b953d2f678afc",
      "transactionType": "CALL",
      "contractName": "AxieMock",
      "contractAddress": "0xe957366c2be7d2a96ef9b0e55e3650f9cfdb810e",
      "function": "mintAxieWithId(address,uint256,(uint256,uint256,uint256,(uint256,uint256),uint8,uint16))",
      "arguments": [
        "0xE8dF60a93b2B328397a8CBf73f0d732aaa11e33D",
        "27",
        "(0, 0, 1521001390, (4820857114582492907591948997336919297038119854941980382495492, 5300975133944756922121709900192707377810136563002416291881364447383569666), 3, 60)"
      ],
      "transaction": {
        "from": "0xe8df60a93b2b328397a8cbf73f0d732aaa11e33d",
        "to": "0xe957366c2be7d2a96ef9b0e55e3650f9cfdb810e",
        "gas": "0x5fe6d",
        "value": "0x0",
        "input": "0x99534e31000000000000000000000000e8df60a93b2b328397a8cbf73f0d732aaa11e33d000000000000000000000000000000000000000000000000000000000000001b00000000000000000000000000000000000000000000000000000000000000000000000000000000000000000000000000000000000000000000000000000000000000000000000000000000000000000000000000000000000000005aa8a3ae000000000000030001c0c040c300000000030000082084040002069010808304000300101880c2060003001408a04502000200800880c2020003000018a0c5020000000000000000000000000000000000000000000000000000000000000003000000000000000000000000000000000000000000000000000000000000003c",
        "nonce": "0x3d2",
        "chainId": "0xaa36a7"
      },
      "additionalContracts": [],
      "isFixedGasLimit": false
    },
    {
      "hash": "0xe20793d907623ee01a984930d32befb337db2e376634a911f88d1f8456fbcaa0",
      "transactionType": "CALL",
      "contractName": "AxieMock",
      "contractAddress": "0xe957366c2be7d2a96ef9b0e55e3650f9cfdb810e",
      "function": "mintAxieWithId(address,uint256,(uint256,uint256,uint256,(uint256,uint256),uint8,uint16))",
      "arguments": [
        "0xE8dF60a93b2B328397a8CBf73f0d732aaa11e33D",
        "29",
        "(0, 0, 1521001401, (10855508365998398141786268695694610390510491098382546684414504806036652704002, 1767171440114137971612780573571528246763261168815173281775360364756632580), 3, 30)"
      ],
      "transaction": {
        "from": "0xe8df60a93b2b328397a8cbf73f0d732aaa11e33d",
        "to": "0xe957366c2be7d2a96ef9b0e55e3650f9cfdb810e",
        "gas": "0x616fd",
        "value": "0x0",
        "input": "0x99534e31000000000000000000000000e8df60a93b2b328397a8cbf73f0d732aaa11e33d000000000000000000000000000000000000000000000000000000000000001d00000000000000000000000000000000000000000000000000000000000000000000000000000000000000000000000000000000000000000000000000000000000000000000000000000000000000000000000000000000000000005aa8a3b91800000000000300008100e1041000000002008c0860800400010010086041020001000c0820c3040003000c080044020001000c108085020002008c082084040000000000000000000000000000000000000000000000000000000000000003000000000000000000000000000000000000000000000000000000000000001e",
        "nonce": "0x3d3",
        "chainId": "0xaa36a7"
      },
      "additionalContracts": [],
      "isFixedGasLimit": false
    },
    {
      "hash": "0xd0e7de014a0a84b7f7930f0dbe97ce3d2fef8dd68ee83414437485246dafb10c",
      "transactionType": "CALL",
      "contractName": "AxieMock",
      "contractAddress": "0xe957366c2be7d2a96ef9b0e55e3650f9cfdb810e",
      "function": "mintAxieWithId(address,uint256,(uint256,uint256,uint256,(uint256,uint256),uint8,uint16))",
      "arguments": [
        "0xE8dF60a93b2B328397a8CBf73f0d732aaa11e33D",
        "3270162",
        "(2873779, 2873787, 1627906689, (10855508365998394927910084349603529190859416743163757142831925635828569686786, 1766851330340799475867436122228031043277947372330264682745471096630379270), 3, 0)"
      ],
      "transaction": {
        "from": "0xe8df60a93b2b328397a8cbf73f0d732aaa11e33d",
        "to": "0xe957366c2be7d2a96ef9b0e55e3650f9cfdb810e",
        "gas": "0x6fac6",
        "value": "0x0",
        "input": "0x99534e31000000000000000000000000e8df60a93b2b328397a8cbf73f0d732aaa11e33d000000000000000000000000000000000000000000000000000000000031e61200000000000000000000000000000000000000000000000000000000002bd9b300000000000000000000000000000000000000000000000000000000002bd9bb000000000000000000000000000000000000000000000000000000006107e2811800000000000100008000c0c30c0000000100101020440a0001001428a14302000100002881020200010004300083040001000c0880c3040001000c3061830600000000000000000000000000000000000000000000000000000000000000030000000000000000000000000000000000000000000000000000000000000000",
        "nonce": "0x3d4",
        "chainId": "0xaa36a7"
      },
      "additionalContracts": [],
      "isFixedGasLimit": false
    },
    {
      "hash": "0x668541d56b4d555d5e8dd3520c27cf28923b4669f1f1122b5e42f2a89af49c7d",
      "transactionType": "CALL",
      "contractName": "AxieMock",
      "contractAddress": "0xe957366c2be7d2a96ef9b0e55e3650f9cfdb810e",
      "function": "mintAxieWithId(address,uint256,(uint256,uint256,uint256,(uint256,uint256),uint8,uint16))",
      "arguments": [
        "0xE8dF60a93b2B328397a8CBf73f0d732aaa11e33D",
        "4200042",
        "(1290011, 1290088, 1631022333, (7777000000000000000000000000000000000042, 8800112233445566778899001122334455667788), 1, 12)"
      ],
      "transaction": {
        "from": "0xe8df60a93b2b328397a8cbf73f0d732aaa11e33d",
        "to": "0xe957366c2be7d2a96ef9b0e55e3650f9cfdb810e",
        "gas": "0x696ec",
        "value": "0x0",
        "input": "0x99534e31000000000000000000000000e8df60a93b2b328397a8cbf73f0d732aaa11e33d000000000000000000000000000000000000000000000000000000000040166a000000000000000000000000000000000000000000000000000000000013af1b000000000000000000000000000000000000000000000000000000000013af680000000000000000000000000000000000000000000000000000000061376cfd00000000000000000000000000000016dac3b7be76003a3bcc4b25100000002a00000000000000000000000000000019dc77f7685ba06767b837d4d2bef89c4c0000000000000000000000000000000000000000000000000000000000000001000000000000000000000000000000000000000000000000000000000000000c",
        "nonce": "0x3d5",
        "chainId": "0xaa36a7"
      },
      "additionalContracts": [],
      "isFixedGasLimit": false
    },
    {
      "hash": "0xb59d7fb76be5d7b4d1574da7d0202b4018e783907fbe9b168f211a59d9272182",
      "transactionType": "CALL",
      "contractName": "AxieMock",
      "contractAddress": "0xe957366c2be7d2a96ef9b0e55e3650f9cfdb810e",
      "function": "mintAxieWithId(address,uint256,(uint256,uint256,uint256,(uint256,uint256),uint8,uint16))",
      "arguments": [
        "0xE8dF60a93b2B328397a8CBf73f0d732aaa11e33D",
        "9000001",
        "(0, 0, 1640995200, (9000001000000000000000000000000000000001, 1234567890123456789012345678901234567890), 0, 1)"
      ],
      "transaction": {
        "from": "0xe8df60a93b2b328397a8cbf73f0d732aaa11e33d",
        "to": "0xe957366c2be7d2a96ef9b0e55e3650f9cfdb810e",
        "gas": "0x5bfcb",
        "value": "0x0",
        "input": "0x99534e31000000000000000000000000e8df60a93b2b328397a8cbf73f0d732aaa11e33d0000000000000000000000000000000000000000000000000000000000895441000000000000000000000000000000000000000000000000000000000000000000000000000000000000000000000000000000000000000000000000000000000000000000000000000000000000000000000000000000000000000061cf99800000000000000000000000000000001a72d9247d99a5a07a9351658a0000000100000000000000000000000000000003a0c92075c0dbf3b8acbc5f96ce3f0ad200000000000000000000000000000000000000000000000000000000000000000000000000000000000000000000000000000000000000000000000000000001",
        "nonce": "0x3d6",
        "chainId": "0xaa36a7"
      },
      "additionalContracts": [],
      "isFixedGasLimit": false
    }
  ],
  "receipts": [
    {
      "status": "0x1",
      "cumulativeGasUsed": "0x1780b85",
      "logs": [
        {
          "address": "0xe957366c2be7d2a96ef9b0e55e3650f9cfdb810e",
          "topics": [
            "0x2f8788117e7eff1d82e926ec794901d17c78024a50270940304540a733656f0d",
            "0x0000000000000000000000000000000000000000000000000000000000000000",
            "0x000000000000000000000000e8df60a93b2b328397a8cbf73f0d732aaa11e33d",
            "0x000000000000000000000000e8df60a93b2b328397a8cbf73f0d732aaa11e33d"
          ],
          "data": "0x",
          "blockHash": "0xbb4bb61159836d2fb243733c08be485d878b5fcbf3b4a5c9be3038e2a879acb0",
          "blockNumber": "0xa1f12f",
          "blockTimestamp": "0x69d5b0b8",
          "transactionHash": "0xfc88757a16ac6ccfec006d7e1ed9a9b53e03995dbd1abeeb7c7a19ccb69f8f43",
          "transactionIndex": "0x7c",
          "logIndex": "0x2a5",
          "removed": false
        }
      ],
      "logsBloom": "0x00000004000000000000000000000000000000000000000000000000000000000000000000000000000000400000000000000000000000000000000000000000000000000000000000000000000000000000000000000000000000000000000000000000020000000000000000000800000000000000000000000000000000000000000000000000000000000000000000000000000000000000000000000000000020000000000800000000000000000000000000000000001000000000000000000000000000000000000000000000000000000000000100000000000020000000000000000002100000000000000000000000000000004000000000000000",
      "type": "0x2",
      "transactionHash": "0xfc88757a16ac6ccfec006d7e1ed9a9b53e03995dbd1abeeb7c7a19ccb69f8f43",
      "transactionIndex": "0x7c",
      "blockHash": "0xbb4bb61159836d2fb243733c08be485d878b5fcbf3b4a5c9be3038e2a879acb0",
      "blockNumber": "0xa1f12f",
      "gasUsed": "0x258070",
      "effectiveGasPrice": "0x893ab1",
      "from": "0xe8df60a93b2b328397a8cbf73f0d732aaa11e33d",
      "to": null,
      "contractAddress": "0xe957366c2be7d2a96ef9b0e55e3650f9cfdb810e"
    },
    {
      "status": "0x1",
      "cumulativeGasUsed": "0x183619e",
      "logs": [
        {
          "address": "0xe957366c2be7d2a96ef9b0e55e3650f9cfdb810e",
          "topics": [
            "0x2f8788117e7eff1d82e926ec794901d17c78024a50270940304540a733656f0d",
            "0x9f2df0fed2c77648de5860a4cc508cd0818c85b8b8a1ab4ceeef8d981c8956a6",
            "0x000000000000000000000000e8df60a93b2b328397a8cbf73f0d732aaa11e33d",
            "0x000000000000000000000000e8df60a93b2b328397a8cbf73f0d732aaa11e33d"
          ],
          "data": "0x",
          "blockHash": "0xbea03e4a9a3e15bcf63eb300557474f0c3a046d1c814e70ef9fa40bf006b31f1",
          "blockNumber": "0xa1f130",
          "blockTimestamp": "0x69d5b0c4",
          "transactionHash": "0xb42d3e8949874a0996ddb4ea826586f2b0d4b7791437fcaafdf935b6e59d35fe",
          "transactionIndex": "0x85",
          "logIndex": "0x2d3",
          "removed": false
        }
      ],
      "logsBloom": "0x00000004000000000000000000000000000000000000000000000000000000000000000000000000000000400000004000000000000000000000000000000000000000000000000000000000000000000000000000000000000000000000000000000000000000000000000000000000000000000000000000000000001000000000000000000000000000000000000000000000000000000000000000000000000020000000000800000000000000000000000000000000001000000000000000000000000000000000000000000000001000000000000100000000000000000000000000000002100000000000000000000000000000004000000000000000",
      "type": "0x2",
      "transactionHash": "0xb42d3e8949874a0996ddb4ea826586f2b0d4b7791437fcaafdf935b6e59d35fe",
      "transactionIndex": "0x85",
      "blockHash": "0xbea03e4a9a3e15bcf63eb300557474f0c3a046d1c814e70ef9fa40bf006b31f1",
      "blockNumber": "0xa1f130",
      "gasUsed": "0xc877",
      "effectiveGasPrice": "0x88436c",
      "from": "0xe8df60a93b2b328397a8cbf73f0d732aaa11e33d",
      "to": "0xe957366c2be7d2a96ef9b0e55e3650f9cfdb810e",
      "contractAddress": null
    },
    {
      "status": "0x1",
      "cumulativeGasUsed": "0x1560746",
      "logs": [
        {
          "address": "0xe957366c2be7d2a96ef9b0e55e3650f9cfdb810e",
          "topics": [
            "0x2f8788117e7eff1d82e926ec794901d17c78024a50270940304540a733656f0d",
            "0x240afcd1926e36e0297a1eb63ba484f52ddbef788e7f4e9b38b0dcc66de129e1",
            "0x000000000000000000000000e8df60a93b2b328397a8cbf73f0d732aaa11e33d",
            "0x000000000000000000000000e8df60a93b2b328397a8cbf73f0d732aaa11e33d"
          ],
          "data": "0x",
          "blockHash": "0xc8fb6951f74cc681f99cfb64a22493f3680e77e6f655f26fbbe4b0b79afd8438",
          "blockNumber": "0xa1f131",
          "blockTimestamp": "0x69d5b0d0",
          "transactionHash": "0xde8a22b20cefa615beb42c8368b53f3daf7c762dedd844e2e7804ec976ec5dff",
          "transactionIndex": "0x7d",
          "logIndex": "0x29a",
          "removed": false
        }
      ],
      "logsBloom": "0x00000004000000000000000000000000000100004000000000000000000000000000000000000000000000400000000000000000000000000000000000000000000000000000000000000000000000000000000000000000000000000000000000000000000000000000000000000000000000000000000000000000000000000000000000000000000800000000000000000000000000000000000000000000000020000000000800000000000000000000000000000000001000000000000000000000000000000000000000000000000000000000000100000000000000000000000000000002100000000000000000000000000000004000000000000000",
      "type": "0x2",
      "transactionHash": "0xde8a22b20cefa615beb42c8368b53f3daf7c762dedd844e2e7804ec976ec5dff",
      "transactionIndex": "0x7d",
      "blockHash": "0xc8fb6951f74cc681f99cfb64a22493f3680e77e6f655f26fbbe4b0b79afd8438",
      "blockNumber": "0xa1f131",
      "gasUsed": "0xc877",
      "effectiveGasPrice": "0x881b38",
      "from": "0xe8df60a93b2b328397a8cbf73f0d732aaa11e33d",
      "to": "0xe957366c2be7d2a96ef9b0e55e3650f9cfdb810e",
      "contractAddress": null
    },
    {
      "status": "0x1",
      "cumulativeGasUsed": "0x157a279",
      "logs": [],
      "logsBloom": "0x00000000000000000000000000000000000000000000000000000000000000000000000000000000000000000000000000000000000000000000000000000000000000000000000000000000000000000000000000000000000000000000000000000000000000000000000000000000000000000000000000000000000000000000000000000000000000000000000000000000000000000000000000000000000000000000000000000000000000000000000000000000000000000000000000000000000000000000000000000000000000000000000000000000000000000000000000000000000000000000000000000000000000000000000000000000",
      "type": "0x2",
      "transactionHash": "0xdbd9ab25319a3e715e64b73ddf7b7473c13ae89c65a356c8b102d6bcb86570de",
      "transactionIndex": "0x7c",
      "blockHash": "0xc382872cb6ef9dc202793022d219c26d2e9f97d713d640fe31be7b64bd71fc3f",
      "blockNumber": "0xa1f132",
      "gasUsed": "0x7c9d",
      "effectiveGasPrice": "0x875f01",
      "from": "0xe8df60a93b2b328397a8cbf73f0d732aaa11e33d",
      "to": "0xe957366c2be7d2a96ef9b0e55e3650f9cfdb810e",
      "contractAddress": null
    },
    {
      "status": "0x1",
      "cumulativeGasUsed": "0x1509e5d",
      "logs": [
        {
          "address": "0xe957366c2be7d2a96ef9b0e55e3650f9cfdb810e",
          "topics": [
            "0xddf252ad1be2c89b69c2b068fc378daa952ba7f163c4a11628f55a4df523b3ef",
            "0x0000000000000000000000000000000000000000000000000000000000000000",
            "0x000000000000000000000000e8df60a93b2b328397a8cbf73f0d732aaa11e33d",
            "0x000000000000000000000000000000000000000000000000000000000000001b"
          ],
          "data": "0x",
          "blockHash": "0x29cc294eb1a5dd8190025a5b2bb9ccaa66b6047f2223dfaf02c0091223ef8a30",
          "blockNumber": "0xa1f133",
          "blockTimestamp": "0x69d5b0e8",
          "transactionHash": "0x10ef8ee4f74c7d9a5a2b9dda9fd8593c295b38ce64c5c08a528b953d2f678afc",
          "transactionIndex": "0x7a",
          "logIndex": "0x2a9",
          "removed": false
        }
      ],
      "logsBloom": "0x00000000000000000000000000000000000000000010000000000000000000000000000000000000000000400000000000000000000000000000000000000000000000000000000000000008000000000000000000000000000000000000000000000000020000000000000000000800000000000000000000000010000000000000000000000000000000000000000000000000000000000000000000000000000020000100000800000000000000000000000000008000000000000000000000000002000000000000000000000000000000000000000000000000000020000000000000000002100000000000000000000000000000004000000000000000",
      "type": "0x2",
      "transactionHash": "0x10ef8ee4f74c7d9a5a2b9dda9fd8593c295b38ce64c5c08a528b953d2f678afc",
      "transactionIndex": "0x7a",
      "blockHash": "0x29cc294eb1a5dd8190025a5b2bb9ccaa66b6047f2223dfaf02c0091223ef8a30",
      "blockNumber": "0xa1f133",
      "gasUsed": "0x456e6",
      "effectiveGasPrice": "0x858ce2",
      "from": "0xe8df60a93b2b328397a8cbf73f0d732aaa11e33d",
      "to": "0xe957366c2be7d2a96ef9b0e55e3650f9cfdb810e",
      "contractAddress": null
    },
    {
      "status": "0x1",
      "cumulativeGasUsed": "0x18659c7",
      "logs": [
        {
          "address": "0xe957366c2be7d2a96ef9b0e55e3650f9cfdb810e",
          "topics": [
            "0xddf252ad1be2c89b69c2b068fc378daa952ba7f163c4a11628f55a4df523b3ef",
            "0x0000000000000000000000000000000000000000000000000000000000000000",
            "0x000000000000000000000000e8df60a93b2b328397a8cbf73f0d732aaa11e33d",
            "0x000000000000000000000000000000000000000000000000000000000000001d"
          ],
          "data": "0x",
          "blockHash": "0x3e7e8dfb51a3034958e5a02dfaf796919d7aa519e0f678dec05649f003ae5873",
          "blockNumber": "0xa1f134",
          "blockTimestamp": "0x69d5b0f4",
          "transactionHash": "0xe20793d907623ee01a984930d32befb337db2e376634a911f88d1f8456fbcaa0",
          "transactionIndex": "0x86",
          "logIndex": "0x281",
          "removed": false
        }
      ],
      "logsBloom": "0x00000080000000000000000000000000000000000000000000000000000000000000000000000000000000400000000000000000000000000000000200000000000000000000000000000008000000000000000000000010000000000000000000000000020000000000000000000800000000000000000000000010000000000000000000000000000000000000000000000000000000000000000000000000000020000000000800000000000000000000000000000000000000000000000000000002000000000000000000000000000000000000000000000000000020000000000000000002100000000000000000000000000000004000000000000000",
      "type": "0x2",
      "transactionHash": "0xe20793d907623ee01a984930d32befb337db2e376634a911f88d1f8456fbcaa0",
      "transactionIndex": "0x86",
      "blockHash": "0x3e7e8dfb51a3034958e5a02dfaf796919d7aa519e0f678dec05649f003ae5873",
      "blockNumber": "0xa1f134",
      "gasUsed": "0x429fa",
      "effectiveGasPrice": "0x839987",
      "from": "0xe8df60a93b2b328397a8cbf73f0d732aaa11e33d",
      "to": "0xe957366c2be7d2a96ef9b0e55e3650f9cfdb810e",
      "contractAddress": null
    },
    {
      "status": "0x1",
      "cumulativeGasUsed": "0x13c129d",
      "logs": [
        {
          "address": "0xe957366c2be7d2a96ef9b0e55e3650f9cfdb810e",
          "topics": [
            "0xddf252ad1be2c89b69c2b068fc378daa952ba7f163c4a11628f55a4df523b3ef",
            "0x0000000000000000000000000000000000000000000000000000000000000000",
            "0x000000000000000000000000e8df60a93b2b328397a8cbf73f0d732aaa11e33d",
            "0x000000000000000000000000000000000000000000000000000000000031e612"
          ],
          "data": "0x",
          "blockHash": "0xe6aa0866688802ed15207830d282b5cde8d90f8e006c5dd44c773030859a4817",
          "blockNumber": "0xa1f135",
          "blockTimestamp": "0x69d5b100",
          "transactionHash": "0xd0e7de014a0a84b7f7930f0dbe97ce3d2fef8dd68ee83414437485246dafb10c",
          "transactionIndex": "0x79",
          "logIndex": "0x270",
          "removed": false
        }
      ],
      "logsBloom": "0x00000000000000000000000000000000200000000000000000000000000000000000000000000000000000400000000000000000000000000000000000000000000000000000000000000408000000000000000000000000000000000000000000000000020000000000000000000800000000000000000000000010000000000000000000000000000000000000000000000000000000000000000000000000000020000000000800000000000000000000000000000000000000000000000000000002000000000000000000000000000000000000000000000000000020000000000000000002100000000001000000000000000000004000000000000000",
      "type": "0x2",
      "transactionHash": "0xd0e7de014a0a84b7f7930f0dbe97ce3d2fef8dd68ee83414437485246dafb10c",
      "transactionIndex": "0x79",
      "blockHash": "0xe6aa0866688802ed15207830d282b5cde8d90f8e006c5dd44c773030859a4817",
      "blockNumber": "0xa1f135",
      "gasUsed": "0x4c5ba",
      "effectiveGasPrice": "0x84898d",
      "from": "0xe8df60a93b2b328397a8cbf73f0d732aaa11e33d",
      "to": "0xe957366c2be7d2a96ef9b0e55e3650f9cfdb810e",
      "contractAddress": null
    },
    {
      "status": "0x1",
      "cumulativeGasUsed": "0x16da574",
      "logs": [
        {
          "address": "0xe957366c2be7d2a96ef9b0e55e3650f9cfdb810e",
          "topics": [
            "0xddf252ad1be2c89b69c2b068fc378daa952ba7f163c4a11628f55a4df523b3ef",
            "0x0000000000000000000000000000000000000000000000000000000000000000",
            "0x000000000000000000000000e8df60a93b2b328397a8cbf73f0d732aaa11e33d",
            "0x000000000000000000000000000000000000000000000000000000000040166a"
          ],
          "data": "0x",
          "blockHash": "0x09c3f028dfba035c13db16c93a88359b6fdcbdddcb6e0ff50e875a535a715ae0",
          "blockNumber": "0xa1f136",
          "blockTimestamp": "0x69d5b10c",
          "transactionHash": "0x668541d56b4d555d5e8dd3520c27cf28923b4669f1f1122b5e42f2a89af49c7d",
          "transactionIndex": "0x81",
          "logIndex": "0x287",
          "removed": false
        }
      ],
      "logsBloom": "0x00000000000000000000000000000000000000000000000000000000000000000000000000000000000000400000000000000000000000000000000000000000000000000000000000000008000000000000100000000000000000000000000000000000020000000000000000000800000000000000000000000010000000000000000000000000000000000000000000000000000000000000000000000000000020000000000800000000000000000000000000002000000000000000000000000002000000000000000000000000000000000000000000000000000020000000000000100002100000000000000000000000000000004000000000000000",
      "type": "0x2",
      "transactionHash": "0x668541d56b4d555d5e8dd3520c27cf28923b4669f1f1122b5e42f2a89af49c7d",
      "transactionIndex": "0x81",
      "blockHash": "0x09c3f028dfba035c13db16c93a88359b6fdcbdddcb6e0ff50e875a535a715ae0",
      "blockNumber": "0xa1f136",
      "gasUsed": "0x4c54e",
      "effectiveGasPrice": "0x822560",
      "from": "0xe8df60a93b2b328397a8cbf73f0d732aaa11e33d",
      "to": "0xe957366c2be7d2a96ef9b0e55e3650f9cfdb810e",
      "contractAddress": null
    },
    {
      "status": "0x1",
      "cumulativeGasUsed": "0x280a48a",
      "logs": [
        {
          "address": "0xe957366c2be7d2a96ef9b0e55e3650f9cfdb810e",
          "topics": [
            "0xddf252ad1be2c89b69c2b068fc378daa952ba7f163c4a11628f55a4df523b3ef",
            "0x0000000000000000000000000000000000000000000000000000000000000000",
            "0x000000000000000000000000e8df60a93b2b328397a8cbf73f0d732aaa11e33d",
            "0x0000000000000000000000000000000000000000000000000000000000895441"
          ],
          "data": "0x",
          "blockHash": "0x374ab11df71ff8bcf9889b8a98f3d0363cc75674080a019e9182b43cc1529132",
          "blockNumber": "0xa1f137",
          "blockTimestamp": "0x69d5b124",
          "transactionHash": "0xb59d7fb76be5d7b4d1574da7d0202b4018e783907fbe9b168f211a59d9272182",
          "transactionIndex": "0xca",
          "logIndex": "0x58c",
          "removed": false
        }
      ],
      "logsBloom": "0x00000000000000000000000000100000000000000000000000000000000000000000000000000000000000400000000000000000000000000000000000000000000000000000400000000008000000000000000000000000000000000000000000000000020000800000000000000800000000000000000000000010000000000000000000000000000000000000000000000000000000000000000000000000000020000000000800000000000000000000000000000000000000000000000000000002000000000000000000000000000000000000000000000000000020000000000000000002100000000000000000000000000000004000000000000000",
      "type": "0x2",
      "transactionHash": "0xb59d7fb76be5d7b4d1574da7d0202b4018e783907fbe9b168f211a59d9272182",
      "transactionIndex": "0xca",
      "blockHash": "0x374ab11df71ff8bcf9889b8a98f3d0363cc75674080a019e9182b43cc1529132",
      "blockNumber": "0xa1f137",
      "gasUsed": "0x4298e",
      "effectiveGasPrice": "0x813d25",
      "from": "0xe8df60a93b2b328397a8cbf73f0d732aaa11e33d",
      "to": "0xe957366c2be7d2a96ef9b0e55e3650f9cfdb810e",
      "contractAddress": null
    }
  ],
  "libraries": [],
  "pending": [],
  "returns": {},
  "timestamp": 1775612202,
  "chain": 11155111,
  "commit": "3bf2614"
}