{
  "transactions": [
    {
      "hash": "0x85efe94a11d1b281cf3461442abda8ad21c023920283831f2d79d8c9b78b3c3a",
      "transactionType": "CALL",
      "contractName": null,
      "contractAddress": "0x41655ae49482de69eec8f6875c34a8ada01965e2",
      "function": "approve(address,uint256)",
      "arguments": [
        "0x8cE90712463c87a6d62941D67C3507D090Ea9d79",
        "16"
      ],
      "transaction": {
        "from": "0xe8df60a93b2b328397a8cbf73f0d732aaa11e33d",
        "to": "0x41655ae49482de69eec8f6875c34a8ada01965e2",
        "gas": "0x108ea",
        "value": "0x0",
        "input": "0x095ea7b30000000000000000000000008ce90712463c87a6d62941d67c3507d090ea9d790000000000000000000000000000000000000000000000000000000000000010",
        "nonce": "0x340",
        "chainId": "0xaa36a7"
      },
      "additionalContracts": [],
      "isFixedGasLimit": false
    },
    {
      "hash": "0x68fa1550cb025ed0be8a39e94b8126e77029adc6ca0b8c08f63d8d0d21551443",
      "transactionType": "CALL",
      "contractName": null,
      "contractAddress": "0x8ce90712463c87a6d62941d67c3507d090ea9d79",
      "function": "createListing(address,uint256,address,uint256,address,uint256,uint256,uint256,bool,bool,address[])",
      "arguments": [
        "0x41655AE49482de69eEC8F6875c34A8Ada01965e2",
        "16",
        "0x0000000000000000000000000000000000000000",
        "200000000000000",
        "0x0000000000000000000000000000000000000000",
        "0",
        "0",
        "0",
        "false",
        "false",
        "[]"
      ],
      "transaction": {
        "from": "0xe8df60a93b2b328397a8cbf73f0d732aaa11e33d",
        "to": "0x8ce90712463c87a6d62941d67c3507d090ea9d79",
        "gas": "0x4dd47",
        "value": "0x0",
        "input": "0xcf4dffa100000000000000000000000041655ae49482de69eec8f6875c34a8ada01965e2000000000000000000000000000000000000000000000000000000000000001000000000000000000000000000000000000000000000000000000000000000000000000000000000000000000000000000000000000000000000b5e620f4800000000000000000000000000000000000000000000000000000000000000000000000000000000000000000000000000000000000000000000000000000000000000000000000000000000000000000000000000000000000000000000000000000000000000000000000000000000000000000000000000000000000000000000000000000000000000000000000000000000000000000000000000000000000000000000000000000000000000000000000000000000000000000000000000000000000000000000000000000000000000000000000000000000000000001600000000000000000000000000000000000000000000000000000000000000000",
        "nonce": "0x341",
        "chainId": "0xaa36a7"
      },
      "additionalContracts": [],
      "isFixedGasLimit": false
    },
    {
      "hash": "0x27ff0528c7705c17a10bec61de598a05bfb881332e8b91cd9d4b2f8fba7aef81",
      "transactionType": "CALL",
      "contractName": null,
      "contractAddress": "0x8ce90712463c87a6d62941d67c3507d090ea9d79",
      "function": "purchaseListing(uint128,uint256,uint256,address,uint256,uint256,uint256,address)",
      "arguments": [
        "2",
        "200000000000000",
        "0",
        "0x0000000000000000000000000000000000000000",
        "0",
        "0",
        "0",
        "0x0000000000000000000000000000000000000000"
      ],
      "transaction": {
        "from": "0x8a200122f666af83af2d4f425ac7a35fa5491ca7",
        "to": "0x8ce90712463c87a6d62941d67c3507d090ea9d79",
        "gas": "0x30f12",
        "value": "0xb5e620f48000",
        "input": "0xb4562cc700000000000000000000000000000000000000000000000000000000000000020000000000000000000000000000000000000000000000000000b5e620f48000000000000000000000000000000000000000000000000000000000000000000000000000000000000000000000000000000000000000000000000000000000000000000000000000000000000000000000000000000000000000000000000000000000000000000000000000000000000000000000000000000000000000000000000000000000000000000000000000000000000000000000000000000000000000000000000000000000000000000000000000000000000000000000000000",
        "nonce": "0xd7",
        "chainId": "0xaa36a7"
      },
      "additionalContracts": [],
      "isFixedGasLimit": false
    },
    {
      "hash": "0xa56a858ae745e67fac7d92587b36ca9d80fec3fedb8ed2ec38fc8d631fdacebe",
      "transactionType": "CALL",
      "contractName": null,
      "contractAddress": "0x41655ae49482de69eec8f6875c34a8ada01965e2",
      "function": "safeTransferFrom(address,address,uint256)",
      "arguments": [
        "0x8a200122f666af83aF2D4f425aC7A35fa5491ca7",
        "0xE8dF60a93b2B328397a8CBf73f0d732aaa11e33D",
        "16"
      ],
      "transaction": {
        "from": "0x8a200122f666af83af2d4f425ac7a35fa5491ca7",
        "to": "0x41655ae49482de69eec8f6875c34a8ada01965e2",
        "gas": "0x1f445",
        "value": "0x0",
        "input": "0x42842e0e0000000000000000000000008a200122f666af83af2d4f425ac7a35fa5491ca7000000000000000000000000e8df60a93b2b328397a8cbf73f0d732aaa11e33d0000000000000000000000000000000000000000000000000000000000000010",
        "nonce": "0xd8",
        "chainId": "0xaa36a7"
      },
      "additionalContracts": [],
      "isFixedGasLimit": false
    },
    {
      "hash": "0x4cc002626e104e838543f84d0109c3d93fb0bc37c88e096340b232de8b05bd0d",
      "transactionType": "CALL",
      "contractName": null,
      "contractAddress": "0x41655ae49482de69eec8f6875c34a8ada01965e2",
      "function": "approve(address,uint256)",
      "arguments": [
        "0x8cE90712463c87a6d62941D67C3507D090Ea9d79",
        "534"
      ],
      "transaction": {
        "from": "0x8a200122f666af83af2d4f425ac7a35fa5491ca7",
        "to": "0x41655ae49482de69eec8f6875c34a8ada01965e2",
        "gas": "0x108fb",
        "value": "0x0",
        "input": "0x095ea7b30000000000000000000000008ce90712463c87a6d62941d67c3507d090ea9d790000000000000000000000000000000000000000000000000000000000000216",
        "nonce": "0xd9",
        "chainId": "0xaa36a7"
      },
      "additionalContracts": [],
      "isFixedGasLimit": false
    },
    {
      "hash": "0x2855e2eef1242e23939222f240f77c36b6491b86fbde92dc3b73cb5305b09fa0",
      "transactionType": "CALL",
      "contractName": null,
      "contractAddress": "0x8ce90712463c87a6d62941d67c3507d090ea9d79",
      "function": "createListing(address,uint256,address,uint256,address,uint256,uint256,uint256,bool,bool,address[])",
      "arguments": [
        "0x41655AE49482de69eEC8F6875c34A8Ada01965e2",
        "534",
        "0x0000000000000000000000000000000000000000",
        "300000000000000",
        "0x0000000000000000000000000000000000000000",
        "0",
        "0",
        "0",
        "false",
        "false",
        "[]"
      ],
      "transaction": {
        "from": "0x8a200122f666af83af2d4f425ac7a35fa5491ca7",
        "to": "0x8ce90712463c87a6d62941d67c3507d090ea9d79",
        "gas": "0x4dd6a",
        "value": "0x0",
        "input": "0xcf4dffa100000000000000000000000041655ae49482de69eec8f6875c34a8ada01965e200000000000000000000000000000000000000000000000000000000000002160000000000000000000000000000000000000000000000000000000000000000000000000000000000000000000000000000000000000000000110d9316ec00000000000000000000000000000000000000000000000000000000000000000000000000000000000000000000000000000000000000000000000000000000000000000000000000000000000000000000000000000000000000000000000000000000000000000000000000000000000000000000000000000000000000000000000000000000000000000000000000000000000000000000000000000000000000000000000000000000000000000000000000000000000000000000000000000000000000000000000000000000000000000000000000000000000000001600000000000000000000000000000000000000000000000000000000000000000",
        "nonce": "0xda",
        "chainId": "0xaa36a7"
      },
      "additionalContracts": [],
      "isFixedGasLimit": false
    },
    {
      "hash": "0x4c36c675a096930dfa476ee59e6eabefc0f98d484b4a8b2698d4525e8881825e",
      "transactionType": "CALL",
      "contractName": null,
      "contractAddress": "0x8ce90712463c87a6d62941d67c3507d090ea9d79",
      "function": "cancelListing(uint128)",
      "arguments": [
        "3"
      ],
      "transaction": {
        "from": "0x8a200122f666af83af2d4f425ac7a35fa5491ca7",
        "to": "0x8ce90712463c87a6d62941d67c3507d090ea9d79",
        "gas": "0x1516e",
        "value": "0x0",
        "input": "0x8e3d2fb20000000000000000000000000000000000000000000000000000000000000003",
        "nonce": "0xdb",
        "chainId": "0xaa36a7"
      },
      "additionalContracts": [],
      "isFixedGasLimit": false
    }
  ],
  "receipts": [
    {
      "status": "0x1",
      "cumulativeGasUsed": "0x60c639",
      "logs": [
        {
          "address": "0x41655ae49482de69eec8f6875c34a8ada01965e2",
          "topics": [
            "0x8c5be1e5ebec7d5bd14f71427d1e84f3dd0314c0f7b2291e5b200ac8c7c3b925",
            "0x000000000000000000000000e8df60a93b2b328397a8cbf73f0d732aaa11e33d",
            "0x0000000000000000000000008ce90712463c87a6d62941d67c3507d090ea9d79",
            "0x0000000000000000000000000000000000000000000000000000000000000010"
          ],
          "data": "0x",
          "blockHash": "0xf07dfe9dc9e8e32c4ca0bc7e746573553f27575c87fbdfdda871e490648bfb1e",
          "blockNumber": "0x904a9a",
          "blockTimestamp": "0x68f6f280",
          "transactionHash": "0x85efe94a11d1b281cf3461442abda8ad21c023920283831f2d79d8c9b78b3c3a",
          "transactionIndex": "0x29",
          "logIndex": "0x37",
          "removed": false
        }
      ],
      "logsBloom": "0x000000001000000080000000000000000000000000000010000000000000000000000000000000000000004000000000000000000000000000000000002000000000000000000000000000000000000000000000000000000000000000000000000000000000000000000000000000000000000000000000000000000400000000000000000040000000000000000000000001000000000000000000000000000200a0000000000002000000000000000000000000000040000000000000000000000000000000000000000000000000000000000000000000000000000000000010000000000000100000000000000000000000000000000000000000000000",
      "type": "0x2",
      "transactionHash": "0x85efe94a11d1b281cf3461442abda8ad21c023920283831f2d79d8c9b78b3c3a",
      "transactionIndex": "0x29",
      "blockHash": "0xf07dfe9dc9e8e32c4ca0bc7e746573553f27575c87fbdfdda871e490648bfb1e",
      "blockNumber": "0x904a9a",
      "gasUsed": "0xbfcc",
      "effectiveGasPrice": "0xf4249",
      "from": "0xe8df60a93b2b328397a8cbf73f0d732aaa11e33d",
      "to": "0x41655ae49482de69eec8f6875c34a8ada01965e2",
      "contractAddress": null
    },
    {
      "status": "0x1",
      "cumulativeGasUsed": "0x876ffc",
      "logs": [
        {
          "address": "0x8ce90712463c87a6d62941d67c3507d090ea9d79",
          "topics": [
            "0xf0ebe84ab70abb64a93861570163972d8d4182d154513433b5adf6441cb997d0",
            "0x0000000000000000000000000000000000000000000000000000000000000002",
            "0x00000000000000000000000041655ae49482de69eec8f6875c34a8ada01965e2",
            "0x0000000000000000000000000000000000000000000000000000000000000010"
          ],
          "data": "0x00000000000000000000000000000000000000000000000000000000000000000000000000000000000000000000000000000000000000000000b5e620f4800000000000000000000000000000000000000000000000000000000000000003e8000000000000000000000000e8df60a93b2b328397a8cbf73f0d732aaa11e33d00000000000000000000000000000000000000000000000000000000000000000000000000000000000000000000000000000000000000000000000000000000000000000000000000000000000000000000000000000000000000000000000000000000000000000000000000000000000000000000000000000000000000000000000000000000000000000000000000000000000000000000000000000000",
          "blockHash": "0xe9bf98191cca1ed8960bd6ed115cc0de969cc393222470c469f9941fd62bfee3",
          "blockNumber": "0x904a9b",
          "blockTimestamp": "0x68f6f28c",
          "transactionHash": "0x68fa1550cb025ed0be8a39e94b8126e77029adc6ca0b8c08f63d8d0d21551443",
          "transactionIndex": "0x6c",
          "logIndex": "0x85",
          "removed": false
        }
      ],
      "logsBloom": "0x04000000100000000000000000000000000000000000000000000000000000000000000000000000000000000000000000080000000000000000000000000002000000000000000000000000000000000000000000000000000000000000000000000000000000000000000000000000004000000004000000000000040000000000000000000000000000000000000000000100000000000000000000000000000000000000000000040100000000000000000000000000000000000000000000000000010000000000000000000000000000000000000000000000000800000000000000004001000000000000000000000000008000000000000000000000",
      "type": "0x2",
      "transactionHash": "0x68fa1550cb025ed0be8a39e94b8126e77029adc6ca0b8c08f63d8d0d21551443",
      "transactionIndex": "0x6c",
      "blockHash": "0xe9bf98191cca1ed8960bd6ed115cc0de969cc393222470c469f9941fd62bfee3",
      "blockNumber": "0x904a9b",
      "gasUsed": "0x35379",
      "effectiveGasPrice": "0xf4249",
      "from": "0xe8df60a93b2b328397a8cbf73f0d732aaa11e33d",
      "to": "0x8ce90712463c87a6d62941d67c3507d090ea9d79",
      "contractAddress": null
    },
    {
      "status": "0x1",
      "cumulativeGasUsed": "0x66529a",
      "logs": [
        {
          "address": "0x41655ae49482de69eec8f6875c34a8ada01965e2",
          "topics": [
            "0xddf252ad1be2c89b69c2b068fc378daa952ba7f163c4a11628f55a4df523b3ef",
            "0x000000000000000000000000e8df60a93b2b328397a8cbf73f0d732aaa11e33d",
            "0x0000000000000000000000008a200122f666af83af2d4f425ac7a35fa5491ca7",
            "0x0000000000000000000000000000000000000000000000000000000000000010"
          ],
          "data": "0x",
          "blockHash": "0x3d9646eff1859d85f7883f3365b1af8274b2fd880a0822a76171e14af83b3930",
          "blockNumber": "0x904a9c",
          "blockTimestamp": "0x68f6f298",
          "transactionHash": "0x27ff0528c7705c17a10bec61de598a05bfb881332e8b91cd9d4b2f8fba7aef81",
          "transactionIndex": "0x31",
          "logIndex": "0x6b",
          "removed": false
        },
        {
          "address": "0x8ce90712463c87a6d62941d67c3507d090ea9d79",
          "topics": [
            "0xf29ea8cf6560754479a8e1315af36da0b36abd368847025746c28e718b7d11ca",
            "0x0000000000000000000000000000000000000000000000000000000000000002",
            "0x00000000000000000000000041655ae49482de69eec8f6875c34a8ada01965e2",
            "0x0000000000000000000000000000000000000000000000000000000000000010"
          ],
          "data": "0x000000000000000000000000000000000000000000000000000000000000000000000000000000000000000000000000000000000000000000000000000000000000000000000000000000000000000000000000000000000000b5e620f4800000000000000000000000000000000000000000000000000000000000000003e8000000000000000000000000e8df60a93b2b328397a8cbf73f0d732aaa11e33d0000000000000000000000008a200122f666af83af2d4f425ac7a35fa5491ca7000000000000000000000000000000000000000000000000000000000000000000000000000000000000000000000000000000000000000000000000000000000000000000000000000000000000000000000000000000000000000000000000",
          "blockHash": "0x3d9646eff1859d85f7883f3365b1af8274b2fd880a0822a76171e14af83b3930",
          "blockNumber": "0x904a9c",
          "blockTimestamp": "0x68f6f298",
          "transactionHash": "0x27ff0528c7705c17a10bec61de598a05bfb881332e8b91cd9d4b2f8fba7aef81",
          "transactionIndex": "0x31",
          "logIndex": "0x6c",
          "removed": false
        }
      ],
      "logsBloom": "0x04000000100000000000000000000000000000000000000000000000000000000000000000000000000000400000000000088000000000000000000000000002000000000000000000000008000000000000000000000000000100000000000000000000020000000000000000000000004000800004000000000010040000000000000000004000000000000000000000000100000000000020000000000008000020000000000002000100000000000000000000000040000000000000000000000002010000000000000000000000000000000000000000000000000000000000000000004000100000000000000000000000008000000000000000000000",
      "type": "0x2",
      "transactionHash": "0x27ff0528c7705c17a10bec61de598a05bfb881332e8b91cd9d4b2f8fba7aef81",
      "transactionIndex": "0x31",
      "blockHash": "0x3d9646eff1859d85f7883f3365b1af8274b2fd880a0822a76171e14af83b3930",
      "blockNumber": "0x904a9c",
      "gasUsed": "0x236ef",
      "effectiveGasPrice": "0xf4249",
      "from": "0x8a200122f666af83af2d4f425ac7a35fa5491ca7",
      "to": "0x8ce90712463c87a6d62941d67c3507d090ea9d79",
      "contractAddress": null
    },
    {
      "status": "0x1",
      "cumulativeGasUsed": "0xe91ef5",
      "logs": [
        {
          "address": "0x41655ae49482de69eec8f6875c34a8ada01965e2",
          "topics": [
            "0xddf252ad1be2c89b69c2b068fc378daa952ba7f163c4a11628f55a4df523b3ef",
            "0x0000000000000000000000008a200122f666af83af2d4f425ac7a35fa5491ca7",
            "0x000000000000000000000000e8df60a93b2b328397a8cbf73f0d732aaa11e33d",
            "0x0000000000000000000000000000000000000000000000000000000000000010"
          ],
          "data": "0x",
          "blockHash": "0xcca320c242bdfe8a8d6464e374c7635fc2d11c1539a930894514458d5239444a",
          "blockNumber": "0x904a9d",
          "blockTimestamp": "0x68f6f2b0",
          "transactionHash": "0xa56a858ae745e67fac7d92587b36ca9d80fec3fedb8ed2ec38fc8d631fdacebe",
          "transactionIndex": "0x5e",
          "logIndex": "0xf2",
          "removed": false
        }
      ],
      "logsBloom": "0x00000000100000000000000000000000000000000000000000000000000000000000000000000000000000400000000000000000000000000000000000000000000000000000000000000008000000000000000000000000000100000000000000000000000000000000000000000000000000000000000000000010040000000000000000004000000000000000000000000100000000000020000000000008000020000000000002000000000000000000000000000040000000000000000000000002000000000000000000000000000000000000000000000000000000000000000000000000100000000000000000000000000000000000000000000000",
      "type": "0x2",
      "transactionHash": "0xa56a858ae745e67fac7d92587b36ca9d80fec3fedb8ed2ec38fc8d631fdacebe",
      "transactionIndex": "0x5e",
      "blockHash": "0xcca320c242bdfe8a8d6464e374c7635fc2d11c1539a930894514458d5239444a",
      "blockNumber": "0x904a9d",
      "gasUsed": "0x15611",
      "effectiveGasPrice": "0xf4249",
      "from": "0x8a200122f666af83af2d4f425ac7a35fa5491ca7",
      "to": "0x41655ae49482de69eec8f6875c34a8ada01965e2",
      "contractAddress": null
    },
    {
      "status": "0x1",
      "cumulativeGasUsed": "0x8e9c47",
      "logs": [
        {
          "address": "0x41655ae49482de69eec8f6875c34a8ada01965e2",
          "topics": [
            "0x8c5be1e5ebec7d5bd14f71427d1e84f3dd0314c0f7b2291e5b200ac8c7c3b925",
            "0x0000000000000000000000008a200122f666af83af2d4f425ac7a35fa5491ca7",
            "0x0000000000000000000000008ce90712463c87a6d62941d67c3507d090ea9d79",
            "0x0000000000000000000000000000000000000000000000000000000000000216"
          ],
          "data": "0x",
          "blockHash": "0x794af3f600443ae8d8d1d5d39b5937c8eb5e5fabe9ca5f38589e4ddbfca07c9b",
          "blockNumber": "0x904a9e",
          "blockTimestamp": "0x68f6f2bc",
          "transactionHash": "0x4cc002626e104e838543f84d0109c3d93fb0bc37c88e096340b232de8b05bd0d",
          "transactionIndex": "0x52",
          "logIndex": "0x82",
          "removed": false
        }
      ],
      "logsBloom": "0x00000000000000008000000000000000000000000000001000000000000000000000000000000000000000000000000000000000000000000000000000200000000000000000000000000000000000000000000000000000000100000000000000000000000000000000000000000000000000000000000000000000000000000000000000004000000000000000000000000000000000000020000000000008020080000000000002000000000000000000000000000040000000000000000400000000000000000000000040000000000000000000000000000000000000000090000000000000000000000000000000000000000000000000000000000000",
      "type": "0x2",
      "transactionHash": "0x4cc002626e104e838543f84d0109c3d93fb0bc37c88e096340b232de8b05bd0d",
      "transactionIndex": "0x52",
      "blockHash": "0x794af3f600443ae8d8d1d5d39b5937c8eb5e5fabe9ca5f38589e4ddbfca07c9b",
      "blockNumber": "0x904a9e",
      "gasUsed": "0xbfd8",
      "effectiveGasPrice": "0xf4249",
      "from": "0x8a200122f666af83af2d4f425ac7a35fa5491ca7",
      "to": "0x41655ae49482de69eec8f6875c34a8ada01965e2",
      "contractAddress": null
    },
    {
      "status": "0x1",
      "cumulativeGasUsed": "0x705eac",
      "logs": [
        {
          "address": "0x8ce90712463c87a6d62941d67c3507d090ea9d79",
          "topics": [
            "0xf0ebe84ab70abb64a93861570163972d8d4182d154513433b5adf6441cb997d0",
            "0x0000000000000000000000000000000000000000000000000000000000000003",
            "0x00000000000000000000000041655ae49482de69eec8f6875c34a8ada01965e2",
            "0x0000000000000000000000000000000000000000000000000000000000000216"
          ],
          "data": "0x0000000000000000000000000000000000000000000000000000000000000000000000000000000000000000000000000000000000000000000110d9316ec00000000000000000000000000000000000000000000000000000000000000003e80000000000000000000000008a200122f666af83af2d4f425ac7a35fa5491ca700000000000000000000000000000000000000000000000000000000000000000000000000000000000000000000000000000000000000000000000000000000000000000000000000000000000000000000000000000000000000000000000000000000000000000000000000000000000000000000000000000000000000000000000000000000000000000000000000000000000000000000000000000000",
          "blockHash": "0xc33b49cbefc41c88f66a4161417a92fdfe948e7157b8d3d424cbcc81dee5b26a",
          "blockNumber": "0x904a9f",
          "blockTimestamp": "0x68f6f2c8",
          "transactionHash": "0x2855e2eef1242e23939222f240f77c36b6491b86fbde92dc3b73cb5305b09fa0",
          "transactionIndex": "0x4e",
          "logIndex": "0x73",
          "removed": false
        }
      ],
      "logsBloom": "0x00000000000000000000000000000000000000000000000000000000000000000000000000000000000000000000000000080000020000000000000000000002000000000000000000000000000000000000000000000000000000000000000000000000000000000000000000000000004000000004000000000000000000000000000000000000000000000000000000000000000000000000000000000000000000000000000000040000000000000000000000800000000000000000400400000000010000000000000040000000000000000000000000000000000800000080000000004001000000000000000000000000000000000000000000000000",
      "type": "0x2",
      "transactionHash": "0x2855e2eef1242e23939222f240f77c36b6491b86fbde92dc3b73cb5305b09fa0",
      "transactionIndex": "0x4e",
      "blockHash": "0xc33b49cbefc41c88f66a4161417a92fdfe948e7157b8d3d424cbcc81dee5b26a",
      "blockNumber": "0x904a9f",
      "gasUsed": "0x35391",
      "effectiveGasPrice": "0xf4249",
      "from": "0x8a200122f666af83af2d4f425ac7a35fa5491ca7",
      "to": "0x8ce90712463c87a6d62941d67c3507d090ea9d79",
      "contractAddress": null
    },
    {
      "status": "0x1",
      "cumulativeGasUsed": "0x68e640",
      "logs": [
        {
          "address": "0x8ce90712463c87a6d62941d67c3507d090ea9d79",
          "topics": [
            "0x28592305c18226b9e6079b5f45adc09026856cd3ac5a2bca38b0384db299ed64",
            "0x0000000000000000000000000000000000000000000000000000000000000003",
            "0x00000000000000000000000041655ae49482de69eec8f6875c34a8ada01965e2",
            "0x0000000000000000000000000000000000000000000000000000000000000216"
          ],
          "data": "0x0000000000000000000000008a200122f666af83af2d4f425ac7a35fa5491ca70000000000000000000000008a200122f666af83af2d4f425ac7a35fa5491ca7",
          "blockHash": "0x97379439739465df4a3fac35d283f24a057bfa82f8cffe9db6426a9db1fb49c4",
          "blockNumber": "0x904aa0",
          "blockTimestamp": "0x68f6f2d4",
          "transactionHash": "0x4c36c675a096930dfa476ee59e6eabefc0f98d484b4a8b2698d4525e8881825e",
          "transactionIndex": "0x45",
          "logIndex": "0x48",
          "removed": false
        }
      ],
      "logsBloom": "0x00000000000000000000040000000100000000000000000000000000000000000000000000000000000000000000000000080000020000000000000000000002000000000000000000000000000000000000000000000000000000000000000000000000000000000000000000000000004000000004000000000000000000000000000000000000000000000000000000000000000000000000000000000000000000000000000000040000000000000000000000800000000000000000400400000000010000000000000040000000000000000000000000000000000000000080000000004000000000000000000000000000000000000000000000000000",
      "type": "0x2",
      "transactionHash": "0x4c36c675a096930dfa476ee59e6eabefc0f98d484b4a8b2698d4525e8881825e",
      "transactionIndex": "0x45",
      "blockHash": "0x97379439739465df4a3fac35d283f24a057bfa82f8cffe9db6426a9db1fb49c4",
      "blockNumber": "0x904aa0",
      "gasUsed": "0xf44c",
      "effectiveGasPrice": "0xf4249",
      "from": "0x8a200122f666af83af2d4f425ac7a35fa5491ca7",
      "to": "0x8ce90712463c87a6d62941d67c3507d090ea9d79",
      "contractAddress": null
    }
  ],
  "libraries": [],
  "pending": [],
  "returns": {},
  "timestamp": 1761014486,
  "chain": 11155111,
  "commit": "dc8e79f"
}