{
  "transactions": [
    {
      "hash": "0xf9520982f788ed122267d88dd406c5c3a983acb940e2d98b8530b0a746768b32",
      "transactionType": "CALL",
      "contractName": null,
      "contractAddress": "0x1107eb26d47a5bf88e9a9f97cbc7ea38c3e1d7ec",
      "function": "addWhitelistedCollection(address)",
      "arguments": [
        "0x41655AE49482de69eEC8F6875c34A8Ada01965e2"
      ],
      "transaction": {
        "from": "0xe8df60a93b2b328397a8cbf73f0d732aaa11e33d",
        "to": "0x1107eb26d47a5bf88e9a9f97cbc7ea38c3e1d7ec",
        "gas": "0x226c2",
        "value": "0x0",
        "input": "0xd18e629c00000000000000000000000041655ae49482de69eec8f6875c34a8ada01965e2",
        "nonce": "0x392",
        "chainId": "0xaa36a7"
      },
      "additionalContracts": [],
      "isFixedGasLimit": false
    },
    {
      "hash": "0x29c511a266ad8d1f090a0e254ee6efc704e1a15781ef4b1877bd2c53c79b4802",
      "transactionType": "CALL",
      "contractName": null,
      "contractAddress": "0x41655ae49482de69eec8f6875c34a8ada01965e2",
      "function": "approve(address,uint256)",
      "arguments": [
        "0x1107Eb26D47A5bF88E9a9F97cbC7EA38c3E1D7EC",
        "16"
      ],
      "transaction": {
        "from": "0xe8df60a93b2b328397a8cbf73f0d732aaa11e33d",
        "to": "0x41655ae49482de69eec8f6875c34a8ada01965e2",
        "gas": "0x108ea",
        "value": "0x0",
        "input": "0x095ea7b30000000000000000000000001107eb26d47a5bf88e9a9f97cbc7ea38c3e1d7ec0000000000000000000000000000000000000000000000000000000000000010",
        "nonce": "0x393",
        "chainId": "0xaa36a7"
      },
      "additionalContracts": [],
      "isFixedGasLimit": false
    },
    {
      "hash": "0x435c69735a79ed21281046319dd22ea8437ec02a3890b8ab60e0e1e02b697335",
      "transactionType": "CALL",
      "contractName": null,
      "contractAddress": "0x1107eb26d47a5bf88e9a9f97cbc7ea38c3e1d7ec",
      "function": "createListing(address,uint256,address,uint256,address,address,uint256,uint256,uint256,bool,bool,address[])",
      "arguments": [
        "0x41655AE49482de69eEC8F6875c34A8Ada01965e2",
        "16",
        "0x0000000000000000000000000000000000000000",
        "200000000000000",
        "0x0000000000000000000000000000000000000000",
        "0x0000000000000000000000000000000000000000",
        "0",
        "0",
        "0",
        "false",
        "false",
        "[]"
      ],
      "transaction": {
        "from": "0xe8df60a93b2b328397a8cbf73f0d732aaa11e33d",
        "to": "0x1107eb26d47a5bf88e9a9f97cbc7ea38c3e1d7ec",
        "gas": "0x4864f",
        "value": "0x0",
        "input": "0x34ab8a4400000000000000000000000041655ae49482de69eec8f6875c34a8ada01965e2000000000000000000000000000000000000000000000000000000000000001000000000000000000000000000000000000000000000000000000000000000000000000000000000000000000000000000000000000000000000b5e620f48000000000000000000000000000000000000000000000000000000000000000000000000000000000000000000000000000000000000000000000000000000000000000000000000000000000000000000000000000000000000000000000000000000000000000000000000000000000000000000000000000000000000000000000000000000000000000000000000000000000000000000000000000000000000000000000000000000000000000000000000000000000000000000000000000000000000000000000000000000000000000000000000000000000000000000000000000000000000000000000000000000000000000000000000000000001800000000000000000000000000000000000000000000000000000000000000000",
        "nonce": "0x394",
        "chainId": "0xaa36a7"
      },
      "additionalContracts": [],
      "isFixedGasLimit": false
    },
    {
      "hash": "0x44074d6be200935962afae1651edea8cd30a474c997ef3a253a7b7cc9a5c9585",
      "transactionType": "CALL",
      "contractName": null,
      "contractAddress": "0x1107eb26d47a5bf88e9a9f97cbc7ea38c3e1d7ec",
      "function": "purchaseListing(uint128,uint256,address,uint256,address,uint256,uint256,uint256,address)",
      "arguments": [
        "20",
        "200000000000000",
        "0x0000000000000000000000000000000000000000",
        "0",
        "0x0000000000000000000000000000000000000000",
        "0",
        "0",
        "0",
        "0x0000000000000000000000000000000000000000"
      ],
      "transaction": {
        "from": "0x8a200122f666af83af2d4f425ac7a35fa5491ca7",
        "to": "0x1107eb26d47a5bf88e9a9f97cbc7ea38c3e1d7ec",
        "gas": "0x379e6",
        "value": "0xb5e620f48000",
        "input": "0xc333bac700000000000000000000000000000000000000000000000000000000000000140000000000000000000000000000000000000000000000000000b5e620f480000000000000000000000000000000000000000000000000000000000000000000000000000000000000000000000000000000000000000000000000000000000000000000000000000000000000000000000000000000000000000000000000000000000000000000000000000000000000000000000000000000000000000000000000000000000000000000000000000000000000000000000000000000000000000000000000000000000000000000000000000000000000000000000000000000000000000000000000000000000000000000000000000000000000000000",
        "nonce": "0x107",
        "chainId": "0xaa36a7"
      },
      "additionalContracts": [],
      "isFixedGasLimit": false
    },
    {
      "hash": "0x8a959e86082e147468ca9393111f9c6a25cf5b43b146afaec3bbbfb883902220",
      "transactionType": "CALL",
      "contractName": null,
      "contractAddress": "0x41655ae49482de69eec8f6875c34a8ada01965e2",
      "function": "safeTransferFrom(address,address,uint256)",
      "arguments": [
        "0x8a200122f666af83aF2D4f425aC7A35fa5491ca7",
        "0xE8dF60a93b2B328397a8CBf73f0d732aaa11e33D",
        "16"
      ],
      "transaction": {
        "from": "0x8a200122f666af83af2d4f425ac7a35fa5491ca7",
        "to": "0x41655ae49482de69eec8f6875c34a8ada01965e2",
        "gas": "0x1f445",
        "value": "0x0",
        "input": "0x42842e0e0000000000000000000000008a200122f666af83af2d4f425ac7a35fa5491ca7000000000000000000000000e8df60a93b2b328397a8cbf73f0d732aaa11e33d0000000000000000000000000000000000000000000000000000000000000010",
        "nonce": "0x108",
        "chainId": "0xaa36a7"
      },
      "additionalContracts": [],
      "isFixedGasLimit": false
    },
    {
      "hash": "0x87ffc7d6fa6fe8f771be45573d16f967fdf498796600e379cfdce8f93b3a563a",
      "transactionType": "CALL",
      "contractName": null,
      "contractAddress": "0x41655ae49482de69eec8f6875c34a8ada01965e2",
      "function": "approve(address,uint256)",
      "arguments": [
        "0x1107Eb26D47A5bF88E9a9F97cbC7EA38c3E1D7EC",
        "534"
      ],
      "transaction": {
        "from": "0x8a200122f666af83af2d4f425ac7a35fa5491ca7",
        "to": "0x41655ae49482de69eec8f6875c34a8ada01965e2",
        "gas": "0xacb7",
        "value": "0x0",
        "input": "0x095ea7b30000000000000000000000001107eb26d47a5bf88e9a9f97cbc7ea38c3e1d7ec0000000000000000000000000000000000000000000000000000000000000216",
        "nonce": "0x109",
        "chainId": "0xaa36a7"
      },
      "additionalContracts": [],
      "isFixedGasLimit": false
    },
    {
      "hash": "0x138923b80373cd684f4c3e9b4940f109358704c669be49ea891bd63e70fd6043",
      "transactionType": "CALL",
      "contractName": null,
      "contractAddress": "0x1107eb26d47a5bf88e9a9f97cbc7ea38c3e1d7ec",
      "function": "createListing(address,uint256,address,uint256,address,address,uint256,uint256,uint256,bool,bool,address[])",
      "arguments": [
        "0x41655AE49482de69eEC8F6875c34A8Ada01965e2",
        "534",
        "0x0000000000000000000000000000000000000000",
        "300000000000000",
        "0x0000000000000000000000000000000000000000",
        "0x0000000000000000000000000000000000000000",
        "0",
        "0",
        "0",
        "false",
        "false",
        "[]"
      ],
      "transaction": {
        "from": "0x8a200122f666af83af2d4f425ac7a35fa5491ca7",
        "to": "0x1107eb26d47a5bf88e9a9f97cbc7ea38c3e1d7ec",
        "gas": "0x48672",
        "value": "0x0",
        "input": "0x34ab8a4400000000000000000000000041655ae49482de69eec8f6875c34a8ada01965e200000000000000000000000000000000000000000000000000000000000002160000000000000000000000000000000000000000000000000000000000000000000000000000000000000000000000000000000000000000000110d9316ec000000000000000000000000000000000000000000000000000000000000000000000000000000000000000000000000000000000000000000000000000000000000000000000000000000000000000000000000000000000000000000000000000000000000000000000000000000000000000000000000000000000000000000000000000000000000000000000000000000000000000000000000000000000000000000000000000000000000000000000000000000000000000000000000000000000000000000000000000000000000000000000000000000000000000000000000000000000000000000000000000000000000000000000000000000001800000000000000000000000000000000000000000000000000000000000000000",
        "nonce": "0x10a",
        "chainId": "0xaa36a7"
      },
      "additionalContracts": [],
      "isFixedGasLimit": false
    },
    {
      "hash": "0x172089727d8159392b0b01b9af871e4a1d26908b674a8101a9735b6a30653a7c",
      "transactionType": "CALL",
      "contractName": null,
      "contractAddress": "0x1107eb26d47a5bf88e9a9f97cbc7ea38c3e1d7ec",
      "function": "cancelListing(uint128)",
      "arguments": [
        "21"
      ],
      "transaction": {
        "from": "0x8a200122f666af83af2d4f425ac7a35fa5491ca7",
        "to": "0x1107eb26d47a5bf88e9a9f97cbc7ea38c3e1d7ec",
        "gas": "0x13d7d",
        "value": "0x0",
        "input": "0x8e3d2fb20000000000000000000000000000000000000000000000000000000000000015",
        "nonce": "0x10b",
        "chainId": "0xaa36a7"
      },
      "additionalContracts": [],
      "isFixedGasLimit": false
    }
  ],
  "receipts": [
    {
      "status": "0x1",
      "cumulativeGasUsed": "0x64aed9",
      "logs": [
        {
          "address": "0x1107eb26d47a5bf88e9a9f97cbc7ea38c3e1d7ec",
          "topics": [
            "0xc6757dbc7fb2f8d2ad19a4c73767f4584dd07cf7fc2bcfefc9cbf1f0279177fe",
            "0x00000000000000000000000041655ae49482de69eec8f6875c34a8ada01965e2"
          ],
          "data": "0x",
          "blockHash": "0xe274ae0b0b8a4dac1b094b7b96ee4153306e04826b375d85c69bac00269fb65d",
          "blockNumber": "0x9a77d3",
          "blockTimestamp": "0x69769374",
          "transactionHash": "0xf9520982f788ed122267d88dd406c5c3a983acb940e2d98b8530b0a746768b32",
          "transactionIndex": "0x2f",
          "logIndex": "0x70",
          "removed": false
        }
      ],
      "logsBloom": "0x00000000000000000000000000000000100000000000000000000000000010000000000000000000000000000000000400000000000000000000020002000000000000000000000000000000000000000000000000000000000000000000000000000000000000000000000000000000004000000004000000000000000000000000000000000000000000000000000000000000000000000000000000000000000000000000000000000000000000000000000000000000000000000000000000000000000000000000000000000000000000000000000000000000000000000000000000004000000000000000000000000000000000000000000000000020",
      "type": "0x2",
      "transactionHash": "0xf9520982f788ed122267d88dd406c5c3a983acb940e2d98b8530b0a746768b32",
      "transactionIndex": "0x2f",
      "blockHash": "0xe274ae0b0b8a4dac1b094b7b96ee4153306e04826b375d85c69bac00269fb65d",
      "blockNumber": "0x9a77d3",
      "gasUsed": "0x18ebe",
      "effectiveGasPrice": "0x4308fb58",
      "from": "0xe8df60a93b2b328397a8cbf73f0d732aaa11e33d",
      "to": "0x1107eb26d47a5bf88e9a9f97cbc7ea38c3e1d7ec",
      "contractAddress": null
    },
    {
      "status": "0x1",
      "cumulativeGasUsed": "0x8c6848",
      "logs": [
        {
          "address": "0x41655ae49482de69eec8f6875c34a8ada01965e2",
          "topics": [
            "0x8c5be1e5ebec7d5bd14f71427d1e84f3dd0314c0f7b2291e5b200ac8c7c3b925",
            "0x000000000000000000000000e8df60a93b2b328397a8cbf73f0d732aaa11e33d",
            "0x0000000000000000000000001107eb26d47a5bf88e9a9f97cbc7ea38c3e1d7ec",
            "0x0000000000000000000000000000000000000000000000000000000000000010"
          ],
          "data": "0x",
          "blockHash": "0x73b4c1ba45f2be55fafb12a317bb1056bcde8a332c0fe5c43293efa974a8c5db",
          "blockNumber": "0x9a77d4",
          "blockTimestamp": "0x69769380",
          "transactionHash": "0x29c511a266ad8d1f090a0e254ee6efc704e1a15781ef4b1877bd2c53c79b4802",
          "transactionIndex": "0x2a",
          "logIndex": "0x3c",
          "removed": false
        }
      ],
      "logsBloom": "0x00000000100000000000000000000000000000000000000000000000000000000000000000000000000000400000000000000000000000000000000000200000000000000000000000000000000000000000000000000000000000000000000000000000000000000000000000000000000000000000000000000000040000000000000000004000000000000200000000000100000000000000000000000000020020000000000006000000000000000000000000000040000000000000002000000000000000000000000000000000000000000000000000000000000000000010000000000000100000000000000000000000000000000000000000000000",
      "type": "0x2",
      "transactionHash": "0x29c511a266ad8d1f090a0e254ee6efc704e1a15781ef4b1877bd2c53c79b4802",
      "transactionIndex": "0x2a",
      "blockHash": "0x73b4c1ba45f2be55fafb12a317bb1056bcde8a332c0fe5c43293efa974a8c5db",
      "blockNumber": "0x9a77d4",
      "gasUsed": "0xbfcc",
      "effectiveGasPrice": "0x3c81cf68",
      "from": "0xe8df60a93b2b328397a8cbf73f0d732aaa11e33d",
      "to": "0x41655ae49482de69eec8f6875c34a8ada01965e2",
      "contractAddress": null
    },
    {
      "status": "0x1",
      "cumulativeGasUsed": "0x38ef674",
      "logs": [
        {
          "address": "0x1107eb26d47a5bf88e9a9f97cbc7ea38c3e1d7ec",
          "topics": [
            "0x01d722b1eb1f8d0a1331c6b9d4df6f88a8169986a749e715c3b7cdf79c354d28",
            "0x0000000000000000000000000000000000000000000000000000000000000014",
            "0x00000000000000000000000041655ae49482de69eec8f6875c34a8ada01965e2",
            "0x0000000000000000000000000000000000000000000000000000000000000010"
          ],
          "data": "0x00000000000000000000000000000000000000000000000000000000000000000000000000000000000000000000000000000000000000000000b5e620f48000000000000000000000000000000000000000000000000000000000000000000000000000000000000000000000000000000000000000000000000000000003e8000000000000000000000000e8df60a93b2b328397a8cbf73f0d732aaa11e33d00000000000000000000000000000000000000000000000000000000000000000000000000000000000000000000000000000000000000000000000000000000000000000000000000000000000000000000000000000000000000000000000000000000000000000000000000000000000000000000000000000000000000000000000000000000000000000000000000000000000000000000000000000000",
          "blockHash": "0x11e7eb00b45824e449e8ade51772847a754f49f8989ee13bf387cdbd694f6b01",
          "blockNumber": "0x9a77d5",
          "blockTimestamp": "0x6976938c",
          "transactionHash": "0x435c69735a79ed21281046319dd22ea8437ec02a3890b8ab60e0e1e02b697335",
          "transactionIndex": "0x40",
          "logIndex": "0x5a",
          "removed": false
        }
      ],
      "logsBloom": "0x00000000100000000000000000000000000000000000000000000000000000000000000000000000000000000000000400002000000000000000000002000000000000000000000000000000000000000001800000000000000000000000000000000000000000000000000000000000004000000004000000000000040000000000000000000000000000000000000000000100000400000000000000000000000000000000000020000000002000000000000000000000000000000000000000000000000000000000000000000000000000000000000000000000000000000000000000004000000000000000000000000000000000000000000000000020",
      "type": "0x2",
      "transactionHash": "0x435c69735a79ed21281046319dd22ea8437ec02a3890b8ab60e0e1e02b697335",
      "transactionIndex": "0x40",
      "blockHash": "0x11e7eb00b45824e449e8ade51772847a754f49f8989ee13bf387cdbd694f6b01",
      "blockNumber": "0x9a77d5",
      "gasUsed": "0x31802",
      "effectiveGasPrice": "0x3850526b",
      "from": "0xe8df60a93b2b328397a8cbf73f0d732aaa11e33d",
      "to": "0x1107eb26d47a5bf88e9a9f97cbc7ea38c3e1d7ec",
      "contractAddress": null
    },
    {
      "status": "0x1",
      "cumulativeGasUsed": "0x4647a5",
      "logs": [
        {
          "address": "0x41655ae49482de69eec8f6875c34a8ada01965e2",
          "topics": [
            "0xddf252ad1be2c89b69c2b068fc378daa952ba7f163c4a11628f55a4df523b3ef",
            "0x000000000000000000000000e8df60a93b2b328397a8cbf73f0d732aaa11e33d",
            "0x0000000000000000000000008a200122f666af83af2d4f425ac7a35fa5491ca7",
            "0x0000000000000000000000000000000000000000000000000000000000000010"
          ],
          "data": "0x",
          "blockHash": "0x1ad27f962873cfb7137373c9bde6bae961d2abad6c24d24635a93aa54178d83d",
          "blockNumber": "0x9a77d6",
          "blockTimestamp": "0x69769398",
          "transactionHash": "0x44074d6be200935962afae1651edea8cd30a474c997ef3a253a7b7cc9a5c9585",
          "transactionIndex": "0x2e",
          "logIndex": "0x3a",
          "removed": false
        },
        {
          "address": "0x1107eb26d47a5bf88e9a9f97cbc7ea38c3e1d7ec",
          "topics": [
            "0x8c26bcce2d0d4d813355b4d3481b5566faf6a15a9ac0c9d74258ac0b80ff113d",
            "0x0000000000000000000000000000000000000000000000000000000000000014",
            "0x000000000000000000000000e8df60a93b2b328397a8cbf73f0d732aaa11e33d",
            "0x0000000000000000000000000000000000000000000000000000000000000000"
          ],
          "data": "0x000000000000000000000000000000000000000000000000000001d1a94a2000",
          "blockHash": "0x1ad27f962873cfb7137373c9bde6bae961d2abad6c24d24635a93aa54178d83d",
          "blockNumber": "0x9a77d6",
          "blockTimestamp": "0x69769398",
          "transactionHash": "0x44074d6be200935962afae1651edea8cd30a474c997ef3a253a7b7cc9a5c9585",
          "transactionIndex": "0x2e",
          "logIndex": "0x3b",
          "removed": false
        },
        {
          "address": "0x1107eb26d47a5bf88e9a9f97cbc7ea38c3e1d7ec",
          "topics": [
            "0x1e23ef5682d6636d40f442322484a34763e4dff948d59bc12a607b855c6a935e",
            "0x0000000000000000000000000000000000000000000000000000000000000014",
            "0x000000000000000000000000e8df60a93b2b328397a8cbf73f0d732aaa11e33d",
            "0x0000000000000000000000000000000000000000000000000000000000000000"
          ],
          "data": "0x0000000000000000000000000000000000000000000000000000b41477aa6000",
          "blockHash": "0x1ad27f962873cfb7137373c9bde6bae961d2abad6c24d24635a93aa54178d83d",
          "blockNumber": "0x9a77d6",
          "blockTimestamp": "0x69769398",
          "transactionHash": "0x44074d6be200935962afae1651edea8cd30a474c997ef3a253a7b7cc9a5c9585",
          "transactionIndex": "0x2e",
          "logIndex": "0x3c",
          "removed": false
        },
        {
          "address": "0x1107eb26d47a5bf88e9a9f97cbc7ea38c3e1d7ec",
          "topics": [
            "0xa085c46b82b88e0514227f1a3cf1929291b941b7f3035a015a1d525f174a196e",
            "0x0000000000000000000000000000000000000000000000000000000000000014",
            "0x00000000000000000000000041655ae49482de69eec8f6875c34a8ada01965e2",
            "0x0000000000000000000000000000000000000000000000000000000000000010"
          ],
          "data": "0x000000000000000000000000000000000000000000000000000000000000000000000000000000000000000000000000000000000000000000000000000000000000000000000000000000000000000000000000000000000000b5e620f48000000000000000000000000000000000000000000000000000000000000000000000000000000000000000000000000000000000000000000000000000000003e8000000000000000000000000e8df60a93b2b328397a8cbf73f0d732aaa11e33d0000000000000000000000008a200122f666af83af2d4f425ac7a35fa5491ca7000000000000000000000000000000000000000000000000000000000000000000000000000000000000000000000000000000000000000000000000000000000000000000000000000000000000000000000000000000000000000000000000",
          "blockHash": "0x1ad27f962873cfb7137373c9bde6bae961d2abad6c24d24635a93aa54178d83d",
          "blockNumber": "0x9a77d6",
          "blockTimestamp": "0x69769398",
          "transactionHash": "0x44074d6be200935962afae1651edea8cd30a474c997ef3a253a7b7cc9a5c9585",
          "transactionIndex": "0x2e",
          "logIndex": "0x3d",
          "removed": false
        }
      ],
      "logsBloom": "0x00000000100000000000000000000000000000000000000000000000000000000000000000000000000000400000000400002000000000000000000002000000001000000000000000000008000000000000000000010000000100000000000000000008020000400000000000000800004000000004000000000010040000000000000040004000000000000000000000000100000400000020000000000008000020000000000022000000000000000000000000000040000000000800000001000002000000000000000000000000000000000000000000000000000020000000000000004000104000000000004000000000000000000000000000000020",
      "type": "0x2",
      "transactionHash": "0x44074d6be200935962afae1651edea8cd30a474c997ef3a253a7b7cc9a5c9585",
      "transactionIndex": "0x2e",
      "blockHash": "0x1ad27f962873cfb7137373c9bde6bae961d2abad6c24d24635a93aa54178d83d",
      "blockNumber": "0x9a77d6",
      "gasUsed": "0x2607b",
      "effectiveGasPrice": "0x3f542ef1",
      "from": "0x8a200122f666af83af2d4f425ac7a35fa5491ca7",
      "to": "0x1107eb26d47a5bf88e9a9f97cbc7ea38c3e1d7ec",
      "contractAddress": null
    },
    {
      "status": "0x1",
      "cumulativeGasUsed": "0x162f8e2",
      "logs": [
        {
          "address": "0x41655ae49482de69eec8f6875c34a8ada01965e2",
          "topics": [
            "0xddf252ad1be2c89b69c2b068fc378daa952ba7f163c4a11628f55a4df523b3ef",
            "0x0000000000000000000000008a200122f666af83af2d4f425ac7a35fa5491ca7",
            "0x000000000000000000000000e8df60a93b2b328397a8cbf73f0d732aaa11e33d",
            "0x0000000000000000000000000000000000000000000000000000000000000010"
          ],
          "data": "0x",
          "blockHash": "0x3442c6da93e752546349d4a278984f0f6f6e464925a29637c8bc456c7258557d",
          "blockNumber": "0x9a77d7",
          "blockTimestamp": "0x697693a4",
          "transactionHash": "0x8a959e86082e147468ca9393111f9c6a25cf5b43b146afaec3bbbfb883902220",
          "transactionIndex": "0x38",
          "logIndex": "0x62",
          "removed": false
        }
      ],
      "logsBloom": "0x00000000100000000000000000000000000000000000000000000000000000000000000000000000000000400000000000000000000000000000000000000000000000000000000000000008000000000000000000000000000100000000000000000000000000000000000000000000000000000000000000000010040000000000000000004000000000000000000000000100000000000020000000000008000020000000000002000000000000000000000000000040000000000000000000000002000000000000000000000000000000000000000000000000000000000000000000000000100000000000000000000000000000000000000000000000",
      "type": "0x2",
      "transactionHash": "0x8a959e86082e147468ca9393111f9c6a25cf5b43b146afaec3bbbfb883902220",
      "transactionIndex": "0x38",
      "blockHash": "0x3442c6da93e752546349d4a278984f0f6f6e464925a29637c8bc456c7258557d",
      "blockNumber": "0x9a77d7",
      "gasUsed": "0x15611",
      "effectiveGasPrice": "0x38dcf5d0",
      "from": "0x8a200122f666af83af2d4f425ac7a35fa5491ca7",
      "to": "0x41655ae49482de69eec8f6875c34a8ada01965e2",
      "contractAddress": null
    },
    {
      "status": "0x1",
      "cumulativeGasUsed": "0x3924565",
      "logs": [
        {
          "address": "0x41655ae49482de69eec8f6875c34a8ada01965e2",
          "topics": [
            "0x8c5be1e5ebec7d5bd14f71427d1e84f3dd0314c0f7b2291e5b200ac8c7c3b925",
            "0x0000000000000000000000008a200122f666af83af2d4f425ac7a35fa5491ca7",
            "0x0000000000000000000000001107eb26d47a5bf88e9a9f97cbc7ea38c3e1d7ec",
            "0x0000000000000000000000000000000000000000000000000000000000000216"
          ],
          "data": "0x",
          "blockHash": "0x48d487ce74bf03bf27cf8c8da730a2815252438b09874bfd7294d79ec70fba88",
          "blockNumber": "0x9a77d8",
          "blockTimestamp": "0x697693b0",
          "transactionHash": "0x87ffc7d6fa6fe8f771be45573d16f967fdf498796600e379cfdce8f93b3a563a",
          "transactionIndex": "0x3a",
          "logIndex": "0x70",
          "removed": false
        }
      ],
      "logsBloom": "0x00000000000000000000000000000000000000000000000000000000000000000000000000000000000000000000000000000000000000000000000000200000000000000000000000000000000000000000000000000000000100000000000000000000000000000000000000000000000000000000000000000000000000000000000000004000000000000200000000000000000000000020000000000008020000000000000006000000000000000000000000000040000000000000002400000000000000000000000040000000000000000000000000000000000000000090000000000000000000000000000000000000000000000000000000000000",
      "type": "0x2",
      "transactionHash": "0x87ffc7d6fa6fe8f771be45573d16f967fdf498796600e379cfdce8f93b3a563a",
      "transactionIndex": "0x3a",
      "blockHash": "0x48d487ce74bf03bf27cf8c8da730a2815252438b09874bfd7294d79ec70fba88",
      "blockNumber": "0x9a77d8",
      "gasUsed": "0x7d0c",
      "effectiveGasPrice": "0x3795883b",
      "from": "0x8a200122f666af83af2d4f425ac7a35fa5491ca7",
      "to": "0x41655ae49482de69eec8f6875c34a8ada01965e2",
      "contractAddress": null
    },
    {
      "status": "0x1",
      "cumulativeGasUsed": "0x3daa5e",
      "logs": [
        {
          "address": "0x1107eb26d47a5bf88e9a9f97cbc7ea38c3e1d7ec",
          "topics": [
            "0x01d722b1eb1f8d0a1331c6b9d4df6f88a8169986a749e715c3b7cdf79c354d28",
            "0x0000000000000000000000000000000000000000000000000000000000000015",
            "0x00000000000000000000000041655ae49482de69eec8f6875c34a8ada01965e2",
            "0x0000000000000000000000000000000000000000000000000000000000000216"
          ],
          "data": "0x0000000000000000000000000000000000000000000000000000000000000000000000000000000000000000000000000000000000000000000110d9316ec000000000000000000000000000000000000000000000000000000000000000000000000000000000000000000000000000000000000000000000000000000003e80000000000000000000000008a200122f666af83af2d4f425ac7a35fa5491ca700000000000000000000000000000000000000000000000000000000000000000000000000000000000000000000000000000000000000000000000000000000000000000000000000000000000000000000000000000000000000000000000000000000000000000000000000000000000000000000000000000000000000000000000000000000000000000000000000000000000000000000000000000000",
          "blockHash": "0x4fbebf52e690a5260793aaf1d5633a69fcf249e3500751e525629d71fb4f3e92",
          "blockNumber": "0x9a77d9",
          "blockTimestamp": "0x697693bc",
          "transactionHash": "0x138923b80373cd684f4c3e9b4940f109358704c669be49ea891bd63e70fd6043",
          "transactionIndex": "0x1f",
          "logIndex": "0x35",
          "removed": false
        }
      ],
      "logsBloom": "0x00000000000000000000000000000000000000000000000000000000000000000000000000000000000000000000000400000000000000000000000002000000001000000000000000000000000000000001800000000000000000000000000000000000000000000000000000000000004000000004000000000000000000000000000000000000000000000000000000000000000000000000000000000000000000000000000000000000012000000000000000000000000000000000000400000000000000000000000040000000000000000000000000000000000000002080000000004000000000000000000000000000000000000000000000000020",
      "type": "0x2",
      "transactionHash": "0x138923b80373cd684f4c3e9b4940f109358704c669be49ea891bd63e70fd6043",
      "transactionIndex": "0x1f",
      "blockHash": "0x4fbebf52e690a5260793aaf1d5633a69fcf249e3500751e525629d71fb4f3e92",
      "blockNumber": "0x9a77d9",
      "gasUsed": "0x3181a",
      "effectiveGasPrice": "0x3e828f43",
      "from": "0x8a200122f666af83af2d4f425ac7a35fa5491ca7",
      "to": "0x1107eb26d47a5bf88e9a9f97cbc7ea38c3e1d7ec",
      "contractAddress": null
    },
    {
      "status": "0x1",
      "cumulativeGasUsed": "0x371f4c4",
      "logs": [
        {
          "address": "0x1107eb26d47a5bf88e9a9f97cbc7ea38c3e1d7ec",
          "topics": [
            "0x28592305c18226b9e6079b5f45adc09026856cd3ac5a2bca38b0384db299ed64",
            "0x0000000000000000000000000000000000000000000000000000000000000015",
            "0x00000000000000000000000041655ae49482de69eec8f6875c34a8ada01965e2",
            "0x0000000000000000000000000000000000000000000000000000000000000216"
          ],
          "data": "0x0000000000000000000000008a200122f666af83af2d4f425ac7a35fa5491ca70000000000000000000000008a200122f666af83af2d4f425ac7a35fa5491ca7",
          "blockHash": "0x4a5f46d6790c8f76dbcdc254682d092d0a1074ea010a2bb592708e32c5500859",
          "blockNumber": "0x9a77da",
          "blockTimestamp": "0x697693c8",
          "transactionHash": "0x172089727d8159392b0b01b9af871e4a1d26908b674a8101a9735b6a30653a7c",
          "transactionIndex": "0x3f",
          "logIndex": "0x88",
          "removed": false
        }
      ],
      "logsBloom": "0x00000000000000000000040000000100000000000000000000000000000000000000000000000000000000000000000400000000000000000000000002000000001000000000000000000000000000000000000000000000000000000000000000000000000000000000000000000000004000000004000000000000000000000000000000000000000000000000000000000000000000000000000000000000000000000000000000040000010000000000000000000000000000000000000400000000000000000000000040000000000000000000000000000000000000002080000000004000000000000000000000000000000000000000000000000020",
      "type": "0x2",
      "transactionHash": "0x172089727d8159392b0b01b9af871e4a1d26908b674a8101a9735b6a30653a7c",
      "transactionIndex": "0x3f",
      "blockHash": "0x4a5f46d6790c8f76dbcdc254682d092d0a1074ea010a2bb592708e32c5500859",
      "blockNumber": "0x9a77da",
      "gasUsed": "0xe5dc",
      "effectiveGasPrice": "0x3afc0f1f",
      "from": "0x8a200122f666af83af2d4f425ac7a35fa5491ca7",
      "to": "0x1107eb26d47a5bf88e9a9f97cbc7ea38c3e1d7ec",
      "contractAddress": null
    }
  ],
  "libraries": [],
  "pending": [],
  "returns": {},
  "timestamp": 1769378766,
  "chain": 11155111,
  "commit": "7e51afc"
}