{
  "transactions": [
    {
      "hash": "0x509ca4edf3deedd6e035c1923dc95ac09a1feb3b8a428a28cb7e0a813801c1de",
      "transactionType": "CALL",
      "contractName": null,
      "contractAddress": "0x41655ae49482de69eec8f6875c34a8ada01965e2",
      "function": "approve(address,uint256)",
      "arguments": [
        "0x8cE90712463c87a6d62941D67C3507D090Ea9d79",
        "16"
      ],
      "transaction": {
        "from": "0xe8df60a93b2b328397a8cbf73f0d732aaa11e33d",
        "to": "0x41655ae49482de69eec8f6875c34a8ada01965e2",
        "gas": "0x108ea",
        "value": "0x0",
        "input": "0x095ea7b30000000000000000000000008ce90712463c87a6d62941d67c3507d090ea9d790000000000000000000000000000000000000000000000000000000000000010",
        "nonce": "0x367",
        "chainId": "0xaa36a7"
      },
      "additionalContracts": [],
      "isFixedGasLimit": false
    },
    {
      "hash": "0x62b78bae409ba21010b53a5c46eb233034fff0c4da56c8fd9736e0802800882e",
      "transactionType": "CALL",
      "contractName": null,
      "contractAddress": "0x8ce90712463c87a6d62941d67c3507d090ea9d79",
      "function": "createListing(address,uint256,address,uint256,address,uint256,uint256,uint256,bool,bool,address[])",
      "arguments": [
        "0x41655AE49482de69eEC8F6875c34A8Ada01965e2",
        "16",
        "0x0000000000000000000000000000000000000000",
        "200000000000000",
        "0x0000000000000000000000000000000000000000",
        "0",
        "0",
        "0",
        "false",
        "false",
        "[]"
      ],
      "transaction": {
        "from": "0xe8df60a93b2b328397a8cbf73f0d732aaa11e33d",
        "to": "0x8ce90712463c87a6d62941d67c3507d090ea9d79",
        "gas": "0x4dd47",
        "value": "0x0",
        "input": "0xcf4dffa100000000000000000000000041655ae49482de69eec8f6875c34a8ada01965e2000000000000000000000000000000000000000000000000000000000000001000000000000000000000000000000000000000000000000000000000000000000000000000000000000000000000000000000000000000000000b5e620f4800000000000000000000000000000000000000000000000000000000000000000000000000000000000000000000000000000000000000000000000000000000000000000000000000000000000000000000000000000000000000000000000000000000000000000000000000000000000000000000000000000000000000000000000000000000000000000000000000000000000000000000000000000000000000000000000000000000000000000000000000000000000000000000000000000000000000000000000000000000000000000000000000000000000000001600000000000000000000000000000000000000000000000000000000000000000",
        "nonce": "0x368",
        "chainId": "0xaa36a7"
      },
      "additionalContracts": [],
      "isFixedGasLimit": false
    },
    {
      "hash": "0x846c3db3b88fed9cb43d72e41e7ad87afc04b338f8d8faac842f3b72e1751fdf",
      "transactionType": "CALL",
      "contractName": null,
      "contractAddress": "0x8ce90712463c87a6d62941d67c3507d090ea9d79",
      "function": "purchaseListing(uint128,uint256,uint256,address,uint256,uint256,uint256,address)",
      "arguments": [
        "21",
        "200000000000000",
        "0",
        "0x0000000000000000000000000000000000000000",
        "0",
        "0",
        "0",
        "0x0000000000000000000000000000000000000000"
      ],
      "transaction": {
        "from": "0x8a200122f666af83af2d4f425ac7a35fa5491ca7",
        "to": "0x8ce90712463c87a6d62941d67c3507d090ea9d79",
        "gas": "0x30f12",
        "value": "0xb5e620f48000",
        "input": "0xb4562cc700000000000000000000000000000000000000000000000000000000000000150000000000000000000000000000000000000000000000000000b5e620f48000000000000000000000000000000000000000000000000000000000000000000000000000000000000000000000000000000000000000000000000000000000000000000000000000000000000000000000000000000000000000000000000000000000000000000000000000000000000000000000000000000000000000000000000000000000000000000000000000000000000000000000000000000000000000000000000000000000000000000000000000000000000000000000000000",
        "nonce": "0x100",
        "chainId": "0xaa36a7"
      },
      "additionalContracts": [],
      "isFixedGasLimit": false
    },
    {
      "hash": "0xe780242893532063773555a9b1617febbc22941e0ef0237f363f0b2df309ae27",
      "transactionType": "CALL",
      "contractName": null,
      "contractAddress": "0x41655ae49482de69eec8f6875c34a8ada01965e2",
      "function": "safeTransferFrom(address,address,uint256)",
      "arguments": [
        "0x8a200122f666af83aF2D4f425aC7A35fa5491ca7",
        "0xE8dF60a93b2B328397a8CBf73f0d732aaa11e33D",
        "16"
      ],
      "transaction": {
        "from": "0x8a200122f666af83af2d4f425ac7a35fa5491ca7",
        "to": "0x41655ae49482de69eec8f6875c34a8ada01965e2",
        "gas": "0x1f445",
        "value": "0x0",
        "input": "0x42842e0e0000000000000000000000008a200122f666af83af2d4f425ac7a35fa5491ca7000000000000000000000000e8df60a93b2b328397a8cbf73f0d732aaa11e33d0000000000000000000000000000000000000000000000000000000000000010",
        "nonce": "0x101",
        "chainId": "0xaa36a7"
      },
      "additionalContracts": [],
      "isFixedGasLimit": false
    },
    {
      "hash": "0x4cbc60cdd158736e6111078efc614115ac257699a8a18d17ab97fd2add0de46f",
      "transactionType": "CALL",
      "contractName": null,
      "contractAddress": "0x8ce90712463c87a6d62941d67c3507d090ea9d79",
      "function": "createListing(address,uint256,address,uint256,address,uint256,uint256,uint256,bool,bool,address[])",
      "arguments": [
        "0x41655AE49482de69eEC8F6875c34A8Ada01965e2",
        "534",
        "0x0000000000000000000000000000000000000000",
        "300000000000000",
        "0x0000000000000000000000000000000000000000",
        "0",
        "0",
        "0",
        "false",
        "false",
        "[]"
      ],
      "transaction": {
        "from": "0x8a200122f666af83af2d4f425ac7a35fa5491ca7",
        "to": "0x8ce90712463c87a6d62941d67c3507d090ea9d79",
        "gas": "0x4dd6a",
        "value": "0x0",
        "input": "0xcf4dffa100000000000000000000000041655ae49482de69eec8f6875c34a8ada01965e200000000000000000000000000000000000000000000000000000000000002160000000000000000000000000000000000000000000000000000000000000000000000000000000000000000000000000000000000000000000110d9316ec00000000000000000000000000000000000000000000000000000000000000000000000000000000000000000000000000000000000000000000000000000000000000000000000000000000000000000000000000000000000000000000000000000000000000000000000000000000000000000000000000000000000000000000000000000000000000000000000000000000000000000000000000000000000000000000000000000000000000000000000000000000000000000000000000000000000000000000000000000000000000000000000000000000000000001600000000000000000000000000000000000000000000000000000000000000000",
        "nonce": "0x102",
        "chainId": "0xaa36a7"
      },
      "additionalContracts": [],
      "isFixedGasLimit": false
    },
    {
      "hash": "0x4884e648ec7902aba61e609dab7e9a14c81a2c7bd032b3f133d0bcea0ccf5704",
      "transactionType": "CALL",
      "contractName": null,
      "contractAddress": "0x8ce90712463c87a6d62941d67c3507d090ea9d79",
      "function": "cancelListing(uint128)",
      "arguments": [
        "22"
      ],
      "transaction": {
        "from": "0x8a200122f666af83af2d4f425ac7a35fa5491ca7",
        "to": "0x8ce90712463c87a6d62941d67c3507d090ea9d79",
        "gas": "0x1516e",
        "value": "0x0",
        "input": "0x8e3d2fb20000000000000000000000000000000000000000000000000000000000000016",
        "nonce": "0x103",
        "chainId": "0xaa36a7"
      },
      "additionalContracts": [],
      "isFixedGasLimit": false
    }
  ],
  "receipts": [
    {
      "status": "0x1",
      "cumulativeGasUsed": "0xb1270e",
      "logs": [
        {
          "address": "0x41655ae49482de69eec8f6875c34a8ada01965e2",
          "topics": [
            "0x8c5be1e5ebec7d5bd14f71427d1e84f3dd0314c0f7b2291e5b200ac8c7c3b925",
            "0x000000000000000000000000e8df60a93b2b328397a8cbf73f0d732aaa11e33d",
            "0x0000000000000000000000008ce90712463c87a6d62941d67c3507d090ea9d79",
            "0x0000000000000000000000000000000000000000000000000000000000000010"
          ],
          "data": "0x",
          "blockHash": "0x9329132f4408a74b911eb6719bd9a55c6a5f058f61abbc55b9d2189a2a831f3e",
          "blockNumber": "0x905d11",
          "blockTimestamp": "0x68f7e190",
          "transactionHash": "0x509ca4edf3deedd6e035c1923dc95ac09a1feb3b8a428a28cb7e0a813801c1de",
          "transactionIndex": "0x56",
          "logIndex": "0x89",
          "removed": false
        }
      ],
      "logsBloom": "0x000000001000000080000000000000000000000000000010000000000000000000000000000000000000004000000000000000000000000000000000002000000000000000000000000000000000000000000000000000000000000000000000000000000000000000000000000000000000000000000000000000000400000000000000000040000000000000000000000001000000000000000000000000000200a0000000000002000000000000000000000000000040000000000000000000000000000000000000000000000000000000000000000000000000000000000010000000000000100000000000000000000000000000000000000000000000",
      "type": "0x2",
      "transactionHash": "0x509ca4edf3deedd6e035c1923dc95ac09a1feb3b8a428a28cb7e0a813801c1de",
      "transactionIndex": "0x56",
      "blockHash": "0x9329132f4408a74b911eb6719bd9a55c6a5f058f61abbc55b9d2189a2a831f3e",
      "blockNumber": "0x905d11",
      "gasUsed": "0xbfcc",
      "effectiveGasPrice": "0xf424c",
      "from": "0xe8df60a93b2b328397a8cbf73f0d732aaa11e33d",
      "to": "0x41655ae49482de69eec8f6875c34a8ada01965e2",
      "contractAddress": null
    },
    {
      "status": "0x1",
      "cumulativeGasUsed": "0x657d1c",
      "logs": [
        {
          "address": "0x8ce90712463c87a6d62941d67c3507d090ea9d79",
          "topics": [
            "0xf0ebe84ab70abb64a93861570163972d8d4182d154513433b5adf6441cb997d0",
            "0x0000000000000000000000000000000000000000000000000000000000000015",
            "0x00000000000000000000000041655ae49482de69eec8f6875c34a8ada01965e2",
            "0x0000000000000000000000000000000000000000000000000000000000000010"
          ],
          "data": "0x00000000000000000000000000000000000000000000000000000000000000000000000000000000000000000000000000000000000000000000b5e620f4800000000000000000000000000000000000000000000000000000000000000003e8000000000000000000000000e8df60a93b2b328397a8cbf73f0d732aaa11e33d00000000000000000000000000000000000000000000000000000000000000000000000000000000000000000000000000000000000000000000000000000000000000000000000000000000000000000000000000000000000000000000000000000000000000000000000000000000000000000000000000000000000000000000000000000000000000000000000000000000000000000000000000000000",
          "blockHash": "0x98ce3b4f2ae5d5ae6dd051c22538133d16ab96ae1ec21db06a7dc1cdc3d5fda9",
          "blockNumber": "0x905d12",
          "blockTimestamp": "0x68f7e19c",
          "transactionHash": "0x62b78bae409ba21010b53a5c46eb233034fff0c4da56c8fd9736e0802800882e",
          "transactionIndex": "0x5f",
          "logIndex": "0x54",
          "removed": false
        }
      ],
      "logsBloom": "0x00000000100000000000000000000000000000000000000000000000000000000000000000000000000000000000000000080000000000000000000000000002001000000000000000000000000000000000000000000000000000000000000000000000000000000000000000000000004000000004000000000000040000000000000000000000000000000000000000000100000000000000000000000000000000000000000000040000010000000000000000000000000000000000000000000000010000000000000000000000000000000000000000000000000800002000000000004001000000000000000000000000000000000000000000000000",
      "type": "0x2",
      "transactionHash": "0x62b78bae409ba21010b53a5c46eb233034fff0c4da56c8fd9736e0802800882e",
      "transactionIndex": "0x5f",
      "blockHash": "0x98ce3b4f2ae5d5ae6dd051c22538133d16ab96ae1ec21db06a7dc1cdc3d5fda9",
      "blockNumber": "0x905d12",
      "gasUsed": "0x35379",
      "effectiveGasPrice": "0xf424c",
      "from": "0xe8df60a93b2b328397a8cbf73f0d732aaa11e33d",
      "to": "0x8ce90712463c87a6d62941d67c3507d090ea9d79",
      "contractAddress": null
    },
    {
      "status": "0x1",
      "cumulativeGasUsed": "0x871a06",
      "logs": [
        {
          "address": "0x41655ae49482de69eec8f6875c34a8ada01965e2",
          "topics": [
            "0xddf252ad1be2c89b69c2b068fc378daa952ba7f163c4a11628f55a4df523b3ef",
            "0x000000000000000000000000e8df60a93b2b328397a8cbf73f0d732aaa11e33d",
            "0x0000000000000000000000008a200122f666af83af2d4f425ac7a35fa5491ca7",
            "0x0000000000000000000000000000000000000000000000000000000000000010"
          ],
          "data": "0x",
          "blockHash": "0x6e117d26a95fef606d0d89d060f0ad75e48e3322cdb92b520822bf8c674f5464",
          "blockNumber": "0x905d13",
          "blockTimestamp": "0x68f7e1a8",
          "transactionHash": "0x846c3db3b88fed9cb43d72e41e7ad87afc04b338f8d8faac842f3b72e1751fdf",
          "transactionIndex": "0x61",
          "logIndex": "0x85",
          "removed": false
        },
        {
          "address": "0x8ce90712463c87a6d62941d67c3507d090ea9d79",
          "topics": [
            "0xf29ea8cf6560754479a8e1315af36da0b36abd368847025746c28e718b7d11ca",
            "0x0000000000000000000000000000000000000000000000000000000000000015",
            "0x00000000000000000000000041655ae49482de69eec8f6875c34a8ada01965e2",
            "0x0000000000000000000000000000000000000000000000000000000000000010"
          ],
          "data": "0x000000000000000000000000000000000000000000000000000000000000000000000000000000000000000000000000000000000000000000000000000000000000000000000000000000000000000000000000000000000000b5e620f4800000000000000000000000000000000000000000000000000000000000000003e8000000000000000000000000e8df60a93b2b328397a8cbf73f0d732aaa11e33d0000000000000000000000008a200122f666af83af2d4f425ac7a35fa5491ca7000000000000000000000000000000000000000000000000000000000000000000000000000000000000000000000000000000000000000000000000000000000000000000000000000000000000000000000000000000000000000000000000",
          "blockHash": "0x6e117d26a95fef606d0d89d060f0ad75e48e3322cdb92b520822bf8c674f5464",
          "blockNumber": "0x905d13",
          "blockTimestamp": "0x68f7e1a8",
          "transactionHash": "0x846c3db3b88fed9cb43d72e41e7ad87afc04b338f8d8faac842f3b72e1751fdf",
          "transactionIndex": "0x61",
          "logIndex": "0x86",
          "removed": false
        }
      ],
      "logsBloom": "0x00000000100000000000000000000000000000000000000000000000000000000000000000000000000000400000000000088000000000000000000000000002001000000000000000000008000000000000000000000000000100000000000000000000020000000000000000000000004000800004000000000010040000000000000000004000000000000000000000000100000000000020000000000008000020000000000002000000010000000000000000000040000000000000000000000002010000000000000000000000000000000000000000000000000000002000000000004000100000000000000000000000000000000000000000000000",
      "type": "0x2",
      "transactionHash": "0x846c3db3b88fed9cb43d72e41e7ad87afc04b338f8d8faac842f3b72e1751fdf",
      "transactionIndex": "0x61",
      "blockHash": "0x6e117d26a95fef606d0d89d060f0ad75e48e3322cdb92b520822bf8c674f5464",
      "blockNumber": "0x905d13",
      "gasUsed": "0x236ef",
      "effectiveGasPrice": "0xf424b",
      "from": "0x8a200122f666af83af2d4f425ac7a35fa5491ca7",
      "to": "0x8ce90712463c87a6d62941d67c3507d090ea9d79",
      "contractAddress": null
    },
    {
      "status": "0x1",
      "cumulativeGasUsed": "0x957bca",
      "logs": [
        {
          "address": "0x41655ae49482de69eec8f6875c34a8ada01965e2",
          "topics": [
            "0xddf252ad1be2c89b69c2b068fc378daa952ba7f163c4a11628f55a4df523b3ef",
            "0x0000000000000000000000008a200122f666af83af2d4f425ac7a35fa5491ca7",
            "0x000000000000000000000000e8df60a93b2b328397a8cbf73f0d732aaa11e33d",
            "0x0000000000000000000000000000000000000000000000000000000000000010"
          ],
          "data": "0x",
          "blockHash": "0x2fdc9007f8ce15e73df3592f87c3add5e04a2e9dafda1a80155336cceb728e87",
          "blockNumber": "0x905d14",
          "blockTimestamp": "0x68f7e1b4",
          "transactionHash": "0xe780242893532063773555a9b1617febbc22941e0ef0237f363f0b2df309ae27",
          "transactionIndex": "0x44",
          "logIndex": "0x5f",
          "removed": false
        }
      ],
      "logsBloom": "0x00000000100000000000000000000000000000000000000000000000000000000000000000000000000000400000000000000000000000000000000000000000000000000000000000000008000000000000000000000000000100000000000000000000000000000000000000000000000000000000000000000010040000000000000000004000000000000000000000000100000000000020000000000008000020000000000002000000000000000000000000000040000000000000000000000002000000000000000000000000000000000000000000000000000000000000000000000000100000000000000000000000000000000000000000000000",
      "type": "0x2",
      "transactionHash": "0xe780242893532063773555a9b1617febbc22941e0ef0237f363f0b2df309ae27",
      "transactionIndex": "0x44",
      "blockHash": "0x2fdc9007f8ce15e73df3592f87c3add5e04a2e9dafda1a80155336cceb728e87",
      "blockNumber": "0x905d14",
      "gasUsed": "0x15611",
      "effectiveGasPrice": "0xf424b",
      "from": "0x8a200122f666af83af2d4f425ac7a35fa5491ca7",
      "to": "0x41655ae49482de69eec8f6875c34a8ada01965e2",
      "contractAddress": null
    },
    {
      "status": "0x1",
      "cumulativeGasUsed": "0x389cda",
      "logs": [
        {
          "address": "0x8ce90712463c87a6d62941d67c3507d090ea9d79",
          "topics": [
            "0xf0ebe84ab70abb64a93861570163972d8d4182d154513433b5adf6441cb997d0",
            "0x0000000000000000000000000000000000000000000000000000000000000016",
            "0x00000000000000000000000041655ae49482de69eec8f6875c34a8ada01965e2",
            "0x0000000000000000000000000000000000000000000000000000000000000216"
          ],
          "data": "0x0000000000000000000000000000000000000000000000000000000000000000000000000000000000000000000000000000000000000000000110d9316ec00000000000000000000000000000000000000000000000000000000000000003e80000000000000000000000008a200122f666af83af2d4f425ac7a35fa5491ca700000000000000000000000000000000000000000000000000000000000000000000000000000000000000000000000000000000000000000000000000000000000000000000000000000000000000000000000000000000000000000000000000000000000000000000000000000000000000000000000000000000000000000000000000000000000000000000000000000000000000000000000000000000",
          "blockHash": "0x50bcb2b508c98a9077f11966ac638010452c2936af9e98e4708545e5e23c0b1b",
          "blockNumber": "0x905d15",
          "blockTimestamp": "0x68f7e1c0",
          "transactionHash": "0x4cbc60cdd158736e6111078efc614115ac257699a8a18d17ab97fd2add0de46f",
          "transactionIndex": "0x2f",
          "logIndex": "0x44",
          "removed": false
        }
      ],
      "logsBloom": "0x00000000000000000000000000000000000000000000000000000000000000000000000000000000000000000000000000080000000000000000000000000002000000000000000800000000000000000000000000000000000000000000000000000000000000000000000000000000204000000004000000000000000000000000000000000000000000000000000000000000000000000000000000000000000000000000000000040000000000000000000000000000000000000000000400000000010000000000000040000000000000000000000000000000000800000080000000004001000000000000000000000000000000000008000000000000",
      "type": "0x2",
      "transactionHash": "0x4cbc60cdd158736e6111078efc614115ac257699a8a18d17ab97fd2add0de46f",
      "transactionIndex": "0x2f",
      "blockHash": "0x50bcb2b508c98a9077f11966ac638010452c2936af9e98e4708545e5e23c0b1b",
      "blockNumber": "0x905d15",
      "gasUsed": "0x35391",
      "effectiveGasPrice": "0xf424b",
      "from": "0x8a200122f666af83af2d4f425ac7a35fa5491ca7",
      "to": "0x8ce90712463c87a6d62941d67c3507d090ea9d79",
      "contractAddress": null
    },
    {
      "status": "0x1",
      "cumulativeGasUsed": "0x77a20f",
      "logs": [
        {
          "address": "0x8ce90712463c87a6d62941d67c3507d090ea9d79",
          "topics": [
            "0x28592305c18226b9e6079b5f45adc09026856cd3ac5a2bca38b0384db299ed64",
            "0x0000000000000000000000000000000000000000000000000000000000000016",
            "0x00000000000000000000000041655ae49482de69eec8f6875c34a8ada01965e2",
            "0x0000000000000000000000000000000000000000000000000000000000000216"
          ],
          "data": "0x0000000000000000000000008a200122f666af83af2d4f425ac7a35fa5491ca70000000000000000000000008a200122f666af83af2d4f425ac7a35fa5491ca7",
          "blockHash": "0x56aade969659a4aa0431daf60b5da21c35813d5dc3d8923d8136e36d428865eb",
          "blockNumber": "0x905d16",
          "blockTimestamp": "0x68f7e1cc",
          "transactionHash": "0x4884e648ec7902aba61e609dab7e9a14c81a2c7bd032b3f133d0bcea0ccf5704",
          "transactionIndex": "0x5e",
          "logIndex": "0x59",
          "removed": false
        }
      ],
      "logsBloom": "0x00000000000000000000040000000100000000000000000000000000000000000000000000000000000000000000000000080000000000000000000000000002000000000000000800000000000000000000000000000000000000000000000000000000000000000000000000000000204000000004000000000000000000000000000000000000000000000000000000000000000000000000000000000000000000000000000000040000000000000000000000000000000000000000000400000000010000000000000040000000000000000000000000000000000000000080000000004000000000000000000000000000000000000008000000000000",
      "type": "0x2",
      "transactionHash": "0x4884e648ec7902aba61e609dab7e9a14c81a2c7bd032b3f133d0bcea0ccf5704",
      "transactionIndex": "0x5e",
      "blockHash": "0x56aade969659a4aa0431daf60b5da21c35813d5dc3d8923d8136e36d428865eb",
      "blockNumber": "0x905d16",
      "gasUsed": "0xf44c",
      "effectiveGasPrice": "0xf424a",
      "from": "0x8a200122f666af83af2d4f425ac7a35fa5491ca7",
      "to": "0x8ce90712463c87a6d62941d67c3507d090ea9d79",
      "contractAddress": null
    }
  ],
  "libraries": [],
  "pending": [],
  "returns": {},
  "timestamp": 1761075661,
  "chain": 11155111,
  "commit": "05f41b9"
}