{
  "transactions": [
    {
      "hash": "0x0879f7c0c1cf147069f12004f0f596f657d9e514d2f061565adaf13a9c866426",
      "transactionType": "CALL",
      "contractName": null,
      "contractAddress": "0x41655ae49482de69eec8f6875c34a8ada01965e2",
      "function": "approve(address,uint256)",
      "arguments": [
        "0x1107Eb26D47A5bF88E9a9F97cbC7EA38c3E1D7EC",
        "16"
      ],
      "transaction": {
        "from": "0xe8df60a93b2b328397a8cbf73f0d732aaa11e33d",
        "to": "0x41655ae49482de69eec8f6875c34a8ada01965e2",
        "gas": "0x108ea",
        "value": "0x0",
        "input": "0x095ea7b30000000000000000000000001107eb26d47a5bf88e9a9f97cbc7ea38c3e1d7ec0000000000000000000000000000000000000000000000000000000000000010",
        "nonce": "0x395",
        "chainId": "0xaa36a7"
      },
      "additionalContracts": [],
      "isFixedGasLimit": false
    },
    {
      "hash": "0x9f8554a1a40bca5878328f14bbbbb04c56544b667998aacb5509d27f4719abf0",
      "transactionType": "CALL",
      "contractName": null,
      "contractAddress": "0x1107eb26d47a5bf88e9a9f97cbc7ea38c3e1d7ec",
      "function": "createListing(address,uint256,address,uint256,address,address,uint256,uint256,uint256,bool,bool,address[])",
      "arguments": [
        "0x41655AE49482de69eEC8F6875c34A8Ada01965e2",
        "16",
        "0x0000000000000000000000000000000000000000",
        "200000000000000",
        "0x0000000000000000000000000000000000000000",
        "0x0000000000000000000000000000000000000000",
        "0",
        "0",
        "0",
        "false",
        "false",
        "[]"
      ],
      "transaction": {
        "from": "0xe8df60a93b2b328397a8cbf73f0d732aaa11e33d",
        "to": "0x1107eb26d47a5bf88e9a9f97cbc7ea38c3e1d7ec",
        "gas": "0x4864f",
        "value": "0x0",
        "input": "0x34ab8a4400000000000000000000000041655ae49482de69eec8f6875c34a8ada01965e2000000000000000000000000000000000000000000000000000000000000001000000000000000000000000000000000000000000000000000000000000000000000000000000000000000000000000000000000000000000000b5e620f48000000000000000000000000000000000000000000000000000000000000000000000000000000000000000000000000000000000000000000000000000000000000000000000000000000000000000000000000000000000000000000000000000000000000000000000000000000000000000000000000000000000000000000000000000000000000000000000000000000000000000000000000000000000000000000000000000000000000000000000000000000000000000000000000000000000000000000000000000000000000000000000000000000000000000000000000000000000000000000000000000000000000000000000000000000001800000000000000000000000000000000000000000000000000000000000000000",
        "nonce": "0x396",
        "chainId": "0xaa36a7"
      },
      "additionalContracts": [],
      "isFixedGasLimit": false
    },
    {
      "hash": "0x2e5f3c3db94cf2b222dfc0efda258b101e6307ca7040780af84430a62ece1598",
      "transactionType": "CALL",
      "contractName": null,
      "contractAddress": "0x1107eb26d47a5bf88e9a9f97cbc7ea38c3e1d7ec",
      "function": "purchaseListing(uint128,uint256,address,uint256,address,uint256,uint256,uint256,address)",
      "arguments": [
        "22",
        "200000000000000",
        "0x0000000000000000000000000000000000000000",
        "0",
        "0x0000000000000000000000000000000000000000",
        "0",
        "0",
        "0",
        "0x0000000000000000000000000000000000000000"
      ],
      "transaction": {
        "from": "0x8a200122f666af83af2d4f425ac7a35fa5491ca7",
        "to": "0x1107eb26d47a5bf88e9a9f97cbc7ea38c3e1d7ec",
        "gas": "0x379e6",
        "value": "0xb5e620f48000",
        "input": "0xc333bac700000000000000000000000000000000000000000000000000000000000000160000000000000000000000000000000000000000000000000000b5e620f480000000000000000000000000000000000000000000000000000000000000000000000000000000000000000000000000000000000000000000000000000000000000000000000000000000000000000000000000000000000000000000000000000000000000000000000000000000000000000000000000000000000000000000000000000000000000000000000000000000000000000000000000000000000000000000000000000000000000000000000000000000000000000000000000000000000000000000000000000000000000000000000000000000000000000000",
        "nonce": "0x10c",
        "chainId": "0xaa36a7"
      },
      "additionalContracts": [],
      "isFixedGasLimit": false
    },
    {
      "hash": "0x6b6f4eb37bfe03afdacee4de8d0c2e6d8f49ae3dc76cb36ad442c4dd5d975896",
      "transactionType": "CALL",
      "contractName": null,
      "contractAddress": "0x41655ae49482de69eec8f6875c34a8ada01965e2",
      "function": "safeTransferFrom(address,address,uint256)",
      "arguments": [
        "0x8a200122f666af83aF2D4f425aC7A35fa5491ca7",
        "0xE8dF60a93b2B328397a8CBf73f0d732aaa11e33D",
        "16"
      ],
      "transaction": {
        "from": "0x8a200122f666af83af2d4f425ac7a35fa5491ca7",
        "to": "0x41655ae49482de69eec8f6875c34a8ada01965e2",
        "gas": "0x1f445",
        "value": "0x0",
        "input": "0x42842e0e0000000000000000000000008a200122f666af83af2d4f425ac7a35fa5491ca7000000000000000000000000e8df60a93b2b328397a8cbf73f0d732aaa11e33d0000000000000000000000000000000000000000000000000000000000000010",
        "nonce": "0x10d",
        "chainId": "0xaa36a7"
      },
      "additionalContracts": [],
      "isFixedGasLimit": false
    },
    {
      "hash": "0xe3521a6cac857652543fbd033c2c79c120eae1e07c7491a80c7f6b0dab71ae1f",
      "transactionType": "CALL",
      "contractName": null,
      "contractAddress": "0x1107eb26d47a5bf88e9a9f97cbc7ea38c3e1d7ec",
      "function": "createListing(address,uint256,address,uint256,address,address,uint256,uint256,uint256,bool,bool,address[])",
      "arguments": [
        "0x41655AE49482de69eEC8F6875c34A8Ada01965e2",
        "534",
        "0x0000000000000000000000000000000000000000",
        "300000000000000",
        "0x0000000000000000000000000000000000000000",
        "0x0000000000000000000000000000000000000000",
        "0",
        "0",
        "0",
        "false",
        "false",
        "[]"
      ],
      "transaction": {
        "from": "0x8a200122f666af83af2d4f425ac7a35fa5491ca7",
        "to": "0x1107eb26d47a5bf88e9a9f97cbc7ea38c3e1d7ec",
        "gas": "0x48672",
        "value": "0x0",
        "input": "0x34ab8a4400000000000000000000000041655ae49482de69eec8f6875c34a8ada01965e200000000000000000000000000000000000000000000000000000000000002160000000000000000000000000000000000000000000000000000000000000000000000000000000000000000000000000000000000000000000110d9316ec000000000000000000000000000000000000000000000000000000000000000000000000000000000000000000000000000000000000000000000000000000000000000000000000000000000000000000000000000000000000000000000000000000000000000000000000000000000000000000000000000000000000000000000000000000000000000000000000000000000000000000000000000000000000000000000000000000000000000000000000000000000000000000000000000000000000000000000000000000000000000000000000000000000000000000000000000000000000000000000000000000000000000000000000000000001800000000000000000000000000000000000000000000000000000000000000000",
        "nonce": "0x10e",
        "chainId": "0xaa36a7"
      },
      "additionalContracts": [],
      "isFixedGasLimit": false
    },
    {
      "hash": "0x256e72d4fbb1d9669e07f0876ead94922a800efe9bcac3839644a3cdfe8f528d",
      "transactionType": "CALL",
      "contractName": null,
      "contractAddress": "0x1107eb26d47a5bf88e9a9f97cbc7ea38c3e1d7ec",
      "function": "cancelListing(uint128)",
      "arguments": [
        "23"
      ],
      "transaction": {
        "from": "0x8a200122f666af83af2d4f425ac7a35fa5491ca7",
        "to": "0x1107eb26d47a5bf88e9a9f97cbc7ea38c3e1d7ec",
        "gas": "0x13d7d",
        "value": "0x0",
        "input": "0x8e3d2fb20000000000000000000000000000000000000000000000000000000000000017",
        "nonce": "0x10f",
        "chainId": "0xaa36a7"
      },
      "additionalContracts": [],
      "isFixedGasLimit": false
    },
    {
      "hash": "0x3b89c1609c94f97eaadef97d6a770ecc1efd59d751ec59329a33c46d7cc580aa",
      "transactionType": "CALL",
      "contractName": null,
      "contractAddress": "0x41655ae49482de69eec8f6875c34a8ada01965e2",
      "function": "approve(address,uint256)",
      "arguments": [
        "0x1107Eb26D47A5bF88E9a9F97cbC7EA38c3E1D7EC",
        "16"
      ],
      "transaction": {
        "from": "0xe8df60a93b2b328397a8cbf73f0d732aaa11e33d",
        "to": "0x41655ae49482de69eec8f6875c34a8ada01965e2",
        "gas": "0x108ea",
        "value": "0x0",
        "input": "0x095ea7b30000000000000000000000001107eb26d47a5bf88e9a9f97cbc7ea38c3e1d7ec0000000000000000000000000000000000000000000000000000000000000010",
        "nonce": "0x397",
        "chainId": "0xaa36a7"
      },
      "additionalContracts": [],
      "isFixedGasLimit": false
    },
    {
      "hash": "0x9a9825449bd050f01ce212390c27962ff4e119caa2237cc1b7d3f016ed29a1f6",
      "transactionType": "CALL",
      "contractName": null,
      "contractAddress": "0x1107eb26d47a5bf88e9a9f97cbc7ea38c3e1d7ec",
      "function": "createListing(address,uint256,address,uint256,address,address,uint256,uint256,uint256,bool,bool,address[])",
      "arguments": [
        "0x41655AE49482de69eEC8F6875c34A8Ada01965e2",
        "16",
        "0x0000000000000000000000000000000000000000",
        "200000000000000",
        "0x0000000000000000000000000000000000000000",
        "0x0000000000000000000000000000000000000000",
        "0",
        "0",
        "0",
        "true",
        "false",
        "[0x8a200122f666af83aF2D4f425aC7A35fa5491ca7]"
      ],
      "transaction": {
        "from": "0xe8df60a93b2b328397a8cbf73f0d732aaa11e33d",
        "to": "0x1107eb26d47a5bf88e9a9f97cbc7ea38c3e1d7ec",
        "gas": "0x50170",
        "value": "0x0",
        "input": "0x34ab8a4400000000000000000000000041655ae49482de69eec8f6875c34a8ada01965e2000000000000000000000000000000000000000000000000000000000000001000000000000000000000000000000000000000000000000000000000000000000000000000000000000000000000000000000000000000000000b5e620f480000000000000000000000000000000000000000000000000000000000000000000000000000000000000000000000000000000000000000000000000000000000000000000000000000000000000000000000000000000000000000000000000000000000000000000000000000000000000000000000000000000000000000000000000000000000000000000000000000000000000000000000000000000000000000000000000000000000000000000000000000000000000000000000000010000000000000000000000000000000000000000000000000000000000000000000000000000000000000000000000000000000000000000000000000000018000000000000000000000000000000000000000000000000000000000000000010000000000000000000000008a200122f666af83af2d4f425ac7a35fa5491ca7",
        "nonce": "0x398",
        "chainId": "0xaa36a7"
      },
      "additionalContracts": [],
      "isFixedGasLimit": false
    },
    {
      "hash": "0x2075f2728006cd6f7a9995af43ac8d82ca3d37a589aa9fae0ece63731783f4f2",
      "transactionType": "CALL",
      "contractName": null,
      "contractAddress": "0x1107eb26d47a5bf88e9a9f97cbc7ea38c3e1d7ec",
      "function": "purchaseListing(uint128,uint256,address,uint256,address,uint256,uint256,uint256,address)",
      "arguments": [
        "24",
        "200000000000000",
        "0x0000000000000000000000000000000000000000",
        "0",
        "0x0000000000000000000000000000000000000000",
        "0",
        "0",
        "0",
        "0x0000000000000000000000000000000000000000"
      ],
      "transaction": {
        "from": "0x8a200122f666af83af2d4f425ac7a35fa5491ca7",
        "to": "0x1107eb26d47a5bf88e9a9f97cbc7ea38c3e1d7ec",
        "gas": "0x35265",
        "value": "0xb5e620f48000",
        "input": "0xc333bac700000000000000000000000000000000000000000000000000000000000000180000000000000000000000000000000000000000000000000000b5e620f480000000000000000000000000000000000000000000000000000000000000000000000000000000000000000000000000000000000000000000000000000000000000000000000000000000000000000000000000000000000000000000000000000000000000000000000000000000000000000000000000000000000000000000000000000000000000000000000000000000000000000000000000000000000000000000000000000000000000000000000000000000000000000000000000000000000000000000000000000000000000000000000000000000000000000000",
        "nonce": "0x110",
        "chainId": "0xaa36a7"
      },
      "additionalContracts": [],
      "isFixedGasLimit": false
    },
    {
      "hash": "0xedc89bc4bbe39a466c0c51d010aae90ec90816145c527b5046f3fac49947d672",
      "transactionType": "CALL",
      "contractName": null,
      "contractAddress": "0x41655ae49482de69eec8f6875c34a8ada01965e2",
      "function": "safeTransferFrom(address,address,uint256)",
      "arguments": [
        "0x8a200122f666af83aF2D4f425aC7A35fa5491ca7",
        "0xE8dF60a93b2B328397a8CBf73f0d732aaa11e33D",
        "16"
      ],
      "transaction": {
        "from": "0x8a200122f666af83af2d4f425ac7a35fa5491ca7",
        "to": "0x41655ae49482de69eec8f6875c34a8ada01965e2",
        "gas": "0x1f445",
        "value": "0x0",
        "input": "0x42842e0e0000000000000000000000008a200122f666af83af2d4f425ac7a35fa5491ca7000000000000000000000000e8df60a93b2b328397a8cbf73f0d732aaa11e33d0000000000000000000000000000000000000000000000000000000000000010",
        "nonce": "0x111",
        "chainId": "0xaa36a7"
      },
      "additionalContracts": [],
      "isFixedGasLimit": false
    },
    {
      "hash": "0xe59db2b5e96ec7cc03823dbd18ea37c075b869b727d2e4397bc296ac770738ae",
      "transactionType": "CREATE",
      "contractName": "Mock1155",
      "contractAddress": "0x35ab1a05278ce651996d5c7d165cfd7d80c49601",
      "function": null,
      "arguments": null,
      "transaction": {
        "from": "0xe8df60a93b2b328397a8cbf73f0d732aaa11e33d",
        "gas": "0x6eaa5",
        "value": "0x0",
        "input": "0x60808060405234601557610564908161001b8239f35b600080fdfe608080604052600436101561001357600080fd5b60003560e01c908162fdd58e1461045c5750806301ffc9a7146103bb578063156e29f614610364578063a22cb465146102dc578063e985e9c5146102655763f242432a1461006057600080fd5b346102605760a0600319360112610260576100796104ac565b6100816104cf565b604435906064359260843567ffffffffffffffff8111610260573660238201121561026057806004013567ffffffffffffffff811161026057369101602401116102605773ffffffffffffffffffffffffffffffffffffffff16903382148015610226575b156101c8578160005260006020526040600020836000526020526040600020549184831061016a5773ffffffffffffffffffffffffffffffffffffffff92859160005260006020526040600020856000526020520360406000205516600052600060205260406000209060005260205261016660406000209182546104f2565b9055005b60646040517f08c379a000000000000000000000000000000000000000000000000000000000815260206004820152600c60248201527f696e73756666696369656e7400000000000000000000000000000000000000006044820152fd5b60646040517f08c379a000000000000000000000000000000000000000000000000000000000815260206004820152600c60248201527f6e6f742d617070726f76656400000000000000000000000000000000000000006044820152fd5b50816000526001602052604060002073ffffffffffffffffffffffffffffffffffffffff331660005260205260ff604060002054166100e6565b600080fd5b346102605760406003193601126102605761027e6104ac565b73ffffffffffffffffffffffffffffffffffffffff61029b6104cf565b9116600052600160205273ffffffffffffffffffffffffffffffffffffffff60406000209116600052602052602060ff604060002054166040519015158152f35b34610260576040600319360112610260576102f56104ac565b602435908115158092036102605733600052600160205273ffffffffffffffffffffffffffffffffffffffff6040600020911660005260205260406000209060ff7fffffffffffffffffffffffffffffffffffffffffffffffffffffffffffffff008354169116179055600080f35b346102605760606003193601126102605773ffffffffffffffffffffffffffffffffffffffff6103926104ac565b1660005260006020526040600020602435600052602052604060002061016660443582546104f2565b34610260576020600319360112610260576004357fffffffff00000000000000000000000000000000000000000000000000000000811680910361026057807f01ffc9a70000000000000000000000000000000000000000000000000000000060209214908115610432575b506040519015158152f35b7fd9b67a260000000000000000000000000000000000000000000000000000000091501482610427565b346102605760406003193601126102605760209073ffffffffffffffffffffffffffffffffffffffff61048d6104ac565b1660005260008252604060002060243560005282526040600020548152f35b6004359073ffffffffffffffffffffffffffffffffffffffff8216820361026057565b6024359073ffffffffffffffffffffffffffffffffffffffff8216820361026057565b919082018092116104ff57565b7f4e487b7100000000000000000000000000000000000000000000000000000000600052601160045260246000fdfea2646970667358221220fdabf54ab94a3d31ec77c5785bca8e31f9b4356cf61708c869db509e25a5c76564736f6c634300081c0033",
        "nonce": "0x399",
        "chainId": "0xaa36a7"
      },
      "additionalContracts": [],
      "isFixedGasLimit": false
    },
    {
      "hash": "0x4237b401fa52faaa75c6b465de2c8478f88b5e5c2210b5851dd78596041983fb",
      "transactionType": "CALL",
      "contractName": null,
      "contractAddress": "0x1107eb26d47a5bf88e9a9f97cbc7ea38c3e1d7ec",
      "function": "addWhitelistedCollection(address)",
      "arguments": [
        "0x35AB1A05278cE651996D5c7d165Cfd7d80C49601"
      ],
      "transaction": {
        "from": "0xe8df60a93b2b328397a8cbf73f0d732aaa11e33d",
        "to": "0x1107eb26d47a5bf88e9a9f97cbc7ea38c3e1d7ec",
        "gas": "0x226c2",
        "value": "0x0",
        "input": "0xd18e629c00000000000000000000000035ab1a05278ce651996d5c7d165cfd7d80c49601",
        "nonce": "0x39a",
        "chainId": "0xaa36a7"
      },
      "additionalContracts": [],
      "isFixedGasLimit": false
    },
    {
      "hash": "0xacbd214914893aa303032b5ee5b4b91b85c1677310b245355c77eed82c4562e4",
      "transactionType": "CALL",
      "contractName": "Mock1155",
      "contractAddress": "0x35ab1a05278ce651996d5c7d165cfd7d80c49601",
      "function": "mint(address,uint256,uint256)",
      "arguments": [
        "0xE8dF60a93b2B328397a8CBf73f0d732aaa11e33D",
        "555",
        "10"
      ],
      "transaction": {
        "from": "0xe8df60a93b2b328397a8cbf73f0d732aaa11e33d",
        "to": "0x35ab1a05278ce651996d5c7d165cfd7d80c49601",
        "gas": "0xfce1",
        "value": "0x0",
        "input": "0x156e29f6000000000000000000000000e8df60a93b2b328397a8cbf73f0d732aaa11e33d000000000000000000000000000000000000000000000000000000000000022b000000000000000000000000000000000000000000000000000000000000000a",
        "nonce": "0x39b",
        "chainId": "0xaa36a7"
      },
      "additionalContracts": [],
      "isFixedGasLimit": false
    },
    {
      "hash": "0x7e02c044a137869402147569c2248fe09a5c31635a5f5cfb8cb78bfa52b382a7",
      "transactionType": "CALL",
      "contractName": "Mock1155",
      "contractAddress": "0x35ab1a05278ce651996d5c7d165cfd7d80c49601",
      "function": "setApprovalForAll(address,bool)",
      "arguments": [
        "0x1107Eb26D47A5bF88E9a9F97cbC7EA38c3E1D7EC",
        "true"
      ],
      "transaction": {
        "from": "0xe8df60a93b2b328397a8cbf73f0d732aaa11e33d",
        "to": "0x35ab1a05278ce651996d5c7d165cfd7d80c49601",
        "gas": "0xfc26",
        "value": "0x0",
        "input": "0xa22cb4650000000000000000000000001107eb26d47a5bf88e9a9f97cbc7ea38c3e1d7ec0000000000000000000000000000000000000000000000000000000000000001",
        "nonce": "0x39c",
        "chainId": "0xaa36a7"
      },
      "additionalContracts": [],
      "isFixedGasLimit": false
    },
    {
      "hash": "0x51f64fba7e3fffa23efb23e6f7c603d3e700b725d6b703be99e2e98b9a27eae0",
      "transactionType": "CALL",
      "contractName": null,
      "contractAddress": "0x1107eb26d47a5bf88e9a9f97cbc7ea38c3e1d7ec",
      "function": "createListing(address,uint256,address,uint256,address,address,uint256,uint256,uint256,bool,bool,address[])",
      "arguments": [
        "0x35AB1A05278cE651996D5c7d165Cfd7d80C49601",
        "555",
        "0xE8dF60a93b2B328397a8CBf73f0d732aaa11e33D",
        "500000000000000",
        "0x0000000000000000000000000000000000000000",
        "0x0000000000000000000000000000000000000000",
        "0",
        "0",
        "10",
        "false",
        "true",
        "[]"
      ],
      "transaction": {
        "from": "0xe8df60a93b2b328397a8cbf73f0d732aaa11e33d",
        "to": "0x1107eb26d47a5bf88e9a9f97cbc7ea38c3e1d7ec",
        "gas": "0x42f75",
        "value": "0x0",
        "input": "0x34ab8a4400000000000000000000000035ab1a05278ce651996d5c7d165cfd7d80c49601000000000000000000000000000000000000000000000000000000000000022b000000000000000000000000e8df60a93b2b328397a8cbf73f0d732aaa11e33d0000000000000000000000000000000000000000000000000001c6bf526340000000000000000000000000000000000000000000000000000000000000000000000000000000000000000000000000000000000000000000000000000000000000000000000000000000000000000000000000000000000000000000000000000000000000000000000000000000000000000000000000000000000000000000000000000000000000000000000000000000000000000000000000000000000a0000000000000000000000000000000000000000000000000000000000000000000000000000000000000000000000000000000000000000000000000000000100000000000000000000000000000000000000000000000000000000000001800000000000000000000000000000000000000000000000000000000000000000",
        "nonce": "0x39d",
        "chainId": "0xaa36a7"
      },
      "additionalContracts": [],
      "isFixedGasLimit": false
    },
    {
      "hash": "0xaea00014385c8ca283beafab860ae3a2621939cc7cf04e2a3f25688d9846eb88",
      "transactionType": "CALL",
      "contractName": null,
      "contractAddress": "0x1107eb26d47a5bf88e9a9f97cbc7ea38c3e1d7ec",
      "function": "purchaseListing(uint128,uint256,address,uint256,address,uint256,uint256,uint256,address)",
      "arguments": [
        "25",
        "500000000000000",
        "0x0000000000000000000000000000000000000000",
        "10",
        "0x0000000000000000000000000000000000000000",
        "0",
        "0",
        "3",
        "0x8a200122f666af83aF2D4f425aC7A35fa5491ca7"
      ],
      "transaction": {
        "from": "0x8a200122f666af83af2d4f425ac7a35fa5491ca7",
        "to": "0x1107eb26d47a5bf88e9a9f97cbc7ea38c3e1d7ec",
        "gas": "0x2de68",
        "value": "0x886c98b76000",
        "input": "0xc333bac700000000000000000000000000000000000000000000000000000000000000190000000000000000000000000000000000000000000000000001c6bf526340000000000000000000000000000000000000000000000000000000000000000000000000000000000000000000000000000000000000000000000000000000000a00000000000000000000000000000000000000000000000000000000000000000000000000000000000000000000000000000000000000000000000000000000000000000000000000000000000000000000000000000000000000000000000000000000000000000000000000000000000000000000000000000000000000030000000000000000000000008a200122f666af83af2d4f425ac7a35fa5491ca7",
        "nonce": "0x112",
        "chainId": "0xaa36a7"
      },
      "additionalContracts": [],
      "isFixedGasLimit": false
    },
    {
      "hash": "0x92ba1272333d33c8e6c588ca3a0f4f41ad37029e1c5b0eb732cceb14b446d315",
      "transactionType": "CALL",
      "contractName": null,
      "contractAddress": "0x1107eb26d47a5bf88e9a9f97cbc7ea38c3e1d7ec",
      "function": "purchaseListing(uint128,uint256,address,uint256,address,uint256,uint256,uint256,address)",
      "arguments": [
        "25",
        "350000000000000",
        "0x0000000000000000000000000000000000000000",
        "7",
        "0x0000000000000000000000000000000000000000",
        "0",
        "0",
        "7",
        "0x8a200122f666af83aF2D4f425aC7A35fa5491ca7"
      ],
      "transaction": {
        "from": "0x8a200122f666af83af2d4f425ac7a35fa5491ca7",
        "to": "0x1107eb26d47a5bf88e9a9f97cbc7ea38c3e1d7ec",
        "gas": "0x21f35",
        "value": "0x13e52b9abe000",
        "input": "0xc333bac7000000000000000000000000000000000000000000000000000000000000001900000000000000000000000000000000000000000000000000013e52b9abe0000000000000000000000000000000000000000000000000000000000000000000000000000000000000000000000000000000000000000000000000000000000700000000000000000000000000000000000000000000000000000000000000000000000000000000000000000000000000000000000000000000000000000000000000000000000000000000000000000000000000000000000000000000000000000000000000000000000000000000000000000000000000000000000000070000000000000000000000008a200122f666af83af2d4f425ac7a35fa5491ca7",
        "nonce": "0x113",
        "chainId": "0xaa36a7"
      },
      "additionalContracts": [],
      "isFixedGasLimit": false
    },
    {
      "hash": "0xa88fc7953b2c3a8223b840cd7543b2e679d10d2dbba680b9f9853815e3f6916a",
      "transactionType": "CALL",
      "contractName": "Mock1155",
      "contractAddress": "0x35ab1a05278ce651996d5c7d165cfd7d80c49601",
      "function": "safeTransferFrom(address,address,uint256,uint256,bytes)",
      "arguments": [
        "0x8a200122f666af83aF2D4f425aC7A35fa5491ca7",
        "0xE8dF60a93b2B328397a8CBf73f0d732aaa11e33D",
        "555",
        "10",
        "0x"
      ],
      "transaction": {
        "from": "0x8a200122f666af83af2d4f425ac7a35fa5491ca7",
        "to": "0x35ab1a05278ce651996d5c7d165cfd7d80c49601",
        "gas": "0xf698",
        "value": "0x0",
        "input": "0xf242432a0000000000000000000000008a200122f666af83af2d4f425ac7a35fa5491ca7000000000000000000000000e8df60a93b2b328397a8cbf73f0d732aaa11e33d000000000000000000000000000000000000000000000000000000000000022b000000000000000000000000000000000000000000000000000000000000000a00000000000000000000000000000000000000000000000000000000000000a00000000000000000000000000000000000000000000000000000000000000000",
        "nonce": "0x114",
        "chainId": "0xaa36a7"
      },
      "additionalContracts": [],
      "isFixedGasLimit": false
    }
  ],
  "receipts": [
    {
      "status": "0x1",
      "cumulativeGasUsed": "0x9f59ed",
      "logs": [
        {
          "address": "0x41655ae49482de69eec8f6875c34a8ada01965e2",
          "topics": [
            "0x8c5be1e5ebec7d5bd14f71427d1e84f3dd0314c0f7b2291e5b200ac8c7c3b925",
            "0x000000000000000000000000e8df60a93b2b328397a8cbf73f0d732aaa11e33d",
            "0x0000000000000000000000001107eb26d47a5bf88e9a9f97cbc7ea38c3e1d7ec",
            "0x0000000000000000000000000000000000000000000000000000000000000010"
          ],
          "data": "0x",
          "blockHash": "0xa801c92a0a049efd3110c86faf16949dd01f2da3f5e87dd878b077d1419d7a2b",
          "blockNumber": "0x9a77e8",
          "blockTimestamp": "0x69769470",
          "transactionHash": "0x0879f7c0c1cf147069f12004f0f596f657d9e514d2f061565adaf13a9c866426",
          "transactionIndex": "0x2d",
          "logIndex": "0x5c",
          "removed": false
        }
      ],
      "logsBloom": "0x00000000100000000000000000000000000000000000000000000000000000000000000000000000000000400000000000000000000000000000000000200000000000000000000000000000000000000000000000000000000000000000000000000000000000000000000000000000000000000000000000000000040000000000000000004000000000000200000000000100000000000000000000000000020020000000000006000000000000000000000000000040000000000000002000000000000000000000000000000000000000000000000000000000000000000010000000000000100000000000000000000000000000000000000000000000",
      "type": "0x2",
      "transactionHash": "0x0879f7c0c1cf147069f12004f0f596f657d9e514d2f061565adaf13a9c866426",
      "transactionIndex": "0x2d",
      "blockHash": "0xa801c92a0a049efd3110c86faf16949dd01f2da3f5e87dd878b077d1419d7a2b",
      "blockNumber": "0x9a77e8",
      "gasUsed": "0xbfcc",
      "effectiveGasPrice": "0x3d230186",
      "from": "0xe8df60a93b2b328397a8cbf73f0d732aaa11e33d",
      "to": "0x41655ae49482de69eec8f6875c34a8ada01965e2",
      "contractAddress": null
    },
    {
      "status": "0x1",
      "cumulativeGasUsed": "0x3735999",
      "logs": [
        {
          "address": "0x1107eb26d47a5bf88e9a9f97cbc7ea38c3e1d7ec",
          "topics": [
            "0x01d722b1eb1f8d0a1331c6b9d4df6f88a8169986a749e715c3b7cdf79c354d28",
            "0x0000000000000000000000000000000000000000000000000000000000000016",
            "0x00000000000000000000000041655ae49482de69eec8f6875c34a8ada01965e2",
            "0x0000000000000000000000000000000000000000000000000000000000000010"
          ],
          "data": "0x00000000000000000000000000000000000000000000000000000000000000000000000000000000000000000000000000000000000000000000b5e620f48000000000000000000000000000000000000000000000000000000000000000000000000000000000000000000000000000000000000000000000000000000003e8000000000000000000000000e8df60a93b2b328397a8cbf73f0d732aaa11e33d00000000000000000000000000000000000000000000000000000000000000000000000000000000000000000000000000000000000000000000000000000000000000000000000000000000000000000000000000000000000000000000000000000000000000000000000000000000000000000000000000000000000000000000000000000000000000000000000000000000000000000000000000000000",
          "blockHash": "0x64d189f66cb45977a923ab0b860aa955448090f462309b0760e6113b68ff0319",
          "blockNumber": "0x9a77e9",
          "blockTimestamp": "0x6976947c",
          "transactionHash": "0x9f8554a1a40bca5878328f14bbbbb04c56544b667998aacb5509d27f4719abf0",
          "transactionIndex": "0x34",
          "logIndex": "0x52",
          "removed": false
        }
      ],
      "logsBloom": "0x00000000100000000000000000000000000000000000000000000000000000000000000000000000000000000000000400000000000000000000000002000000000000000000000800000000000000000001800000000000000000000000000000000000000000000000000000000000204000000004000000000000040000000000000000000000000000000000000000000100000000000000000000000000000000000000000000000000002000000000000000000000000000000000000000000000000000000000000000000000000000000000000000000000000000000000000000004000000000000000000000000000000000000008000000000020",
      "type": "0x2",
      "transactionHash": "0x9f8554a1a40bca5878328f14bbbbb04c56544b667998aacb5509d27f4719abf0",
      "transactionIndex": "0x34",
      "blockHash": "0x64d189f66cb45977a923ab0b860aa955448090f462309b0760e6113b68ff0319",
      "blockNumber": "0x9a77e9",
      "gasUsed": "0x31802",
      "effectiveGasPrice": "0x385702aa",
      "from": "0xe8df60a93b2b328397a8cbf73f0d732aaa11e33d",
      "to": "0x1107eb26d47a5bf88e9a9f97cbc7ea38c3e1d7ec",
      "contractAddress": null
    },
    {
      "status": "0x1",
      "cumulativeGasUsed": "0x4e2f38",
      "logs": [
        {
          "address": "0x41655ae49482de69eec8f6875c34a8ada01965e2",
          "topics": [
            "0xddf252ad1be2c89b69c2b068fc378daa952ba7f163c4a11628f55a4df523b3ef",
            "0x000000000000000000000000e8df60a93b2b328397a8cbf73f0d732aaa11e33d",
            "0x0000000000000000000000008a200122f666af83af2d4f425ac7a35fa5491ca7",
            "0x0000000000000000000000000000000000000000000000000000000000000010"
          ],
          "data": "0x",
          "blockHash": "0x84985d2c7448f39e97368fd26c9449f5ea48f412ccfb4d589cf0e0ab013abc21",
          "blockNumber": "0x9a77ea",
          "blockTimestamp": "0x69769488",
          "transactionHash": "0x2e5f3c3db94cf2b222dfc0efda258b101e6307ca7040780af84430a62ece1598",
          "transactionIndex": "0x13",
          "logIndex": "0x45",
          "removed": false
        },
        {
          "address": "0x1107eb26d47a5bf88e9a9f97cbc7ea38c3e1d7ec",
          "topics": [
            "0x8c26bcce2d0d4d813355b4d3481b5566faf6a15a9ac0c9d74258ac0b80ff113d",
            "0x0000000000000000000000000000000000000000000000000000000000000016",
            "0x000000000000000000000000e8df60a93b2b328397a8cbf73f0d732aaa11e33d",
            "0x0000000000000000000000000000000000000000000000000000000000000000"
          ],
          "data": "0x000000000000000000000000000000000000000000000000000001d1a94a2000",
          "blockHash": "0x84985d2c7448f39e97368fd26c9449f5ea48f412ccfb4d589cf0e0ab013abc21",
          "blockNumber": "0x9a77ea",
          "blockTimestamp": "0x69769488",
          "transactionHash": "0x2e5f3c3db94cf2b222dfc0efda258b101e6307ca7040780af84430a62ece1598",
          "transactionIndex": "0x13",
          "logIndex": "0x46",
          "removed": false
        },
        {
          "address": "0x1107eb26d47a5bf88e9a9f97cbc7ea38c3e1d7ec",
          "topics": [
            "0x1e23ef5682d6636d40f442322484a34763e4dff948d59bc12a607b855c6a935e",
            "0x0000000000000000000000000000000000000000000000000000000000000016",
            "0x000000000000000000000000e8df60a93b2b328397a8cbf73f0d732aaa11e33d",
            "0x0000000000000000000000000000000000000000000000000000000000000000"
          ],
          "data": "0x0000000000000000000000000000000000000000000000000000b41477aa6000",
          "blockHash": "0x84985d2c7448f39e97368fd26c9449f5ea48f412ccfb4d589cf0e0ab013abc21",
          "blockNumber": "0x9a77ea",
          "blockTimestamp": "0x69769488",
          "transactionHash": "0x2e5f3c3db94cf2b222dfc0efda258b101e6307ca7040780af84430a62ece1598",
          "transactionIndex": "0x13",
          "logIndex": "0x47",
          "removed": false
        },
        {
          "address": "0x1107eb26d47a5bf88e9a9f97cbc7ea38c3e1d7ec",
          "topics": [
            "0xa085c46b82b88e0514227f1a3cf1929291b941b7f3035a015a1d525f174a196e",
            "0x0000000000000000000000000000000000000000000000000000000000000016",
            "0x00000000000000000000000041655ae49482de69eec8f6875c34a8ada01965e2",
            "0x0000000000000000000000000000000000000000000000000000000000000010"
          ],
          "data": "0x000000000000000000000000000000000000000000000000000000000000000000000000000000000000000000000000000000000000000000000000000000000000000000000000000000000000000000000000000000000000b5e620f48000000000000000000000000000000000000000000000000000000000000000000000000000000000000000000000000000000000000000000000000000000003e8000000000000000000000000e8df60a93b2b328397a8cbf73f0d732aaa11e33d0000000000000000000000008a200122f666af83af2d4f425ac7a35fa5491ca7000000000000000000000000000000000000000000000000000000000000000000000000000000000000000000000000000000000000000000000000000000000000000000000000000000000000000000000000000000000000000000000000",
          "blockHash": "0x84985d2c7448f39e97368fd26c9449f5ea48f412ccfb4d589cf0e0ab013abc21",
          "blockNumber": "0x9a77ea",
          "blockTimestamp": "0x69769488",
          "transactionHash": "0x2e5f3c3db94cf2b222dfc0efda258b101e6307ca7040780af84430a62ece1598",
          "transactionIndex": "0x13",
          "logIndex": "0x48",
          "removed": false
        }
      ],
      "logsBloom": "0x00000000100000000000000000000000000000000000000000000000000000000000000000000000000000400000000400000000000000000000000002000000001000000000000800000008000000000000000000010000000100000000000000000008020000400000000000000800204000000004000000000010040000000000000040004000000000000000000000000100000000000020000000000008000020000000000002000000000000000000000000000040000000000800000001000002000000000000000000000000000000000000000000000000000020000000000000004000104000000000004000000000000000000008000000000020",
      "type": "0x2",
      "transactionHash": "0x2e5f3c3db94cf2b222dfc0efda258b101e6307ca7040780af84430a62ece1598",
      "transactionIndex": "0x13",
      "blockHash": "0x84985d2c7448f39e97368fd26c9449f5ea48f412ccfb4d589cf0e0ab013abc21",
      "blockNumber": "0x9a77ea",
      "gasUsed": "0x2607b",
      "effectiveGasPrice": "0x3ef3e9ef",
      "from": "0x8a200122f666af83af2d4f425ac7a35fa5491ca7",
      "to": "0x1107eb26d47a5bf88e9a9f97cbc7ea38c3e1d7ec",
      "contractAddress": null
    },
    {
      "status": "0x1",
      "cumulativeGasUsed": "0x379afdd",
      "logs": [
        {
          "address": "0x41655ae49482de69eec8f6875c34a8ada01965e2",
          "topics": [
            "0xddf252ad1be2c89b69c2b068fc378daa952ba7f163c4a11628f55a4df523b3ef",
            "0x0000000000000000000000008a200122f666af83af2d4f425ac7a35fa5491ca7",
            "0x000000000000000000000000e8df60a93b2b328397a8cbf73f0d732aaa11e33d",
            "0x0000000000000000000000000000000000000000000000000000000000000010"
          ],
          "data": "0x",
          "blockHash": "0x34b7faea176f263c056a18722c9b2a451109bed71c4f6c69b85d2d80d856d386",
          "blockNumber": "0x9a77eb",
          "blockTimestamp": "0x69769494",
          "transactionHash": "0x6b6f4eb37bfe03afdacee4de8d0c2e6d8f49ae3dc76cb36ad442c4dd5d975896",
          "transactionIndex": "0x36",
          "logIndex": "0x4e",
          "removed": false
        }
      ],
      "logsBloom": "0x00000000100000000000000000000000000000000000000000000000000000000000000000000000000000400000000000000000000000000000000000000000000000000000000000000008000000000000000000000000000100000000000000000000000000000000000000000000000000000000000000000010040000000000000000004000000000000000000000000100000000000020000000000008000020000000000002000000000000000000000000000040000000000000000000000002000000000000000000000000000000000000000000000000000000000000000000000000100000000000000000000000000000000000000000000000",
      "type": "0x2",
      "transactionHash": "0x6b6f4eb37bfe03afdacee4de8d0c2e6d8f49ae3dc76cb36ad442c4dd5d975896",
      "transactionIndex": "0x36",
      "blockHash": "0x34b7faea176f263c056a18722c9b2a451109bed71c4f6c69b85d2d80d856d386",
      "blockNumber": "0x9a77eb",
      "gasUsed": "0x15611",
      "effectiveGasPrice": "0x38e247cb",
      "from": "0x8a200122f666af83af2d4f425ac7a35fa5491ca7",
      "to": "0x41655ae49482de69eec8f6875c34a8ada01965e2",
      "contractAddress": null
    },
    {
      "status": "0x1",
      "cumulativeGasUsed": "0x33c046",
      "logs": [
        {
          "address": "0x1107eb26d47a5bf88e9a9f97cbc7ea38c3e1d7ec",
          "topics": [
            "0x01d722b1eb1f8d0a1331c6b9d4df6f88a8169986a749e715c3b7cdf79c354d28",
            "0x0000000000000000000000000000000000000000000000000000000000000017",
            "0x00000000000000000000000041655ae49482de69eec8f6875c34a8ada01965e2",
            "0x0000000000000000000000000000000000000000000000000000000000000216"
          ],
          "data": "0x0000000000000000000000000000000000000000000000000000000000000000000000000000000000000000000000000000000000000000000110d9316ec000000000000000000000000000000000000000000000000000000000000000000000000000000000000000000000000000000000000000000000000000000003e80000000000000000000000008a200122f666af83af2d4f425ac7a35fa5491ca700000000000000000000000000000000000000000000000000000000000000000000000000000000000000000000000000000000000000000000000000000000000000000000000000000000000000000000000000000000000000000000000000000000000000000000000000000000000000000000000000000000000000000000000000000000000000000000000000000000000000000000000000000000",
          "blockHash": "0x166dadb22ca5c0d8d4c6a3457db87a48103030ef27d5a71eb653eac4aabd2c19",
          "blockNumber": "0x9a77ec",
          "blockTimestamp": "0x697694a0",
          "transactionHash": "0xe3521a6cac857652543fbd033c2c79c120eae1e07c7491a80c7f6b0dab71ae1f",
          "transactionIndex": "0x17",
          "logIndex": "0x1a",
          "removed": false
        }
      ],
      "logsBloom": "0x00000000000000000000000000000000000000000000000000000000000000000000000000000000000000000000000400001000000000000000001002000000000000000000000000000000000000000001800000000000000000000000000000000000000000000000000000000000004000000004000000000000000000000000000000000000000000000000000000000000000000000000000000000000000000000000000000000000002000000000000000000000000000000000000400000000000000000000000040000000000000000000000000000000000000000080000000004000000000000000000000000000000000000000000000080020",
      "type": "0x2",
      "transactionHash": "0xe3521a6cac857652543fbd033c2c79c120eae1e07c7491a80c7f6b0dab71ae1f",
      "transactionIndex": "0x17",
      "blockHash": "0x166dadb22ca5c0d8d4c6a3457db87a48103030ef27d5a71eb653eac4aabd2c19",
      "blockNumber": "0x9a77ec",
      "gasUsed": "0x3181a",
      "effectiveGasPrice": "0x3fea98a5",
      "from": "0x8a200122f666af83af2d4f425ac7a35fa5491ca7",
      "to": "0x1107eb26d47a5bf88e9a9f97cbc7ea38c3e1d7ec",
      "contractAddress": null
    },
    {
      "status": "0x1",
      "cumulativeGasUsed": "0x38551f6",
      "logs": [
        {
          "address": "0x1107eb26d47a5bf88e9a9f97cbc7ea38c3e1d7ec",
          "topics": [
            "0x28592305c18226b9e6079b5f45adc09026856cd3ac5a2bca38b0384db299ed64",
            "0x0000000000000000000000000000000000000000000000000000000000000017",
            "0x00000000000000000000000041655ae49482de69eec8f6875c34a8ada01965e2",
            "0x0000000000000000000000000000000000000000000000000000000000000216"
          ],
          "data": "0x0000000000000000000000008a200122f666af83af2d4f425ac7a35fa5491ca70000000000000000000000008a200122f666af83af2d4f425ac7a35fa5491ca7",
          "blockHash": "0x8012474287a8b2f327a87defc403757d14651933cb686e95c4f8d5134fed9805",
          "blockNumber": "0x9a77ed",
          "blockTimestamp": "0x697694ac",
          "transactionHash": "0x256e72d4fbb1d9669e07f0876ead94922a800efe9bcac3839644a3cdfe8f528d",
          "transactionIndex": "0x35",
          "logIndex": "0x51",
          "removed": false
        }
      ],
      "logsBloom": "0x00000000000000000000040000000100000000000000000000000000000000000000000000000000000000000000000400001000000000000000001002000000000000000000000000000000000000000000000000000000000000000000000000000000000000000000000000000000004000000004000000000000000000000000000000000000000000000000000000000000000000000000000000000000000000000000000000040000000000000000000000000000000000000000000400000000000000000000000040000000000000000000000000000000000000000080000000004000000000000000000000000000000000000000000000080020",
      "type": "0x2",
      "transactionHash": "0x256e72d4fbb1d9669e07f0876ead94922a800efe9bcac3839644a3cdfe8f528d",
      "transactionIndex": "0x35",
      "blockHash": "0x8012474287a8b2f327a87defc403757d14651933cb686e95c4f8d5134fed9805",
      "blockNumber": "0x9a77ed",
      "gasUsed": "0xe5dc",
      "effectiveGasPrice": "0x397f9879",
      "from": "0x8a200122f666af83af2d4f425ac7a35fa5491ca7",
      "to": "0x1107eb26d47a5bf88e9a9f97cbc7ea38c3e1d7ec",
      "contractAddress": null
    },
    {
      "status": "0x1",
      "cumulativeGasUsed": "0x375bbf",
      "logs": [
        {
          "address": "0x41655ae49482de69eec8f6875c34a8ada01965e2",
          "topics": [
            "0x8c5be1e5ebec7d5bd14f71427d1e84f3dd0314c0f7b2291e5b200ac8c7c3b925",
            "0x000000000000000000000000e8df60a93b2b328397a8cbf73f0d732aaa11e33d",
            "0x0000000000000000000000001107eb26d47a5bf88e9a9f97cbc7ea38c3e1d7ec",
            "0x0000000000000000000000000000000000000000000000000000000000000010"
          ],
          "data": "0x",
          "blockHash": "0x16877d8ec4a7c5c40fdc19d45b9a36104dc14b9e5c7d9ce4540d0464be2877f6",
          "blockNumber": "0x9a77ee",
          "blockTimestamp": "0x697694b8",
          "transactionHash": "0x3b89c1609c94f97eaadef97d6a770ecc1efd59d751ec59329a33c46d7cc580aa",
          "transactionIndex": "0x12",
          "logIndex": "0x2e",
          "removed": false
        }
      ],
      "logsBloom": "0x00000000100000000000000000000000000000000000000000000000000000000000000000000000000000400000000000000000000000000000000000200000000000000000000000000000000000000000000000000000000000000000000000000000000000000000000000000000000000000000000000000000040000000000000000004000000000000200000000000100000000000000000000000000020020000000000006000000000000000000000000000040000000000000002000000000000000000000000000000000000000000000000000000000000000000010000000000000100000000000000000000000000000000000000000000000",
      "type": "0x2",
      "transactionHash": "0x3b89c1609c94f97eaadef97d6a770ecc1efd59d751ec59329a33c46d7cc580aa",
      "transactionIndex": "0x12",
      "blockHash": "0x16877d8ec4a7c5c40fdc19d45b9a36104dc14b9e5c7d9ce4540d0464be2877f6",
      "blockNumber": "0x9a77ee",
      "gasUsed": "0xbfcc",
      "effectiveGasPrice": "0x40a159dd",
      "from": "0xe8df60a93b2b328397a8cbf73f0d732aaa11e33d",
      "to": "0x41655ae49482de69eec8f6875c34a8ada01965e2",
      "contractAddress": null
    },
    {
      "status": "0x1",
      "cumulativeGasUsed": "0x400da8",
      "logs": [
        {
          "address": "0x1107eb26d47a5bf88e9a9f97cbc7ea38c3e1d7ec",
          "topics": [
            "0x84bfa17dcd53a706962d19dfd16887b637b2d019b4004e70a6f49dfd96219d22",
            "0x0000000000000000000000000000000000000000000000000000000000000018",
            "0x0000000000000000000000008a200122f666af83af2d4f425ac7a35fa5491ca7"
          ],
          "data": "0x",
          "blockHash": "0xbab3149c17db3325c3b3dd1f90501fef285a7ce8a8dce298ffb504575d62da5b",
          "blockNumber": "0x9a77ef",
          "blockTimestamp": "0x697694c4",
          "transactionHash": "0x9a9825449bd050f01ce212390c27962ff4e119caa2237cc1b7d3f016ed29a1f6",
          "transactionIndex": "0x20",
          "logIndex": "0x2b",
          "removed": false
        },
        {
          "address": "0x1107eb26d47a5bf88e9a9f97cbc7ea38c3e1d7ec",
          "topics": [
            "0x01d722b1eb1f8d0a1331c6b9d4df6f88a8169986a749e715c3b7cdf79c354d28",
            "0x0000000000000000000000000000000000000000000000000000000000000018",
            "0x00000000000000000000000041655ae49482de69eec8f6875c34a8ada01965e2",
            "0x0000000000000000000000000000000000000000000000000000000000000010"
          ],
          "data": "0x00000000000000000000000000000000000000000000000000000000000000000000000000000000000000000000000000000000000000000000b5e620f48000000000000000000000000000000000000000000000000000000000000000000000000000000000000000000000000000000000000000000000000000000003e8000000000000000000000000e8df60a93b2b328397a8cbf73f0d732aaa11e33d00000000000000000000000000000000000000000000000000000000000000010000000000000000000000000000000000000000000000000000000000000000000000000000000000000000000000000000000000000000000000000000000000000000000000000000000000000000000000000000000000000000000000000000000000000000000000000000000000000000000000000000000000000000",
          "blockHash": "0xbab3149c17db3325c3b3dd1f90501fef285a7ce8a8dce298ffb504575d62da5b",
          "blockNumber": "0x9a77ef",
          "blockTimestamp": "0x697694c4",
          "transactionHash": "0x9a9825449bd050f01ce212390c27962ff4e119caa2237cc1b7d3f016ed29a1f6",
          "transactionIndex": "0x20",
          "logIndex": "0x2c",
          "removed": false
        }
      ],
      "logsBloom": "0x00000000100000000000000000000000000000000000000000000000000000000000000000000000000000000000000400000000000000100000000002000000000000000000000000000000000000000041800000000000000100000000000000000000000000000000000000000000004000000004000000000000040000000000000000000000000000000000000000000100000000000020000000000008000000000000000000000000002000000000000000000000000000000000100000100000000000000000000002000000000000000000000020000000000000000000000000004000000000000000000000000000000000000000000000000020",
      "type": "0x2",
      "transactionHash": "0x9a9825449bd050f01ce212390c27962ff4e119caa2237cc1b7d3f016ed29a1f6",
      "transactionIndex": "0x20",
      "blockHash": "0xbab3149c17db3325c3b3dd1f90501fef285a7ce8a8dce298ffb504575d62da5b",
      "blockNumber": "0x9a77ef",
      "gasUsed": "0x39fbe",
      "effectiveGasPrice": "0x3bafb831",
      "from": "0xe8df60a93b2b328397a8cbf73f0d732aaa11e33d",
      "to": "0x1107eb26d47a5bf88e9a9f97cbc7ea38c3e1d7ec",
      "contractAddress": null
    },
    {
      "status": "0x1",
      "cumulativeGasUsed": "0x3b18c3",
      "logs": [
        {
          "address": "0x41655ae49482de69eec8f6875c34a8ada01965e2",
          "topics": [
            "0xddf252ad1be2c89b69c2b068fc378daa952ba7f163c4a11628f55a4df523b3ef",
            "0x000000000000000000000000e8df60a93b2b328397a8cbf73f0d732aaa11e33d",
            "0x0000000000000000000000008a200122f666af83af2d4f425ac7a35fa5491ca7",
            "0x0000000000000000000000000000000000000000000000000000000000000010"
          ],
          "data": "0x",
          "blockHash": "0xba263b8b9a4418291e184aeb6f1bbee243e9e75ec75dc00ea9ec97847b6f9d5a",
          "blockNumber": "0x9a77f0",
          "blockTimestamp": "0x697694d0",
          "transactionHash": "0x2075f2728006cd6f7a9995af43ac8d82ca3d37a589aa9fae0ece63731783f4f2",
          "transactionIndex": "0x19",
          "logIndex": "0x32",
          "removed": false
        },
        {
          "address": "0x1107eb26d47a5bf88e9a9f97cbc7ea38c3e1d7ec",
          "topics": [
            "0x8c26bcce2d0d4d813355b4d3481b5566faf6a15a9ac0c9d74258ac0b80ff113d",
            "0x0000000000000000000000000000000000000000000000000000000000000018",
            "0x000000000000000000000000e8df60a93b2b328397a8cbf73f0d732aaa11e33d",
            "0x0000000000000000000000000000000000000000000000000000000000000000"
          ],
          "data": "0x000000000000000000000000000000000000000000000000000001d1a94a2000",
          "blockHash": "0xba263b8b9a4418291e184aeb6f1bbee243e9e75ec75dc00ea9ec97847b6f9d5a",
          "blockNumber": "0x9a77f0",
          "blockTimestamp": "0x697694d0",
          "transactionHash": "0x2075f2728006cd6f7a9995af43ac8d82ca3d37a589aa9fae0ece63731783f4f2",
          "transactionIndex": "0x19",
          "logIndex": "0x33",
          "removed": false
        },
        {
          "address": "0x1107eb26d47a5bf88e9a9f97cbc7ea38c3e1d7ec",
          "topics": [
            "0x1e23ef5682d6636d40f442322484a34763e4dff948d59bc12a607b855c6a935e",
            "0x0000000000000000000000000000000000000000000000000000000000000018",
            "0x000000000000000000000000e8df60a93b2b328397a8cbf73f0d732aaa11e33d",
            "0x0000000000000000000000000000000000000000000000000000000000000000"
          ],
          "data": "0x0000000000000000000000000000000000000000000000000000b41477aa6000",
          "blockHash": "0xba263b8b9a4418291e184aeb6f1bbee243e9e75ec75dc00ea9ec97847b6f9d5a",
          "blockNumber": "0x9a77f0",
          "blockTimestamp": "0x697694d0",
          "transactionHash": "0x2075f2728006cd6f7a9995af43ac8d82ca3d37a589aa9fae0ece63731783f4f2",
          "transactionIndex": "0x19",
          "logIndex": "0x34",
          "removed": false
        },
        {
          "address": "0x1107eb26d47a5bf88e9a9f97cbc7ea38c3e1d7ec",
          "topics": [
            "0xa085c46b82b88e0514227f1a3cf1929291b941b7f3035a015a1d525f174a196e",
            "0x0000000000000000000000000000000000000000000000000000000000000018",
            "0x00000000000000000000000041655ae49482de69eec8f6875c34a8ada01965e2",
            "0x0000000000000000000000000000000000000000000000000000000000000010"
          ],
          "data": "0x000000000000000000000000000000000000000000000000000000000000000000000000000000000000000000000000000000000000000000000000000000000000000000000000000000000000000000000000000000000000b5e620f48000000000000000000000000000000000000000000000000000000000000000000000000000000000000000000000000000000000000000000000000000000003e8000000000000000000000000e8df60a93b2b328397a8cbf73f0d732aaa11e33d0000000000000000000000008a200122f666af83af2d4f425ac7a35fa5491ca7000000000000000000000000000000000000000000000000000000000000000000000000000000000000000000000000000000000000000000000000000000000000000000000000000000000000000000000000000000000000000000000000",
          "blockHash": "0xba263b8b9a4418291e184aeb6f1bbee243e9e75ec75dc00ea9ec97847b6f9d5a",
          "blockNumber": "0x9a77f0",
          "blockTimestamp": "0x697694d0",
          "transactionHash": "0x2075f2728006cd6f7a9995af43ac8d82ca3d37a589aa9fae0ece63731783f4f2",
          "transactionIndex": "0x19",
          "logIndex": "0x35",
          "removed": false
        }
      ],
      "logsBloom": "0x00000000100000000000000000000000000000000000000000000000000000000000000000000000000000400000000400000000000000000000000002000000001000000000000000000008000000000040000000010000000100000000000000000008020000400000000000000800004000000004000000000010040000000000000040004000000000000000000000000100000000000020000000000008000020000000000002000000000000000000000000000040000000000800000001100002000000000000000000000000000000000000000020000000000020000000000000004000104000000000004000000000000000000000000000000020",
      "type": "0x2",
      "transactionHash": "0x2075f2728006cd6f7a9995af43ac8d82ca3d37a589aa9fae0ece63731783f4f2",
      "transactionIndex": "0x19",
      "blockHash": "0xba263b8b9a4418291e184aeb6f1bbee243e9e75ec75dc00ea9ec97847b6f9d5a",
      "blockNumber": "0x9a77f0",
      "gasUsed": "0x267ad",
      "effectiveGasPrice": "0x43159d0b",
      "from": "0x8a200122f666af83af2d4f425ac7a35fa5491ca7",
      "to": "0x1107eb26d47a5bf88e9a9f97cbc7ea38c3e1d7ec",
      "contractAddress": null
    },
    {
      "status": "0x1",
      "cumulativeGasUsed": "0x410791",
      "logs": [
        {
          "address": "0x41655ae49482de69eec8f6875c34a8ada01965e2",
          "topics": [
            "0xddf252ad1be2c89b69c2b068fc378daa952ba7f163c4a11628f55a4df523b3ef",
            "0x0000000000000000000000008a200122f666af83af2d4f425ac7a35fa5491ca7",
            "0x000000000000000000000000e8df60a93b2b328397a8cbf73f0d732aaa11e33d",
            "0x0000000000000000000000000000000000000000000000000000000000000010"
          ],
          "data": "0x",
          "blockHash": "0x63b954009b0978dc2fb67c4b8badf94c49fd05141fa3b5fde9e474830358dc62",
          "blockNumber": "0x9a77f1",
          "blockTimestamp": "0x697694dc",
          "transactionHash": "0xedc89bc4bbe39a466c0c51d010aae90ec90816145c527b5046f3fac49947d672",
          "transactionIndex": "0x1d",
          "logIndex": "0x45",
          "removed": false
        }
      ],
      "logsBloom": "0x00000000100000000000000000000000000000000000000000000000000000000000000000000000000000400000000000000000000000000000000000000000000000000000000000000008000000000000000000000000000100000000000000000000000000000000000000000000000000000000000000000010040000000000000000004000000000000000000000000100000000000020000000000008000020000000000002000000000000000000000000000040000000000000000000000002000000000000000000000000000000000000000000000000000000000000000000000000100000000000000000000000000000000000000000000000",
      "type": "0x2",
      "transactionHash": "0xedc89bc4bbe39a466c0c51d010aae90ec90816145c527b5046f3fac49947d672",
      "transactionIndex": "0x1d",
      "blockHash": "0x63b954009b0978dc2fb67c4b8badf94c49fd05141fa3b5fde9e474830358dc62",
      "blockNumber": "0x9a77f1",
      "gasUsed": "0x15611",
      "effectiveGasPrice": "0x3c95bb84",
      "from": "0x8a200122f666af83af2d4f425ac7a35fa5491ca7",
      "to": "0x41655ae49482de69eec8f6875c34a8ada01965e2",
      "contractAddress": null
    },
    {
      "status": "0x1",
      "cumulativeGasUsed": "0x965937",
      "logs": [],
      "logsBloom": "0x00000000000000000000000000000000000000000000000000000000000000000000000000000000000000000000000000000000000000000000000000000000000000000000000000000000000000000000000000000000000000000000000000000000000000000000000000000000000000000000000000000000000000000000000000000000000000000000000000000000000000000000000000000000000000000000000000000000000000000000000000000000000000000000000000000000000000000000000000000000000000000000000000000000000000000000000000000000000000000000000000000000000000000000000000000000",
      "type": "0x2",
      "transactionHash": "0xe59db2b5e96ec7cc03823dbd18ea37c075b869b727d2e4397bc296ac770738ae",
      "transactionIndex": "0x1f",
      "blockHash": "0xfad8ddf4734b523c8d161f610bdbf31b26efb9269d1182a4fb4dbd5d0038c3b0",
      "blockNumber": "0x9a77f3",
      "gasUsed": "0x55261",
      "effectiveGasPrice": "0x3e43eaa8",
      "from": "0xe8df60a93b2b328397a8cbf73f0d732aaa11e33d",
      "to": null,
      "contractAddress": "0x35ab1a05278ce651996d5c7d165cfd7d80c49601"
    },
    {
      "status": "0x1",
      "cumulativeGasUsed": "0x374101e",
      "logs": [
        {
          "address": "0x1107eb26d47a5bf88e9a9f97cbc7ea38c3e1d7ec",
          "topics": [
            "0xc6757dbc7fb2f8d2ad19a4c73767f4584dd07cf7fc2bcfefc9cbf1f0279177fe",
            "0x00000000000000000000000035ab1a05278ce651996d5c7d165cfd7d80c49601"
          ],
          "data": "0x",
          "blockHash": "0xb3652336614d66980b622ce7b130ab469ee91811a411a550dc8e35276fbd7b7d",
          "blockNumber": "0x9a77f4",
          "blockTimestamp": "0x69769500",
          "transactionHash": "0x4237b401fa52faaa75c6b465de2c8478f88b5e5c2210b5851dd78596041983fb",
          "transactionIndex": "0x33",
          "logIndex": "0x44",
          "removed": false
        }
      ],
      "logsBloom": "0x00000000000000000000000000000000100000000000000000000000000010000000000000000000000000000000000400000000000000000000020002004000000000000000000000000000000000000000000000000000000000000000000000000000000000000000000000000000000000000000000000000000000000000000000000000020000000000000000000010000000000000000000000000000000000000000000000000000000000000000000000000000000000000000000000000000000000000000000000000000000000000000000000000000000000000000000000000000000000000000000000000000000000000000000000000020",
      "type": "0x2",
      "transactionHash": "0x4237b401fa52faaa75c6b465de2c8478f88b5e5c2210b5851dd78596041983fb",
      "transactionIndex": "0x33",
      "blockHash": "0xb3652336614d66980b622ce7b130ab469ee91811a411a550dc8e35276fbd7b7d",
      "blockNumber": "0x9a77f4",
      "gasUsed": "0x18ebe",
      "effectiveGasPrice": "0x39cf4e62",
      "from": "0xe8df60a93b2b328397a8cbf73f0d732aaa11e33d",
      "to": "0x1107eb26d47a5bf88e9a9f97cbc7ea38c3e1d7ec",
      "contractAddress": null
    },
    {
      "status": "0x1",
      "cumulativeGasUsed": "0x4cd3df",
      "logs": [],
      "logsBloom": "0x00000000000000000000000000000000000000000000000000000000000000000000000000000000000000000000000000000000000000000000000000000000000000000000000000000000000000000000000000000000000000000000000000000000000000000000000000000000000000000000000000000000000000000000000000000000000000000000000000000000000000000000000000000000000000000000000000000000000000000000000000000000000000000000000000000000000000000000000000000000000000000000000000000000000000000000000000000000000000000000000000000000000000000000000000000000",
      "type": "0x2",
      "transactionHash": "0xacbd214914893aa303032b5ee5b4b91b85c1677310b245355c77eed82c4562e4",
      "transactionIndex": "0x31",
      "blockHash": "0x24b2399b601c78eeca500b5b686e2f8c1438c27b42525952d7f0d9e72b3d95e6",
      "blockNumber": "0x9a77f5",
      "gasUsed": "0xace9",
      "effectiveGasPrice": "0x40efe5c2",
      "from": "0xe8df60a93b2b328397a8cbf73f0d732aaa11e33d",
      "to": "0x35ab1a05278ce651996d5c7d165cfd7d80c49601",
      "contractAddress": null
    },
    {
      "status": "0x1",
      "cumulativeGasUsed": "0x388d0ed",
      "logs": [],
      "logsBloom": "0x00000000000000000000000000000000000000000000000000000000000000000000000000000000000000000000000000000000000000000000000000000000000000000000000000000000000000000000000000000000000000000000000000000000000000000000000000000000000000000000000000000000000000000000000000000000000000000000000000000000000000000000000000000000000000000000000000000000000000000000000000000000000000000000000000000000000000000000000000000000000000000000000000000000000000000000000000000000000000000000000000000000000000000000000000000000",
      "type": "0x2",
      "transactionHash": "0x7e02c044a137869402147569c2248fe09a5c31635a5f5cfb8cb78bfa52b382a7",
      "transactionIndex": "0x3b",
      "blockHash": "0x0d93032be9764c0d7556862a9f87109ee8d69092d3641b28b7f4aac94342a05a",
      "blockNumber": "0x9a77f6",
      "gasUsed": "0xac69",
      "effectiveGasPrice": "0x3a92a135",
      "from": "0xe8df60a93b2b328397a8cbf73f0d732aaa11e33d",
      "to": "0x35ab1a05278ce651996d5c7d165cfd7d80c49601",
      "contractAddress": null
    },
    {
      "status": "0x1",
      "cumulativeGasUsed": "0x2d3fd0",
      "logs": [
        {
          "address": "0x1107eb26d47a5bf88e9a9f97cbc7ea38c3e1d7ec",
          "topics": [
            "0x01d722b1eb1f8d0a1331c6b9d4df6f88a8169986a749e715c3b7cdf79c354d28",
            "0x0000000000000000000000000000000000000000000000000000000000000019",
            "0x00000000000000000000000035ab1a05278ce651996d5c7d165cfd7d80c49601",
            "0x000000000000000000000000000000000000000000000000000000000000022b"
          ],
          "data": "0x000000000000000000000000000000000000000000000000000000000000000a0000000000000000000000000000000000000000000000000001c6bf52634000000000000000000000000000000000000000000000000000000000000000000000000000000000000000000000000000000000000000000000000000000003e8000000000000000000000000e8df60a93b2b328397a8cbf73f0d732aaa11e33d00000000000000000000000000000000000000000000000000000000000000000000000000000000000000000000000000000000000000000000000000000001000000000000000000000000000000000000000000000000000000000000000000000000000000000000000000000000000000000000000000000000000000000000000000000000000000000000000000000000000000000000000000000000",
          "blockHash": "0x3716696c6df1c9d00db48395b50cce92698d4acb3fa6b32f6bc47212bcc03685",
          "blockNumber": "0x9a77f7",
          "blockTimestamp": "0x69769524",
          "transactionHash": "0x51f64fba7e3fffa23efb23e6f7c603d3e700b725d6b703be99e2e98b9a27eae0",
          "transactionIndex": "0x16",
          "logIndex": "0x30",
          "removed": false
        }
      ],
      "logsBloom": "0x00000000000000000000000000000000000000000000000000000000000000000000000000000000000000000000000400000000000080800000000002004000000000000000000000000000000004000001820000000000000000000000000000000000000000000000000000000000000000000000020000000000000000000000000000000020000000000000000000010000000000000000000000000000000000000000000000000000002000000000000000000000000000000000000000000000000000000000000000000000000000000000000000000000000000000000000000000000000000000000000000000000000000000000008000000020",
      "type": "0x2",
      "transactionHash": "0x51f64fba7e3fffa23efb23e6f7c603d3e700b725d6b703be99e2e98b9a27eae0",
      "transactionIndex": "0x16",
      "blockHash": "0x3716696c6df1c9d00db48395b50cce92698d4acb3fa6b32f6bc47212bcc03685",
      "blockNumber": "0x9a77f7",
      "gasUsed": "0x307b8",
      "effectiveGasPrice": "0x41d273c5",
      "from": "0xe8df60a93b2b328397a8cbf73f0d732aaa11e33d",
      "to": "0x1107eb26d47a5bf88e9a9f97cbc7ea38c3e1d7ec",
      "contractAddress": null
    },
    {
      "status": "0x1",
      "cumulativeGasUsed": "0x344491",
      "logs": [
        {
          "address": "0x1107eb26d47a5bf88e9a9f97cbc7ea38c3e1d7ec",
          "topics": [
            "0x8c26bcce2d0d4d813355b4d3481b5566faf6a15a9ac0c9d74258ac0b80ff113d",
            "0x0000000000000000000000000000000000000000000000000000000000000019",
            "0x000000000000000000000000e8df60a93b2b328397a8cbf73f0d732aaa11e33d",
            "0x0000000000000000000000000000000000000000000000000000000000000000"
          ],
          "data": "0x0000000000000000000000000000000000000000000000000000015d3ef79800",
          "blockHash": "0x187f7fc677052374fe7c3f7376bb9e1497fa6ea0dfce0b9b6448c299b7f6152b",
          "blockNumber": "0x9a77f8",
          "blockTimestamp": "0x69769530",
          "transactionHash": "0xaea00014385c8ca283beafab860ae3a2621939cc7cf04e2a3f25688d9846eb88",
          "transactionIndex": "0x1d",
          "logIndex": "0x21",
          "removed": false
        },
        {
          "address": "0x1107eb26d47a5bf88e9a9f97cbc7ea38c3e1d7ec",
          "topics": [
            "0x1e23ef5682d6636d40f442322484a34763e4dff948d59bc12a607b855c6a935e",
            "0x0000000000000000000000000000000000000000000000000000000000000019",
            "0x000000000000000000000000e8df60a93b2b328397a8cbf73f0d732aaa11e33d",
            "0x0000000000000000000000000000000000000000000000000000000000000000"
          ],
          "data": "0x0000000000000000000000000000000000000000000000000000870f59bfc800",
          "blockHash": "0x187f7fc677052374fe7c3f7376bb9e1497fa6ea0dfce0b9b6448c299b7f6152b",
          "blockNumber": "0x9a77f8",
          "blockTimestamp": "0x69769530",
          "transactionHash": "0xaea00014385c8ca283beafab860ae3a2621939cc7cf04e2a3f25688d9846eb88",
          "transactionIndex": "0x1d",
          "logIndex": "0x22",
          "removed": false
        },
        {
          "address": "0x1107eb26d47a5bf88e9a9f97cbc7ea38c3e1d7ec",
          "topics": [
            "0xa085c46b82b88e0514227f1a3cf1929291b941b7f3035a015a1d525f174a196e",
            "0x0000000000000000000000000000000000000000000000000000000000000019",
            "0x00000000000000000000000035ab1a05278ce651996d5c7d165cfd7d80c49601",
            "0x000000000000000000000000000000000000000000000000000000000000022b"
          ],
          "data": "0x000000000000000000000000000000000000000000000000000000000000000300000000000000000000000000000000000000000000000000000000000000010000000000000000000000000000000000000000000000000000886c98b76000000000000000000000000000000000000000000000000000000000000000000000000000000000000000000000000000000000000000000000000000000003e8000000000000000000000000e8df60a93b2b328397a8cbf73f0d732aaa11e33d0000000000000000000000008a200122f666af83af2d4f425ac7a35fa5491ca7000000000000000000000000000000000000000000000000000000000000000000000000000000000000000000000000000000000000000000000000000000000000000000000000000000000000000000000000000000000000000000000000",
          "blockHash": "0x187f7fc677052374fe7c3f7376bb9e1497fa6ea0dfce0b9b6448c299b7f6152b",
          "blockNumber": "0x9a77f8",
          "blockTimestamp": "0x69769530",
          "transactionHash": "0xaea00014385c8ca283beafab860ae3a2621939cc7cf04e2a3f25688d9846eb88",
          "transactionIndex": "0x1d",
          "logIndex": "0x23",
          "removed": false
        }
      ],
      "logsBloom": "0x00000000000000000000000000000000000000000000000000000000000000000000000000000000000000400000000400000000000080800000000002004000001000000000000000000000000004000000020000010000000000000000000000000008020000400000000000000800000000000000020000000000000000000000000040000020000000000000000000010000000000000000000000000000000020000000000000000000000000000000000000000000000000000800000001000000000000000000000000000000000000000000000000000000000020000000000000000000104000000000004000000000000000000000008000000020",
      "type": "0x2",
      "transactionHash": "0xaea00014385c8ca283beafab860ae3a2621939cc7cf04e2a3f25688d9846eb88",
      "transactionIndex": "0x1d",
      "blockHash": "0x187f7fc677052374fe7c3f7376bb9e1497fa6ea0dfce0b9b6448c299b7f6152b",
      "blockNumber": "0x9a77f8",
      "gasUsed": "0x1f629",
      "effectiveGasPrice": "0x3ca944c3",
      "from": "0x8a200122f666af83af2d4f425ac7a35fa5491ca7",
      "to": "0x1107eb26d47a5bf88e9a9f97cbc7ea38c3e1d7ec",
      "contractAddress": null
    },
    {
      "status": "0x1",
      "cumulativeGasUsed": "0x1ceb0f",
      "logs": [
        {
          "address": "0x1107eb26d47a5bf88e9a9f97cbc7ea38c3e1d7ec",
          "topics": [
            "0x8c26bcce2d0d4d813355b4d3481b5566faf6a15a9ac0c9d74258ac0b80ff113d",
            "0x0000000000000000000000000000000000000000000000000000000000000019",
            "0x000000000000000000000000e8df60a93b2b328397a8cbf73f0d732aaa11e33d",
            "0x0000000000000000000000000000000000000000000000000000000000000000"
          ],
          "data": "0x0000000000000000000000000000000000000000000000000000032ee841b800",
          "blockHash": "0xe1010b53838389bdb43ed5e23689cd8f5c8ad80b59dc9caccaa46f150c4ff16f",
          "blockNumber": "0x9a77fa",
          "blockTimestamp": "0x69769548",
          "transactionHash": "0x92ba1272333d33c8e6c588ca3a0f4f41ad37029e1c5b0eb732cceb14b446d315",
          "transactionIndex": "0x14",
          "logIndex": "0xe",
          "removed": false
        },
        {
          "address": "0x1107eb26d47a5bf88e9a9f97cbc7ea38c3e1d7ec",
          "topics": [
            "0x1e23ef5682d6636d40f442322484a34763e4dff948d59bc12a607b855c6a935e",
            "0x0000000000000000000000000000000000000000000000000000000000000019",
            "0x000000000000000000000000e8df60a93b2b328397a8cbf73f0d732aaa11e33d",
            "0x0000000000000000000000000000000000000000000000000000000000000000"
          ],
          "data": "0x00000000000000000000000000000000000000000000000000013b23d16a2800",
          "blockHash": "0xe1010b53838389bdb43ed5e23689cd8f5c8ad80b59dc9caccaa46f150c4ff16f",
          "blockNumber": "0x9a77fa",
          "blockTimestamp": "0x69769548",
          "transactionHash": "0x92ba1272333d33c8e6c588ca3a0f4f41ad37029e1c5b0eb732cceb14b446d315",
          "transactionIndex": "0x14",
          "logIndex": "0xf",
          "removed": false
        },
        {
          "address": "0x1107eb26d47a5bf88e9a9f97cbc7ea38c3e1d7ec",
          "topics": [
            "0xa085c46b82b88e0514227f1a3cf1929291b941b7f3035a015a1d525f174a196e",
            "0x0000000000000000000000000000000000000000000000000000000000000019",
            "0x00000000000000000000000035ab1a05278ce651996d5c7d165cfd7d80c49601",
            "0x000000000000000000000000000000000000000000000000000000000000022b"
          ],
          "data": "0x0000000000000000000000000000000000000000000000000000000000000007000000000000000000000000000000000000000000000000000000000000000000000000000000000000000000000000000000000000000000013e52b9abe000000000000000000000000000000000000000000000000000000000000000000000000000000000000000000000000000000000000000000000000000000003e8000000000000000000000000e8df60a93b2b328397a8cbf73f0d732aaa11e33d0000000000000000000000008a200122f666af83af2d4f425ac7a35fa5491ca7000000000000000000000000000000000000000000000000000000000000000000000000000000000000000000000000000000000000000000000000000000000000000000000000000000000000000000000000000000000000000000000000",
          "blockHash": "0xe1010b53838389bdb43ed5e23689cd8f5c8ad80b59dc9caccaa46f150c4ff16f",
          "blockNumber": "0x9a77fa",
          "blockTimestamp": "0x69769548",
          "transactionHash": "0x92ba1272333d33c8e6c588ca3a0f4f41ad37029e1c5b0eb732cceb14b446d315",
          "transactionIndex": "0x14",
          "logIndex": "0x10",
          "removed": false
        }
      ],
      "logsBloom": "0x00000000000000000000000000000000000000000000000000000000000000000000000000000000000000400000000400000000000080800000000002004000001000000000000000000000000004000000020000010000000000000000000000000008020000400000000000000800000000000000020000000000000000000000000040000020000000000000000000010000000000000000000000000000000020000000000000000000000000000000000000000000000000000800000001000000000000000000000000000000000000000000000000000000000020000000000000000000104000000000004000000000000000000000008000000020",
      "type": "0x2",
      "transactionHash": "0x92ba1272333d33c8e6c588ca3a0f4f41ad37029e1c5b0eb732cceb14b446d315",
      "transactionIndex": "0x14",
      "blockHash": "0xe1010b53838389bdb43ed5e23689cd8f5c8ad80b59dc9caccaa46f150c4ff16f",
      "blockNumber": "0x9a77fa",
      "gasUsed": "0x18946",
      "effectiveGasPrice": "0x3cf2dcf8",
      "from": "0x8a200122f666af83af2d4f425ac7a35fa5491ca7",
      "to": "0x1107eb26d47a5bf88e9a9f97cbc7ea38c3e1d7ec",
      "contractAddress": null
    },
    {
      "status": "0x1",
      "cumulativeGasUsed": "0x2af5e8",
      "logs": [],
      "logsBloom": "0x00000000000000000000000000000000000000000000000000000000000000000000000000000000000000000000000000000000000000000000000000000000000000000000000000000000000000000000000000000000000000000000000000000000000000000000000000000000000000000000000000000000000000000000000000000000000000000000000000000000000000000000000000000000000000000000000000000000000000000000000000000000000000000000000000000000000000000000000000000000000000000000000000000000000000000000000000000000000000000000000000000000000000000000000000000000",
      "type": "0x2",
      "transactionHash": "0xa88fc7953b2c3a8223b840cd7543b2e679d10d2dbba680b9f9853815e3f6916a",
      "transactionIndex": "0x13",
      "blockHash": "0xd5148dff86bfdc1766bd2c95d39080a89bf5a32219f5944eb004563d97e9569b",
      "blockNumber": "0x9a77fc",
      "gasUsed": "0xb288",
      "effectiveGasPrice": "0x3d9bc87c",
      "from": "0x8a200122f666af83af2d4f425ac7a35fa5491ca7",
      "to": "0x35ab1a05278ce651996d5c7d165cfd7d80c49601",
      "contractAddress": null
    }
  ],
  "libraries": [],
  "pending": [],
  "returns": {},
  "timestamp": 1769379169,
  "chain": 11155111,
  "commit": "7e51afc"
}