{
  "transactions": [
    {
      "hash": "0xccafe730cca0bc5ef49dc652f4ad3557f749c4fe0b6c6a2f8cc291d394b7a5d8",
      "transactionType": "CALL",
      "contractName": null,
      "contractAddress": "0x41655ae49482de69eec8f6875c34a8ada01965e2",
      "function": "approve(address,uint256)",
      "arguments": [
        "0x8cE90712463c87a6d62941D67C3507D090Ea9d79",
        "16"
      ],
      "transaction": {
        "from": "0xe8df60a93b2b328397a8cbf73f0d732aaa11e33d",
        "to": "0x41655ae49482de69eec8f6875c34a8ada01965e2",
        "gas": "0x108ea",
        "value": "0x0",
        "input": "0x095ea7b30000000000000000000000008ce90712463c87a6d62941d67c3507d090ea9d790000000000000000000000000000000000000000000000000000000000000010",
        "nonce": "0x35e",
        "chainId": "0xaa36a7"
      },
      "additionalContracts": [],
      "isFixedGasLimit": false
    },
    {
      "hash": "0x787b2869fe39de54e405149ab9cd4b5f58d5018605ee2ed6cbd5d8868d41232f",
      "transactionType": "CALL",
      "contractName": null,
      "contractAddress": "0x8ce90712463c87a6d62941d67c3507d090ea9d79",
      "function": "createListing(address,uint256,address,uint256,address,uint256,uint256,uint256,bool,bool,address[])",
      "arguments": [
        "0x41655AE49482de69eEC8F6875c34A8Ada01965e2",
        "16",
        "0x0000000000000000000000000000000000000000",
        "200000000000000",
        "0x0000000000000000000000000000000000000000",
        "0",
        "0",
        "0",
        "false",
        "false",
        "[]"
      ],
      "transaction": {
        "from": "0xe8df60a93b2b328397a8cbf73f0d732aaa11e33d",
        "to": "0x8ce90712463c87a6d62941d67c3507d090ea9d79",
        "gas": "0x4dd47",
        "value": "0x0",
        "input": "0xcf4dffa100000000000000000000000041655ae49482de69eec8f6875c34a8ada01965e2000000000000000000000000000000000000000000000000000000000000001000000000000000000000000000000000000000000000000000000000000000000000000000000000000000000000000000000000000000000000b5e620f4800000000000000000000000000000000000000000000000000000000000000000000000000000000000000000000000000000000000000000000000000000000000000000000000000000000000000000000000000000000000000000000000000000000000000000000000000000000000000000000000000000000000000000000000000000000000000000000000000000000000000000000000000000000000000000000000000000000000000000000000000000000000000000000000000000000000000000000000000000000000000000000000000000000000000001600000000000000000000000000000000000000000000000000000000000000000",
        "nonce": "0x35f",
        "chainId": "0xaa36a7"
      },
      "additionalContracts": [],
      "isFixedGasLimit": false
    },
    {
      "hash": "0x658b3fe61dd90d26685953cfd697c7b6f356c87190207cee6c8d0d934a67d3d3",
      "transactionType": "CALL",
      "contractName": null,
      "contractAddress": "0x8ce90712463c87a6d62941d67c3507d090ea9d79",
      "function": "purchaseListing(uint128,uint256,uint256,address,uint256,uint256,uint256,address)",
      "arguments": [
        "17",
        "200000000000000",
        "0",
        "0x0000000000000000000000000000000000000000",
        "0",
        "0",
        "0",
        "0x0000000000000000000000000000000000000000"
      ],
      "transaction": {
        "from": "0x8a200122f666af83af2d4f425ac7a35fa5491ca7",
        "to": "0x8ce90712463c87a6d62941d67c3507d090ea9d79",
        "gas": "0x30f12",
        "value": "0xb5e620f48000",
        "input": "0xb4562cc700000000000000000000000000000000000000000000000000000000000000110000000000000000000000000000000000000000000000000000b5e620f48000000000000000000000000000000000000000000000000000000000000000000000000000000000000000000000000000000000000000000000000000000000000000000000000000000000000000000000000000000000000000000000000000000000000000000000000000000000000000000000000000000000000000000000000000000000000000000000000000000000000000000000000000000000000000000000000000000000000000000000000000000000000000000000000000",
        "nonce": "0xf7",
        "chainId": "0xaa36a7"
      },
      "additionalContracts": [],
      "isFixedGasLimit": false
    },
    {
      "hash": "0x93dc273bbaaae5e62a11536ad39a7b0cb8b5349243267549658415d547997db1",
      "transactionType": "CALL",
      "contractName": null,
      "contractAddress": "0x41655ae49482de69eec8f6875c34a8ada01965e2",
      "function": "safeTransferFrom(address,address,uint256)",
      "arguments": [
        "0x8a200122f666af83aF2D4f425aC7A35fa5491ca7",
        "0xE8dF60a93b2B328397a8CBf73f0d732aaa11e33D",
        "16"
      ],
      "transaction": {
        "from": "0x8a200122f666af83af2d4f425ac7a35fa5491ca7",
        "to": "0x41655ae49482de69eec8f6875c34a8ada01965e2",
        "gas": "0x1f445",
        "value": "0x0",
        "input": "0x42842e0e0000000000000000000000008a200122f666af83af2d4f425ac7a35fa5491ca7000000000000000000000000e8df60a93b2b328397a8cbf73f0d732aaa11e33d0000000000000000000000000000000000000000000000000000000000000010",
        "nonce": "0xf8",
        "chainId": "0xaa36a7"
      },
      "additionalContracts": [],
      "isFixedGasLimit": false
    },
    {
      "hash": "0xe3da2cfcc6459ac3b23973ec1e56393899232267086e2c8cec920eb26c6cd9b4",
      "transactionType": "CALL",
      "contractName": null,
      "contractAddress": "0x8ce90712463c87a6d62941d67c3507d090ea9d79",
      "function": "createListing(address,uint256,address,uint256,address,uint256,uint256,uint256,bool,bool,address[])",
      "arguments": [
        "0x41655AE49482de69eEC8F6875c34A8Ada01965e2",
        "534",
        "0x0000000000000000000000000000000000000000",
        "300000000000000",
        "0x0000000000000000000000000000000000000000",
        "0",
        "0",
        "0",
        "false",
        "false",
        "[]"
      ],
      "transaction": {
        "from": "0x8a200122f666af83af2d4f425ac7a35fa5491ca7",
        "to": "0x8ce90712463c87a6d62941d67c3507d090ea9d79",
        "gas": "0x4dd6a",
        "value": "0x0",
        "input": "0xcf4dffa100000000000000000000000041655ae49482de69eec8f6875c34a8ada01965e200000000000000000000000000000000000000000000000000000000000002160000000000000000000000000000000000000000000000000000000000000000000000000000000000000000000000000000000000000000000110d9316ec00000000000000000000000000000000000000000000000000000000000000000000000000000000000000000000000000000000000000000000000000000000000000000000000000000000000000000000000000000000000000000000000000000000000000000000000000000000000000000000000000000000000000000000000000000000000000000000000000000000000000000000000000000000000000000000000000000000000000000000000000000000000000000000000000000000000000000000000000000000000000000000000000000000000000001600000000000000000000000000000000000000000000000000000000000000000",
        "nonce": "0xf9",
        "chainId": "0xaa36a7"
      },
      "additionalContracts": [],
      "isFixedGasLimit": false
    },
    {
      "hash": "0x5536a00c0feb7d68074e3b99fbd228f123cfaad1f214f513113403a83b52425e",
      "transactionType": "CALL",
      "contractName": null,
      "contractAddress": "0x8ce90712463c87a6d62941d67c3507d090ea9d79",
      "function": "cancelListing(uint128)",
      "arguments": [
        "18"
      ],
      "transaction": {
        "from": "0x8a200122f666af83af2d4f425ac7a35fa5491ca7",
        "to": "0x8ce90712463c87a6d62941d67c3507d090ea9d79",
        "gas": "0x1516e",
        "value": "0x0",
        "input": "0x8e3d2fb20000000000000000000000000000000000000000000000000000000000000012",
        "nonce": "0xfa",
        "chainId": "0xaa36a7"
      },
      "additionalContracts": [],
      "isFixedGasLimit": false
    },
    {
      "hash": "0xe9c22308be47df02d3f78b630cd0bc817c6a89512105f831c932aaf69c06d007",
      "transactionType": "CALL",
      "contractName": null,
      "contractAddress": "0x41655ae49482de69eec8f6875c34a8ada01965e2",
      "function": "approve(address,uint256)",
      "arguments": [
        "0x8cE90712463c87a6d62941D67C3507D090Ea9d79",
        "16"
      ],
      "transaction": {
        "from": "0xe8df60a93b2b328397a8cbf73f0d732aaa11e33d",
        "to": "0x41655ae49482de69eec8f6875c34a8ada01965e2",
        "gas": "0x108ea",
        "value": "0x0",
        "input": "0x095ea7b30000000000000000000000008ce90712463c87a6d62941d67c3507d090ea9d790000000000000000000000000000000000000000000000000000000000000010",
        "nonce": "0x360",
        "chainId": "0xaa36a7"
      },
      "additionalContracts": [],
      "isFixedGasLimit": false
    },
    {
      "hash": "0xe290a57e5379f8d5ccad8699397d31dfc7bf8d94e7c935105b45af070d31bc67",
      "transactionType": "CALL",
      "contractName": null,
      "contractAddress": "0x8ce90712463c87a6d62941d67c3507d090ea9d79",
      "function": "createListing(address,uint256,address,uint256,address,uint256,uint256,uint256,bool,bool,address[])",
      "arguments": [
        "0x41655AE49482de69eEC8F6875c34A8Ada01965e2",
        "16",
        "0x0000000000000000000000000000000000000000",
        "200000000000000",
        "0x0000000000000000000000000000000000000000",
        "0",
        "0",
        "0",
        "true",
        "false",
        "[0x8a200122f666af83aF2D4f425aC7A35fa5491ca7]"
      ],
      "transaction": {
        "from": "0xe8df60a93b2b328397a8cbf73f0d732aaa11e33d",
        "to": "0x8ce90712463c87a6d62941d67c3507d090ea9d79",
        "gas": "0x553ab",
        "value": "0x0",
        "input": "0xcf4dffa100000000000000000000000041655ae49482de69eec8f6875c34a8ada01965e2000000000000000000000000000000000000000000000000000000000000001000000000000000000000000000000000000000000000000000000000000000000000000000000000000000000000000000000000000000000000b5e620f48000000000000000000000000000000000000000000000000000000000000000000000000000000000000000000000000000000000000000000000000000000000000000000000000000000000000000000000000000000000000000000000000000000000000000000000000000000000000000000000000000000000000000000000000000000000000000000000000000000000000000000000000000000000010000000000000000000000000000000000000000000000000000000000000000000000000000000000000000000000000000000000000000000000000000016000000000000000000000000000000000000000000000000000000000000000010000000000000000000000008a200122f666af83af2d4f425ac7a35fa5491ca7",
        "nonce": "0x361",
        "chainId": "0xaa36a7"
      },
      "additionalContracts": [],
      "isFixedGasLimit": false
    },
    {
      "hash": "0xc0e1fc8870b59c2789e4a59aea2df4db36fa5f89ed403bf480c233fb61a75e6c",
      "transactionType": "CALL",
      "contractName": null,
      "contractAddress": "0x8ce90712463c87a6d62941d67c3507d090ea9d79",
      "function": "purchaseListing(uint128,uint256,uint256,address,uint256,uint256,uint256,address)",
      "arguments": [
        "19",
        "200000000000000",
        "0",
        "0x0000000000000000000000000000000000000000",
        "0",
        "0",
        "0",
        "0x0000000000000000000000000000000000000000"
      ],
      "transaction": {
        "from": "0x8a200122f666af83af2d4f425ac7a35fa5491ca7",
        "to": "0x8ce90712463c87a6d62941d67c3507d090ea9d79",
        "gas": "0x347a9",
        "value": "0xb5e620f48000",
        "input": "0xb4562cc700000000000000000000000000000000000000000000000000000000000000130000000000000000000000000000000000000000000000000000b5e620f48000000000000000000000000000000000000000000000000000000000000000000000000000000000000000000000000000000000000000000000000000000000000000000000000000000000000000000000000000000000000000000000000000000000000000000000000000000000000000000000000000000000000000000000000000000000000000000000000000000000000000000000000000000000000000000000000000000000000000000000000000000000000000000000000000",
        "nonce": "0xfb",
        "chainId": "0xaa36a7"
      },
      "additionalContracts": [],
      "isFixedGasLimit": false
    },
    {
      "hash": "0xa319d62c17de9e9abd338dbbf6e31f7510119d6ceb807dbad09bb81212c1c78d",
      "transactionType": "CALL",
      "contractName": null,
      "contractAddress": "0x41655ae49482de69eec8f6875c34a8ada01965e2",
      "function": "safeTransferFrom(address,address,uint256)",
      "arguments": [
        "0x8a200122f666af83aF2D4f425aC7A35fa5491ca7",
        "0xE8dF60a93b2B328397a8CBf73f0d732aaa11e33D",
        "16"
      ],
      "transaction": {
        "from": "0x8a200122f666af83af2d4f425ac7a35fa5491ca7",
        "to": "0x41655ae49482de69eec8f6875c34a8ada01965e2",
        "gas": "0x1f445",
        "value": "0x0",
        "input": "0x42842e0e0000000000000000000000008a200122f666af83af2d4f425ac7a35fa5491ca7000000000000000000000000e8df60a93b2b328397a8cbf73f0d732aaa11e33d0000000000000000000000000000000000000000000000000000000000000010",
        "nonce": "0xfc",
        "chainId": "0xaa36a7"
      },
      "additionalContracts": [],
      "isFixedGasLimit": false
    },
    {
      "hash": "0x66f5c03f6b053bf70c6b50739ceb5fa4580bf19d1538b0392b24682e2a9cf708",
      "transactionType": "CREATE",
      "contractName": "Mock1155",
      "contractAddress": "0x9ba183d182e1423ad9316dbc3eb1f0010ebf4bb7",
      "function": null,
      "arguments": null,
      "transaction": {
        "from": "0xe8df60a93b2b328397a8cbf73f0d732aaa11e33d",
        "gas": "0x6eaa5",
        "value": "0x0",
        "input": "0x60808060405234601557610564908161001b8239f35b600080fdfe608080604052600436101561001357600080fd5b60003560e01c908162fdd58e1461045c5750806301ffc9a7146103bb578063156e29f614610364578063a22cb465146102dc578063e985e9c5146102655763f242432a1461006057600080fd5b346102605760a0600319360112610260576100796104ac565b6100816104cf565b604435906064359260843567ffffffffffffffff8111610260573660238201121561026057806004013567ffffffffffffffff811161026057369101602401116102605773ffffffffffffffffffffffffffffffffffffffff16903382148015610226575b156101c8578160005260006020526040600020836000526020526040600020549184831061016a5773ffffffffffffffffffffffffffffffffffffffff92859160005260006020526040600020856000526020520360406000205516600052600060205260406000209060005260205261016660406000209182546104f2565b9055005b60646040517f08c379a000000000000000000000000000000000000000000000000000000000815260206004820152600c60248201527f696e73756666696369656e7400000000000000000000000000000000000000006044820152fd5b60646040517f08c379a000000000000000000000000000000000000000000000000000000000815260206004820152600c60248201527f6e6f742d617070726f76656400000000000000000000000000000000000000006044820152fd5b50816000526001602052604060002073ffffffffffffffffffffffffffffffffffffffff331660005260205260ff604060002054166100e6565b600080fd5b346102605760406003193601126102605761027e6104ac565b73ffffffffffffffffffffffffffffffffffffffff61029b6104cf565b9116600052600160205273ffffffffffffffffffffffffffffffffffffffff60406000209116600052602052602060ff604060002054166040519015158152f35b34610260576040600319360112610260576102f56104ac565b602435908115158092036102605733600052600160205273ffffffffffffffffffffffffffffffffffffffff6040600020911660005260205260406000209060ff7fffffffffffffffffffffffffffffffffffffffffffffffffffffffffffffff008354169116179055600080f35b346102605760606003193601126102605773ffffffffffffffffffffffffffffffffffffffff6103926104ac565b1660005260006020526040600020602435600052602052604060002061016660443582546104f2565b34610260576020600319360112610260576004357fffffffff00000000000000000000000000000000000000000000000000000000811680910361026057807f01ffc9a70000000000000000000000000000000000000000000000000000000060209214908115610432575b506040519015158152f35b7fd9b67a260000000000000000000000000000000000000000000000000000000091501482610427565b346102605760406003193601126102605760209073ffffffffffffffffffffffffffffffffffffffff61048d6104ac565b1660005260008252604060002060243560005282526040600020548152f35b6004359073ffffffffffffffffffffffffffffffffffffffff8216820361026057565b6024359073ffffffffffffffffffffffffffffffffffffffff8216820361026057565b919082018092116104ff57565b7f4e487b7100000000000000000000000000000000000000000000000000000000600052601160045260246000fdfea2646970667358221220380c72faec45564d8601ae859b9b233d4f994e10cc8df9f1d39c328c971af0c564736f6c634300081c0033",
        "nonce": "0x362",
        "chainId": "0xaa36a7"
      },
      "additionalContracts": [],
      "isFixedGasLimit": false
    },
    {
      "hash": "0xe197b30df9388be103ce01cb8c56b528e835a1614b25d5b708ab14eb3c7cbfd1",
      "transactionType": "CALL",
      "contractName": null,
      "contractAddress": "0x8ce90712463c87a6d62941d67c3507d090ea9d79",
      "function": "addWhitelistedCollection(address)",
      "arguments": [
        "0x9ba183D182E1423aD9316Dbc3Eb1f0010EBf4bB7"
      ],
      "transaction": {
        "from": "0xe8df60a93b2b328397a8cbf73f0d732aaa11e33d",
        "to": "0x8ce90712463c87a6d62941d67c3507d090ea9d79",
        "gas": "0x226dc",
        "value": "0x0",
        "input": "0xd18e629c0000000000000000000000009ba183d182e1423ad9316dbc3eb1f0010ebf4bb7",
        "nonce": "0x363",
        "chainId": "0xaa36a7"
      },
      "additionalContracts": [],
      "isFixedGasLimit": false
    },
    {
      "hash": "0x936be9a4f79d72da3618936482fc3eb280a1f7248faaf0a053718607a9a22102",
      "transactionType": "CALL",
      "contractName": "Mock1155",
      "contractAddress": "0x9ba183d182e1423ad9316dbc3eb1f0010ebf4bb7",
      "function": "mint(address,uint256,uint256)",
      "arguments": [
        "0xE8dF60a93b2B328397a8CBf73f0d732aaa11e33D",
        "555",
        "10"
      ],
      "transaction": {
        "from": "0xe8df60a93b2b328397a8cbf73f0d732aaa11e33d",
        "to": "0x9ba183d182e1423ad9316dbc3eb1f0010ebf4bb7",
        "gas": "0xfce1",
        "value": "0x0",
        "input": "0x156e29f6000000000000000000000000e8df60a93b2b328397a8cbf73f0d732aaa11e33d000000000000000000000000000000000000000000000000000000000000022b000000000000000000000000000000000000000000000000000000000000000a",
        "nonce": "0x364",
        "chainId": "0xaa36a7"
      },
      "additionalContracts": [],
      "isFixedGasLimit": false
    },
    {
      "hash": "0x1c06c34bf3af09527d81912bba79d86d785cf902c4ec16b7326da8b7db06fec8",
      "transactionType": "CALL",
      "contractName": "Mock1155",
      "contractAddress": "0x9ba183d182e1423ad9316dbc3eb1f0010ebf4bb7",
      "function": "setApprovalForAll(address,bool)",
      "arguments": [
        "0x8cE90712463c87a6d62941D67C3507D090Ea9d79",
        "true"
      ],
      "transaction": {
        "from": "0xe8df60a93b2b328397a8cbf73f0d732aaa11e33d",
        "to": "0x9ba183d182e1423ad9316dbc3eb1f0010ebf4bb7",
        "gas": "0xfc26",
        "value": "0x0",
        "input": "0xa22cb4650000000000000000000000008ce90712463c87a6d62941d67c3507d090ea9d790000000000000000000000000000000000000000000000000000000000000001",
        "nonce": "0x365",
        "chainId": "0xaa36a7"
      },
      "additionalContracts": [],
      "isFixedGasLimit": false
    },
    {
      "hash": "0x7428655ce9080a3ed61f196af9433bf42b452b9a2b2090a62a760da03b9e647c",
      "transactionType": "CALL",
      "contractName": null,
      "contractAddress": "0x8ce90712463c87a6d62941d67c3507d090ea9d79",
      "function": "createListing(address,uint256,address,uint256,address,uint256,uint256,uint256,bool,bool,address[])",
      "arguments": [
        "0x9ba183D182E1423aD9316Dbc3Eb1f0010EBf4bB7",
        "555",
        "0xE8dF60a93b2B328397a8CBf73f0d732aaa11e33D",
        "500000000000000",
        "0x0000000000000000000000000000000000000000",
        "0",
        "0",
        "10",
        "false",
        "true",
        "[]"
      ],
      "transaction": {
        "from": "0xe8df60a93b2b328397a8cbf73f0d732aaa11e33d",
        "to": "0x8ce90712463c87a6d62941d67c3507d090ea9d79",
        "gas": "0x4fa17",
        "value": "0x0",
        "input": "0xcf4dffa10000000000000000000000009ba183d182e1423ad9316dbc3eb1f0010ebf4bb7000000000000000000000000000000000000000000000000000000000000022b000000000000000000000000e8df60a93b2b328397a8cbf73f0d732aaa11e33d0000000000000000000000000000000000000000000000000001c6bf52634000000000000000000000000000000000000000000000000000000000000000000000000000000000000000000000000000000000000000000000000000000000000000000000000000000000000000000000000000000000000000000000000000000000000000000000000000000000000000000000000000000000000000000a0000000000000000000000000000000000000000000000000000000000000000000000000000000000000000000000000000000000000000000000000000000100000000000000000000000000000000000000000000000000000000000001600000000000000000000000000000000000000000000000000000000000000000",
        "nonce": "0x366",
        "chainId": "0xaa36a7"
      },
      "additionalContracts": [],
      "isFixedGasLimit": false
    },
    {
      "hash": "0x8382f03bc9c73dc8aab7b9c9cf8fee6d01b70fa67a94a2600cc5d333958c1df1",
      "transactionType": "CALL",
      "contractName": null,
      "contractAddress": "0x8ce90712463c87a6d62941d67c3507d090ea9d79",
      "function": "purchaseListing(uint128,uint256,uint256,address,uint256,uint256,uint256,address)",
      "arguments": [
        "20",
        "500000000000000",
        "10",
        "0x0000000000000000000000000000000000000000",
        "0",
        "0",
        "3",
        "0x8a200122f666af83aF2D4f425aC7A35fa5491ca7"
      ],
      "transaction": {
        "from": "0x8a200122f666af83af2d4f425ac7a35fa5491ca7",
        "to": "0x8ce90712463c87a6d62941d67c3507d090ea9d79",
        "gas": "0x26b9c",
        "value": "0x886c98b76000",
        "input": "0xb4562cc700000000000000000000000000000000000000000000000000000000000000140000000000000000000000000000000000000000000000000001c6bf52634000000000000000000000000000000000000000000000000000000000000000000a00000000000000000000000000000000000000000000000000000000000000000000000000000000000000000000000000000000000000000000000000000000000000000000000000000000000000000000000000000000000000000000000000000000000000000000000000000000000000000000000000000000000000030000000000000000000000008a200122f666af83af2d4f425ac7a35fa5491ca7",
        "nonce": "0xfd",
        "chainId": "0xaa36a7"
      },
      "additionalContracts": [],
      "isFixedGasLimit": false
    },
    {
      "hash": "0x0531e00fd174fd4656eeeae79b6493693f8451da4131230d47606e6bc45ca025",
      "transactionType": "CALL",
      "contractName": null,
      "contractAddress": "0x8ce90712463c87a6d62941d67c3507d090ea9d79",
      "function": "purchaseListing(uint128,uint256,uint256,address,uint256,uint256,uint256,address)",
      "arguments": [
        "20",
        "350000000000000",
        "7",
        "0x0000000000000000000000000000000000000000",
        "0",
        "0",
        "7",
        "0x8a200122f666af83aF2D4f425aC7A35fa5491ca7"
      ],
      "transaction": {
        "from": "0x8a200122f666af83af2d4f425ac7a35fa5491ca7",
        "to": "0x8ce90712463c87a6d62941d67c3507d090ea9d79",
        "gas": "0x1fc0f",
        "value": "0x13e52b9abe000",
        "input": "0xb4562cc7000000000000000000000000000000000000000000000000000000000000001400000000000000000000000000000000000000000000000000013e52b9abe000000000000000000000000000000000000000000000000000000000000000000700000000000000000000000000000000000000000000000000000000000000000000000000000000000000000000000000000000000000000000000000000000000000000000000000000000000000000000000000000000000000000000000000000000000000000000000000000000000000000000000000000000000000070000000000000000000000008a200122f666af83af2d4f425ac7a35fa5491ca7",
        "nonce": "0xfe",
        "chainId": "0xaa36a7"
      },
      "additionalContracts": [],
      "isFixedGasLimit": false
    },
    {
      "hash": "0xde1c8243670bbb0d2f59bfd26d8afd21868c4b1424f994c069475b5198d226c3",
      "transactionType": "CALL",
      "contractName": "Mock1155",
      "contractAddress": "0x9ba183d182e1423ad9316dbc3eb1f0010ebf4bb7",
      "function": "safeTransferFrom(address,address,uint256,uint256,bytes)",
      "arguments": [
        "0x8a200122f666af83aF2D4f425aC7A35fa5491ca7",
        "0xE8dF60a93b2B328397a8CBf73f0d732aaa11e33D",
        "555",
        "10",
        "0x"
      ],
      "transaction": {
        "from": "0x8a200122f666af83af2d4f425ac7a35fa5491ca7",
        "to": "0x9ba183d182e1423ad9316dbc3eb1f0010ebf4bb7",
        "gas": "0xf698",
        "value": "0x0",
        "input": "0xf242432a0000000000000000000000008a200122f666af83af2d4f425ac7a35fa5491ca7000000000000000000000000e8df60a93b2b328397a8cbf73f0d732aaa11e33d000000000000000000000000000000000000000000000000000000000000022b000000000000000000000000000000000000000000000000000000000000000a00000000000000000000000000000000000000000000000000000000000000a00000000000000000000000000000000000000000000000000000000000000000",
        "nonce": "0xff",
        "chainId": "0xaa36a7"
      },
      "additionalContracts": [],
      "isFixedGasLimit": false
    }
  ],
  "receipts": [
    {
      "status": "0x1",
      "cumulativeGasUsed": "0x5b1859",
      "logs": [
        {
          "address": "0x41655ae49482de69eec8f6875c34a8ada01965e2",
          "topics": [
            "0x8c5be1e5ebec7d5bd14f71427d1e84f3dd0314c0f7b2291e5b200ac8c7c3b925",
            "0x000000000000000000000000e8df60a93b2b328397a8cbf73f0d732aaa11e33d",
            "0x0000000000000000000000008ce90712463c87a6d62941d67c3507d090ea9d79",
            "0x0000000000000000000000000000000000000000000000000000000000000010"
          ],
          "data": "0x",
          "blockHash": "0xa4fcc7da6accae9e326bc5c0408cf46a23407293e494452c92180c410626e7ac",
          "blockNumber": "0x905cc0",
          "blockTimestamp": "0x68f7ddc4",
          "transactionHash": "0xccafe730cca0bc5ef49dc652f4ad3557f749c4fe0b6c6a2f8cc291d394b7a5d8",
          "transactionIndex": "0x42",
          "logIndex": "0x4f",
          "removed": false
        }
      ],
      "logsBloom": "0x000000001000000080000000000000000000000000000010000000000000000000000000000000000000004000000000000000000000000000000000002000000000000000000000000000000000000000000000000000000000000000000000000000000000000000000000000000000000000000000000000000000400000000000000000040000000000000000000000001000000000000000000000000000200a0000000000002000000000000000000000000000040000000000000000000000000000000000000000000000000000000000000000000000000000000000010000000000000100000000000000000000000000000000000000000000000",
      "type": "0x2",
      "transactionHash": "0xccafe730cca0bc5ef49dc652f4ad3557f749c4fe0b6c6a2f8cc291d394b7a5d8",
      "transactionIndex": "0x42",
      "blockHash": "0xa4fcc7da6accae9e326bc5c0408cf46a23407293e494452c92180c410626e7ac",
      "blockNumber": "0x905cc0",
      "gasUsed": "0xbfcc",
      "effectiveGasPrice": "0xf424a",
      "from": "0xe8df60a93b2b328397a8cbf73f0d732aaa11e33d",
      "to": "0x41655ae49482de69eec8f6875c34a8ada01965e2",
      "contractAddress": null
    },
    {
      "status": "0x1",
      "cumulativeGasUsed": "0x144c95c",
      "logs": [
        {
          "address": "0x8ce90712463c87a6d62941d67c3507d090ea9d79",
          "topics": [
            "0xf0ebe84ab70abb64a93861570163972d8d4182d154513433b5adf6441cb997d0",
            "0x0000000000000000000000000000000000000000000000000000000000000011",
            "0x00000000000000000000000041655ae49482de69eec8f6875c34a8ada01965e2",
            "0x0000000000000000000000000000000000000000000000000000000000000010"
          ],
          "data": "0x00000000000000000000000000000000000000000000000000000000000000000000000000000000000000000000000000000000000000000000b5e620f4800000000000000000000000000000000000000000000000000000000000000003e8000000000000000000000000e8df60a93b2b328397a8cbf73f0d732aaa11e33d00000000000000000000000000000000000000000000000000000000000000000000000000000000000000000000000000000000000000000000000000000000000000000000000000000000000000000000000000000000000000000000000000000000000000000000000000000000000000000000000000000000000000000000000000000000000000000000000000000000000000000000000000000000",
          "blockHash": "0xc92221db5c474d4f13d56120c1f92071ed11fb172c2e7adabfc0c949eca7c4fa",
          "blockNumber": "0x905cc1",
          "blockTimestamp": "0x68f7ddd0",
          "transactionHash": "0x787b2869fe39de54e405149ab9cd4b5f58d5018605ee2ed6cbd5d8868d41232f",
          "transactionIndex": "0x6f",
          "logIndex": "0x9c",
          "removed": false
        }
      ],
      "logsBloom": "0x00000000100000000000000000000000000000000000000000000000000000000000000000000000000000000000000000080000000000000000000000000002000000000000000000000000000000000000000000000000000000000000000000000000000000000000000000000000004000004004000000000000040000000000000000000000000000000000000000000100000000000000000000000000000000000000000000040000000000000000000000000000000000000400000000001000010000000000000000000000000000000000000000000000000800000000000000004001000000000000000000000000000000000000000000000000",
      "type": "0x2",
      "transactionHash": "0x787b2869fe39de54e405149ab9cd4b5f58d5018605ee2ed6cbd5d8868d41232f",
      "transactionIndex": "0x6f",
      "blockHash": "0xc92221db5c474d4f13d56120c1f92071ed11fb172c2e7adabfc0c949eca7c4fa",
      "blockNumber": "0x905cc1",
      "gasUsed": "0x35379",
      "effectiveGasPrice": "0xf424a",
      "from": "0xe8df60a93b2b328397a8cbf73f0d732aaa11e33d",
      "to": "0x8ce90712463c87a6d62941d67c3507d090ea9d79",
      "contractAddress": null
    },
    {
      "status": "0x1",
      "cumulativeGasUsed": "0xbbe199",
      "logs": [
        {
          "address": "0x41655ae49482de69eec8f6875c34a8ada01965e2",
          "topics": [
            "0xddf252ad1be2c89b69c2b068fc378daa952ba7f163c4a11628f55a4df523b3ef",
            "0x000000000000000000000000e8df60a93b2b328397a8cbf73f0d732aaa11e33d",
            "0x0000000000000000000000008a200122f666af83af2d4f425ac7a35fa5491ca7",
            "0x0000000000000000000000000000000000000000000000000000000000000010"
          ],
          "data": "0x",
          "blockHash": "0xd66484b2e4aba8df36964c6147fe3a34d04f454e1c6a4672780d836133d80029",
          "blockNumber": "0x905cc2",
          "blockTimestamp": "0x68f7dddc",
          "transactionHash": "0x658b3fe61dd90d26685953cfd697c7b6f356c87190207cee6c8d0d934a67d3d3",
          "transactionIndex": "0x94",
          "logIndex": "0x94",
          "removed": false
        },
        {
          "address": "0x8ce90712463c87a6d62941d67c3507d090ea9d79",
          "topics": [
            "0xf29ea8cf6560754479a8e1315af36da0b36abd368847025746c28e718b7d11ca",
            "0x0000000000000000000000000000000000000000000000000000000000000011",
            "0x00000000000000000000000041655ae49482de69eec8f6875c34a8ada01965e2",
            "0x0000000000000000000000000000000000000000000000000000000000000010"
          ],
          "data": "0x000000000000000000000000000000000000000000000000000000000000000000000000000000000000000000000000000000000000000000000000000000000000000000000000000000000000000000000000000000000000b5e620f4800000000000000000000000000000000000000000000000000000000000000003e8000000000000000000000000e8df60a93b2b328397a8cbf73f0d732aaa11e33d0000000000000000000000008a200122f666af83af2d4f425ac7a35fa5491ca7000000000000000000000000000000000000000000000000000000000000000000000000000000000000000000000000000000000000000000000000000000000000000000000000000000000000000000000000000000000000000000000000",
          "blockHash": "0xd66484b2e4aba8df36964c6147fe3a34d04f454e1c6a4672780d836133d80029",
          "blockNumber": "0x905cc2",
          "blockTimestamp": "0x68f7dddc",
          "transactionHash": "0x658b3fe61dd90d26685953cfd697c7b6f356c87190207cee6c8d0d934a67d3d3",
          "transactionIndex": "0x94",
          "logIndex": "0x95",
          "removed": false
        }
      ],
      "logsBloom": "0x00000000100000000000000000000000000000000000000000000000000000000000000000000000000000400000000000088000000000000000000000000002000000000000000000000008000000000000000000000000000100000000000000000000020000000000000000000000004000804004000000000010040000000000000000004000000000000000000000000100000000000020000000000008000020000000000002000000000000000000000000000040000000000400000000001002010000000000000000000000000000000000000000000000000000000000000000004000100000000000000000000000000000000000000000000000",
      "type": "0x2",
      "transactionHash": "0x658b3fe61dd90d26685953cfd697c7b6f356c87190207cee6c8d0d934a67d3d3",
      "transactionIndex": "0x94",
      "blockHash": "0xd66484b2e4aba8df36964c6147fe3a34d04f454e1c6a4672780d836133d80029",
      "blockNumber": "0x905cc2",
      "gasUsed": "0x236ef",
      "effectiveGasPrice": "0xf424a",
      "from": "0x8a200122f666af83af2d4f425ac7a35fa5491ca7",
      "to": "0x8ce90712463c87a6d62941d67c3507d090ea9d79",
      "contractAddress": null
    },
    {
      "status": "0x1",
      "cumulativeGasUsed": "0x3a7e98",
      "logs": [
        {
          "address": "0x41655ae49482de69eec8f6875c34a8ada01965e2",
          "topics": [
            "0xddf252ad1be2c89b69c2b068fc378daa952ba7f163c4a11628f55a4df523b3ef",
            "0x0000000000000000000000008a200122f666af83af2d4f425ac7a35fa5491ca7",
            "0x000000000000000000000000e8df60a93b2b328397a8cbf73f0d732aaa11e33d",
            "0x0000000000000000000000000000000000000000000000000000000000000010"
          ],
          "data": "0x",
          "blockHash": "0xb972c6cc119fb49215730429bced6530b52281927b9fe8a5849fbb5fd7b938d7",
          "blockNumber": "0x905cc3",
          "blockTimestamp": "0x68f7dde8",
          "transactionHash": "0x93dc273bbaaae5e62a11536ad39a7b0cb8b5349243267549658415d547997db1",
          "transactionIndex": "0x30",
          "logIndex": "0x3e",
          "removed": false
        }
      ],
      "logsBloom": "0x00000000100000000000000000000000000000000000000000000000000000000000000000000000000000400000000000000000000000000000000000000000000000000000000000000008000000000000000000000000000100000000000000000000000000000000000000000000000000000000000000000010040000000000000000004000000000000000000000000100000000000020000000000008000020000000000002000000000000000000000000000040000000000000000000000002000000000000000000000000000000000000000000000000000000000000000000000000100000000000000000000000000000000000000000000000",
      "type": "0x2",
      "transactionHash": "0x93dc273bbaaae5e62a11536ad39a7b0cb8b5349243267549658415d547997db1",
      "transactionIndex": "0x30",
      "blockHash": "0xb972c6cc119fb49215730429bced6530b52281927b9fe8a5849fbb5fd7b938d7",
      "blockNumber": "0x905cc3",
      "gasUsed": "0x15611",
      "effectiveGasPrice": "0xf424b",
      "from": "0x8a200122f666af83af2d4f425ac7a35fa5491ca7",
      "to": "0x41655ae49482de69eec8f6875c34a8ada01965e2",
      "contractAddress": null
    },
    {
      "status": "0x1",
      "cumulativeGasUsed": "0x11a63b2",
      "logs": [
        {
          "address": "0x8ce90712463c87a6d62941d67c3507d090ea9d79",
          "topics": [
            "0xf0ebe84ab70abb64a93861570163972d8d4182d154513433b5adf6441cb997d0",
            "0x0000000000000000000000000000000000000000000000000000000000000012",
            "0x00000000000000000000000041655ae49482de69eec8f6875c34a8ada01965e2",
            "0x0000000000000000000000000000000000000000000000000000000000000216"
          ],
          "data": "0x0000000000000000000000000000000000000000000000000000000000000000000000000000000000000000000000000000000000000000000110d9316ec00000000000000000000000000000000000000000000000000000000000000003e80000000000000000000000008a200122f666af83af2d4f425ac7a35fa5491ca700000000000000000000000000000000000000000000000000000000000000000000000000000000000000000000000000000000000000000000000000000000000000000000000000000000000000000000000000000000000000000000000000000000000000000000000000000000000000000000000000000000000000000000000000000000000000000000000000000000000000000000000000000000",
          "blockHash": "0xe4f3c899638b040835eae4aee9ee79c542ade3e116d09b2d4459a983b1a827d0",
          "blockNumber": "0x905cc4",
          "blockTimestamp": "0x68f7ddf4",
          "transactionHash": "0xe3da2cfcc6459ac3b23973ec1e56393899232267086e2c8cec920eb26c6cd9b4",
          "transactionIndex": "0x41",
          "logIndex": "0x4b",
          "removed": false
        }
      ],
      "logsBloom": "0x00000000000000000000000000000000000000000000000000000000000000000000000000000000000000000000000000080000000000000000000000000002000000000000000000000000000000000000000000000000000000000000000000000000000000000000000000000000004000000004000000000000000000000000000000000000000000000000040000000000000000000000000000000000000000000000000000040000000000000000000000000040000000000000000400000000010000000400000040000000000000000000000000000000000800000080000000004001000000000000000000000000000000000000000000000000",
      "type": "0x2",
      "transactionHash": "0xe3da2cfcc6459ac3b23973ec1e56393899232267086e2c8cec920eb26c6cd9b4",
      "transactionIndex": "0x41",
      "blockHash": "0xe4f3c899638b040835eae4aee9ee79c542ade3e116d09b2d4459a983b1a827d0",
      "blockNumber": "0x905cc4",
      "gasUsed": "0x35391",
      "effectiveGasPrice": "0xf424a",
      "from": "0x8a200122f666af83af2d4f425ac7a35fa5491ca7",
      "to": "0x8ce90712463c87a6d62941d67c3507d090ea9d79",
      "contractAddress": null
    },
    {
      "status": "0x1",
      "cumulativeGasUsed": "0x1060433",
      "logs": [
        {
          "address": "0x8ce90712463c87a6d62941d67c3507d090ea9d79",
          "topics": [
            "0x28592305c18226b9e6079b5f45adc09026856cd3ac5a2bca38b0384db299ed64",
            "0x0000000000000000000000000000000000000000000000000000000000000012",
            "0x00000000000000000000000041655ae49482de69eec8f6875c34a8ada01965e2",
            "0x0000000000000000000000000000000000000000000000000000000000000216"
          ],
          "data": "0x0000000000000000000000008a200122f666af83af2d4f425ac7a35fa5491ca70000000000000000000000008a200122f666af83af2d4f425ac7a35fa5491ca7",
          "blockHash": "0x176184c3595d306b31ceb43b7884527eb9e79481ffe9057464336e21c3c1cdc7",
          "blockNumber": "0x905cc5",
          "blockTimestamp": "0x68f7de00",
          "transactionHash": "0x5536a00c0feb7d68074e3b99fbd228f123cfaad1f214f513113403a83b52425e",
          "transactionIndex": "0x7c",
          "logIndex": "0xe0",
          "removed": false
        }
      ],
      "logsBloom": "0x00000000000000000000040000000100000000000000000000000000000000000000000000000000000000000000000000080000000000000000000000000002000000000000000000000000000000000000000000000000000000000000000000000000000000000000000000000000004000000004000000000000000000000000000000000000000000000000040000000000000000000000000000000000000000000000000000040000000000000000000000000040000000000000000400000000010000000400000040000000000000000000000000000000000000000080000000004000000000000000000000000000000000000000000000000000",
      "type": "0x2",
      "transactionHash": "0x5536a00c0feb7d68074e3b99fbd228f123cfaad1f214f513113403a83b52425e",
      "transactionIndex": "0x7c",
      "blockHash": "0x176184c3595d306b31ceb43b7884527eb9e79481ffe9057464336e21c3c1cdc7",
      "blockNumber": "0x905cc5",
      "gasUsed": "0xf44c",
      "effectiveGasPrice": "0xf424a",
      "from": "0x8a200122f666af83af2d4f425ac7a35fa5491ca7",
      "to": "0x8ce90712463c87a6d62941d67c3507d090ea9d79",
      "contractAddress": null
    },
    {
      "status": "0x1",
      "cumulativeGasUsed": "0x733986",
      "logs": [
        {
          "address": "0x41655ae49482de69eec8f6875c34a8ada01965e2",
          "topics": [
            "0x8c5be1e5ebec7d5bd14f71427d1e84f3dd0314c0f7b2291e5b200ac8c7c3b925",
            "0x000000000000000000000000e8df60a93b2b328397a8cbf73f0d732aaa11e33d",
            "0x0000000000000000000000008ce90712463c87a6d62941d67c3507d090ea9d79",
            "0x0000000000000000000000000000000000000000000000000000000000000010"
          ],
          "data": "0x",
          "blockHash": "0x7cf648484ff2ca08c7b11ed8c4f8cb2f607b8e7f0b2279027e6a6491c05d86bd",
          "blockNumber": "0x905cc6",
          "blockTimestamp": "0x68f7de0c",
          "transactionHash": "0xe9c22308be47df02d3f78b630cd0bc817c6a89512105f831c932aaf69c06d007",
          "transactionIndex": "0x4e",
          "logIndex": "0x6e",
          "removed": false
        }
      ],
      "logsBloom": "0x000000001000000080000000000000000000000000000010000000000000000000000000000000000000004000000000000000000000000000000000002000000000000000000000000000000000000000000000000000000000000000000000000000000000000000000000000000000000000000000000000000000400000000000000000040000000000000000000000001000000000000000000000000000200a0000000000002000000000000000000000000000040000000000000000000000000000000000000000000000000000000000000000000000000000000000010000000000000100000000000000000000000000000000000000000000000",
      "type": "0x2",
      "transactionHash": "0xe9c22308be47df02d3f78b630cd0bc817c6a89512105f831c932aaf69c06d007",
      "transactionIndex": "0x4e",
      "blockHash": "0x7cf648484ff2ca08c7b11ed8c4f8cb2f607b8e7f0b2279027e6a6491c05d86bd",
      "blockNumber": "0x905cc6",
      "gasUsed": "0xbfcc",
      "effectiveGasPrice": "0xf424b",
      "from": "0xe8df60a93b2b328397a8cbf73f0d732aaa11e33d",
      "to": "0x41655ae49482de69eec8f6875c34a8ada01965e2",
      "contractAddress": null
    },
    {
      "status": "0x1",
      "cumulativeGasUsed": "0x7bcb6c",
      "logs": [
        {
          "address": "0x8ce90712463c87a6d62941d67c3507d090ea9d79",
          "topics": [
            "0x84bfa17dcd53a706962d19dfd16887b637b2d019b4004e70a6f49dfd96219d22",
            "0x0000000000000000000000000000000000000000000000000000000000000013",
            "0x0000000000000000000000008a200122f666af83af2d4f425ac7a35fa5491ca7"
          ],
          "data": "0x",
          "blockHash": "0x47bd578557aca113ca8a07931a80dfb371b43619053bf1fab65c05cbf97b04e3",
          "blockNumber": "0x905cc7",
          "blockTimestamp": "0x68f7de18",
          "transactionHash": "0xe290a57e5379f8d5ccad8699397d31dfc7bf8d94e7c935105b45af070d31bc67",
          "transactionIndex": "0x59",
          "logIndex": "0x61",
          "removed": false
        },
        {
          "address": "0x8ce90712463c87a6d62941d67c3507d090ea9d79",
          "topics": [
            "0xf0ebe84ab70abb64a93861570163972d8d4182d154513433b5adf6441cb997d0",
            "0x0000000000000000000000000000000000000000000000000000000000000013",
            "0x00000000000000000000000041655ae49482de69eec8f6875c34a8ada01965e2",
            "0x0000000000000000000000000000000000000000000000000000000000000010"
          ],
          "data": "0x00000000000000000000000000000000000000000000000000000000000000000000000000000000000000000000000000000000000000000000b5e620f4800000000000000000000000000000000000000000000000000000000000000003e8000000000000000000000000e8df60a93b2b328397a8cbf73f0d732aaa11e33d00000000000000000000000000000000000000000000000000000000000000010000000000000000000000000000000000000000000000000000000000000000000000000000000000000000000000000000000000000000000000000000000000000000000000000000000000000000000000000000000000000000000000000000000000000000000000000000000000000000000000000000000000000000",
          "blockHash": "0x47bd578557aca113ca8a07931a80dfb371b43619053bf1fab65c05cbf97b04e3",
          "blockNumber": "0x905cc7",
          "blockTimestamp": "0x68f7de18",
          "transactionHash": "0xe290a57e5379f8d5ccad8699397d31dfc7bf8d94e7c935105b45af070d31bc67",
          "transactionIndex": "0x59",
          "logIndex": "0x62",
          "removed": false
        }
      ],
      "logsBloom": "0x20000000100000000000000000800000000000000000000000000000000000000000000040000000000000000000000000080000000000100000000000000002000000000000000000000000000000000000000000000000000100000000000000000000000000000000000000000000004000000004000000000000040000000000000000000000000000000000000000000100000000000020000000000008000000000000000000040000000000000000000000000000000000000000100000000000010000000000000002000000000000000000000000000000000800000000000000004001000000000000000000000000000000000000000000000000",
      "type": "0x2",
      "transactionHash": "0xe290a57e5379f8d5ccad8699397d31dfc7bf8d94e7c935105b45af070d31bc67",
      "transactionIndex": "0x59",
      "blockHash": "0x47bd578557aca113ca8a07931a80dfb371b43619053bf1fab65c05cbf97b04e3",
      "blockNumber": "0x905cc7",
      "gasUsed": "0x3db46",
      "effectiveGasPrice": "0xf424b",
      "from": "0xe8df60a93b2b328397a8cbf73f0d732aaa11e33d",
      "to": "0x8ce90712463c87a6d62941d67c3507d090ea9d79",
      "contractAddress": null
    },
    {
      "status": "0x1",
      "cumulativeGasUsed": "0x678257",
      "logs": [
        {
          "address": "0x41655ae49482de69eec8f6875c34a8ada01965e2",
          "topics": [
            "0xddf252ad1be2c89b69c2b068fc378daa952ba7f163c4a11628f55a4df523b3ef",
            "0x000000000000000000000000e8df60a93b2b328397a8cbf73f0d732aaa11e33d",
            "0x0000000000000000000000008a200122f666af83af2d4f425ac7a35fa5491ca7",
            "0x0000000000000000000000000000000000000000000000000000000000000010"
          ],
          "data": "0x",
          "blockHash": "0x0b5709eb45291088b4c9094ac0fa3462a87994f8679d337a99db9ae64a09d7fc",
          "blockNumber": "0x905cc8",
          "blockTimestamp": "0x68f7de24",
          "transactionHash": "0xc0e1fc8870b59c2789e4a59aea2df4db36fa5f89ed403bf480c233fb61a75e6c",
          "transactionIndex": "0x47",
          "logIndex": "0x55",
          "removed": false
        },
        {
          "address": "0x8ce90712463c87a6d62941d67c3507d090ea9d79",
          "topics": [
            "0xf29ea8cf6560754479a8e1315af36da0b36abd368847025746c28e718b7d11ca",
            "0x0000000000000000000000000000000000000000000000000000000000000013",
            "0x00000000000000000000000041655ae49482de69eec8f6875c34a8ada01965e2",
            "0x0000000000000000000000000000000000000000000000000000000000000010"
          ],
          "data": "0x000000000000000000000000000000000000000000000000000000000000000000000000000000000000000000000000000000000000000000000000000000000000000000000000000000000000000000000000000000000000b5e620f4800000000000000000000000000000000000000000000000000000000000000003e8000000000000000000000000e8df60a93b2b328397a8cbf73f0d732aaa11e33d0000000000000000000000008a200122f666af83af2d4f425ac7a35fa5491ca7000000000000000000000000000000000000000000000000000000000000000000000000000000000000000000000000000000000000000000000000000000000000000000000000000000000000000000000000000000000000000000000000",
          "blockHash": "0x0b5709eb45291088b4c9094ac0fa3462a87994f8679d337a99db9ae64a09d7fc",
          "blockNumber": "0x905cc8",
          "blockTimestamp": "0x68f7de24",
          "transactionHash": "0xc0e1fc8870b59c2789e4a59aea2df4db36fa5f89ed403bf480c233fb61a75e6c",
          "transactionIndex": "0x47",
          "logIndex": "0x56",
          "removed": false
        }
      ],
      "logsBloom": "0x20000000100000000000000000800000000000000000000000000000000000000000000040000000000000400000000000088000000000000000000000000002000000000000000000000008000000000000000000000000000100000000000000000000020000000000000000000000004000800004000000000010040000000000000000004000000000000000000000000100000000000020000000000008000020000000000002000000000000000000000000000040000000000000000000000002010000000000000000000000000000000000000000000000000000000000000000004000100000000000000000000000000000000000000000000000",
      "type": "0x2",
      "transactionHash": "0xc0e1fc8870b59c2789e4a59aea2df4db36fa5f89ed403bf480c233fb61a75e6c",
      "transactionIndex": "0x47",
      "blockHash": "0x0b5709eb45291088b4c9094ac0fa3462a87994f8679d337a99db9ae64a09d7fc",
      "blockNumber": "0x905cc8",
      "gasUsed": "0x23e21",
      "effectiveGasPrice": "0xf424b",
      "from": "0x8a200122f666af83af2d4f425ac7a35fa5491ca7",
      "to": "0x8ce90712463c87a6d62941d67c3507d090ea9d79",
      "contractAddress": null
    },
    {
      "status": "0x1",
      "cumulativeGasUsed": "0x10c5b16",
      "logs": [
        {
          "address": "0x41655ae49482de69eec8f6875c34a8ada01965e2",
          "topics": [
            "0xddf252ad1be2c89b69c2b068fc378daa952ba7f163c4a11628f55a4df523b3ef",
            "0x0000000000000000000000008a200122f666af83af2d4f425ac7a35fa5491ca7",
            "0x000000000000000000000000e8df60a93b2b328397a8cbf73f0d732aaa11e33d",
            "0x0000000000000000000000000000000000000000000000000000000000000010"
          ],
          "data": "0x",
          "blockHash": "0x9c9dc062766a5a886ee1fd37dc200c934ddbca1fa61804a4066cadbcbc19efbc",
          "blockNumber": "0x905cc9",
          "blockTimestamp": "0x68f7de30",
          "transactionHash": "0xa319d62c17de9e9abd338dbbf6e31f7510119d6ceb807dbad09bb81212c1c78d",
          "transactionIndex": "0x6f",
          "logIndex": "0x87",
          "removed": false
        }
      ],
      "logsBloom": "0x00000000100000000000000000000000000000000000000000000000000000000000000000000000000000400000000000000000000000000000000000000000000000000000000000000008000000000000000000000000000100000000000000000000000000000000000000000000000000000000000000000010040000000000000000004000000000000000000000000100000000000020000000000008000020000000000002000000000000000000000000000040000000000000000000000002000000000000000000000000000000000000000000000000000000000000000000000000100000000000000000000000000000000000000000000000",
      "type": "0x2",
      "transactionHash": "0xa319d62c17de9e9abd338dbbf6e31f7510119d6ceb807dbad09bb81212c1c78d",
      "transactionIndex": "0x6f",
      "blockHash": "0x9c9dc062766a5a886ee1fd37dc200c934ddbca1fa61804a4066cadbcbc19efbc",
      "blockNumber": "0x905cc9",
      "gasUsed": "0x15611",
      "effectiveGasPrice": "0xf424b",
      "from": "0x8a200122f666af83af2d4f425ac7a35fa5491ca7",
      "to": "0x41655ae49482de69eec8f6875c34a8ada01965e2",
      "contractAddress": null
    },
    {
      "status": "0x1",
      "cumulativeGasUsed": "0x9bd05f",
      "logs": [],
      "logsBloom": "0x00000000000000000000000000000000000000000000000000000000000000000000000000000000000000000000000000000000000000000000000000000000000000000000000000000000000000000000000000000000000000000000000000000000000000000000000000000000000000000000000000000000000000000000000000000000000000000000000000000000000000000000000000000000000000000000000000000000000000000000000000000000000000000000000000000000000000000000000000000000000000000000000000000000000000000000000000000000000000000000000000000000000000000000000000000000",
      "type": "0x2",
      "transactionHash": "0x66f5c03f6b053bf70c6b50739ceb5fa4580bf19d1538b0392b24682e2a9cf708",
      "transactionIndex": "0x69",
      "blockHash": "0xd97556fab47345c74bb830edd182c3c6b0a6965e461b1490d8ac2c2bf3ab15fe",
      "blockNumber": "0x905cca",
      "gasUsed": "0x55261",
      "effectiveGasPrice": "0xf424c",
      "from": "0xe8df60a93b2b328397a8cbf73f0d732aaa11e33d",
      "to": null,
      "contractAddress": "0x9ba183d182e1423ad9316dbc3eb1f0010ebf4bb7"
    },
    {
      "status": "0x1",
      "cumulativeGasUsed": "0xaaeaf2",
      "logs": [
        {
          "address": "0x8ce90712463c87a6d62941d67c3507d090ea9d79",
          "topics": [
            "0xc6757dbc7fb2f8d2ad19a4c73767f4584dd07cf7fc2bcfefc9cbf1f0279177fe",
            "0x0000000000000000000000009ba183d182e1423ad9316dbc3eb1f0010ebf4bb7"
          ],
          "data": "0x",
          "blockHash": "0x362e5e4a3a4a5958076a326e96d35e268bcb2d8b42dc46988b52531e24979c0c",
          "blockNumber": "0x905ccb",
          "blockTimestamp": "0x68f7de48",
          "transactionHash": "0xe197b30df9388be103ce01cb8c56b528e835a1614b25d5b708ab14eb3c7cbfd1",
          "transactionIndex": "0x57",
          "logIndex": "0x73",
          "removed": false
        }
      ],
      "logsBloom": "0x00000000000000000000000000000000100000000000000000000000000010000000000000000000000000000000000000080000000000000000020000000002000000000000000000000000000000000000000000000000000000000000000000000000000000000000000000000000000001000000000000000000000000000000000000000000000000000000000000000000000000000000000000000000000000000000000000000000000000000000000000008000000000000000000000000000010000000000000040000000000000000000000000000000000000000000000000000000000000000000000000000000000000000000000000000000",
      "type": "0x2",
      "transactionHash": "0xe197b30df9388be103ce01cb8c56b528e835a1614b25d5b708ab14eb3c7cbfd1",
      "transactionIndex": "0x57",
      "blockHash": "0x362e5e4a3a4a5958076a326e96d35e268bcb2d8b42dc46988b52531e24979c0c",
      "blockNumber": "0x905ccb",
      "gasUsed": "0x18ed0",
      "effectiveGasPrice": "0xf424c",
      "from": "0xe8df60a93b2b328397a8cbf73f0d732aaa11e33d",
      "to": "0x8ce90712463c87a6d62941d67c3507d090ea9d79",
      "contractAddress": null
    },
    {
      "status": "0x1",
      "cumulativeGasUsed": "0xbe0a8b",
      "logs": [],
      "logsBloom": "0x00000000000000000000000000000000000000000000000000000000000000000000000000000000000000000000000000000000000000000000000000000000000000000000000000000000000000000000000000000000000000000000000000000000000000000000000000000000000000000000000000000000000000000000000000000000000000000000000000000000000000000000000000000000000000000000000000000000000000000000000000000000000000000000000000000000000000000000000000000000000000000000000000000000000000000000000000000000000000000000000000000000000000000000000000000000",
      "type": "0x2",
      "transactionHash": "0x936be9a4f79d72da3618936482fc3eb280a1f7248faaf0a053718607a9a22102",
      "transactionIndex": "0x47",
      "blockHash": "0x529f7a640c22c66bdffd05d9371668e17e8d58ca4536de3baadb707ba0e5b4c0",
      "blockNumber": "0x905ccc",
      "gasUsed": "0xace9",
      "effectiveGasPrice": "0xf424c",
      "from": "0xe8df60a93b2b328397a8cbf73f0d732aaa11e33d",
      "to": "0x9ba183d182e1423ad9316dbc3eb1f0010ebf4bb7",
      "contractAddress": null
    },
    {
      "status": "0x1",
      "cumulativeGasUsed": "0x78f43a",
      "logs": [],
      "logsBloom": "0x00000000000000000000000000000000000000000000000000000000000000000000000000000000000000000000000000000000000000000000000000000000000000000000000000000000000000000000000000000000000000000000000000000000000000000000000000000000000000000000000000000000000000000000000000000000000000000000000000000000000000000000000000000000000000000000000000000000000000000000000000000000000000000000000000000000000000000000000000000000000000000000000000000000000000000000000000000000000000000000000000000000000000000000000000000000",
      "type": "0x2",
      "transactionHash": "0x1c06c34bf3af09527d81912bba79d86d785cf902c4ec16b7326da8b7db06fec8",
      "transactionIndex": "0x43",
      "blockHash": "0x1671d57b26af87d154dc9212d1c3f08c7eb9bddf97af79d12bff8695b1385081",
      "blockNumber": "0x905ccd",
      "gasUsed": "0xac69",
      "effectiveGasPrice": "0xf424c",
      "from": "0xe8df60a93b2b328397a8cbf73f0d732aaa11e33d",
      "to": "0x9ba183d182e1423ad9316dbc3eb1f0010ebf4bb7",
      "contractAddress": null
    },
    {
      "status": "0x1",
      "cumulativeGasUsed": "0x4ac1d8",
      "logs": [
        {
          "address": "0x8ce90712463c87a6d62941d67c3507d090ea9d79",
          "topics": [
            "0xf0ebe84ab70abb64a93861570163972d8d4182d154513433b5adf6441cb997d0",
            "0x0000000000000000000000000000000000000000000000000000000000000014",
            "0x0000000000000000000000009ba183d182e1423ad9316dbc3eb1f0010ebf4bb7",
            "0x000000000000000000000000000000000000000000000000000000000000022b"
          ],
          "data": "0x000000000000000000000000000000000000000000000000000000000000000a0000000000000000000000000000000000000000000000000001c6bf5263400000000000000000000000000000000000000000000000000000000000000003e8000000000000000000000000e8df60a93b2b328397a8cbf73f0d732aaa11e33d00000000000000000000000000000000000000000000000000000000000000000000000000000000000000000000000000000000000000000000000000000001000000000000000000000000000000000000000000000000000000000000000000000000000000000000000000000000000000000000000000000000000000000000000000000000000000000000000000000000000000000000000000000000",
          "blockHash": "0xf3286d07c0aaddccd1990a659b621eaf278c94021e5dffe2cb5928dfdaa8c55e",
          "blockNumber": "0x905cce",
          "blockTimestamp": "0x68f7de6c",
          "transactionHash": "0x7428655ce9080a3ed61f196af9433bf42b452b9a2b2090a62a760da03b9e647c",
          "transactionIndex": "0x3d",
          "logIndex": "0x46",
          "removed": false
        }
      ],
      "logsBloom": "0x00000000000000000000000000000000000000000000000000000000000000000000000000000000000000000000000000082000000080000000000000000002000000000000000000000000000004000000020000000000000000000000000000000000000000000000000000000000000001000000000000000000000000000000000000000000000000000000000000000000000400000000000000000000000000000000000020040000000000000000000000008000000000000000000000000000010000000000000040000000000000000000000000000000000800000000000000000001000000000000000000000000000000000000000000000000",
      "type": "0x2",
      "transactionHash": "0x7428655ce9080a3ed61f196af9433bf42b452b9a2b2090a62a760da03b9e647c",
      "transactionIndex": "0x3d",
      "blockHash": "0xf3286d07c0aaddccd1990a659b621eaf278c94021e5dffe2cb5928dfdaa8c55e",
      "blockNumber": "0x905cce",
      "gasUsed": "0x39a6c",
      "effectiveGasPrice": "0xf424c",
      "from": "0xe8df60a93b2b328397a8cbf73f0d732aaa11e33d",
      "to": "0x8ce90712463c87a6d62941d67c3507d090ea9d79",
      "contractAddress": null
    },
    {
      "status": "0x1",
      "cumulativeGasUsed": "0x99a1a8",
      "logs": [
        {
          "address": "0x8ce90712463c87a6d62941d67c3507d090ea9d79",
          "topics": [
            "0xf29ea8cf6560754479a8e1315af36da0b36abd368847025746c28e718b7d11ca",
            "0x0000000000000000000000000000000000000000000000000000000000000014",
            "0x0000000000000000000000009ba183d182e1423ad9316dbc3eb1f0010ebf4bb7",
            "0x000000000000000000000000000000000000000000000000000000000000022b"
          ],
          "data": "0x000000000000000000000000000000000000000000000000000000000000000300000000000000000000000000000000000000000000000000000000000000010000000000000000000000000000000000000000000000000000886c98b7600000000000000000000000000000000000000000000000000000000000000003e8000000000000000000000000e8df60a93b2b328397a8cbf73f0d732aaa11e33d0000000000000000000000008a200122f666af83af2d4f425ac7a35fa5491ca7000000000000000000000000000000000000000000000000000000000000000000000000000000000000000000000000000000000000000000000000000000000000000000000000000000000000000000000000000000000000000000000000",
          "blockHash": "0xa92146da1b279259d5ce2f3e32417276a2e09c20ff2c340b4634242c4ab6abac",
          "blockNumber": "0x905ccf",
          "blockTimestamp": "0x68f7de78",
          "transactionHash": "0x8382f03bc9c73dc8aab7b9c9cf8fee6d01b70fa67a94a2600cc5d333958c1df1",
          "transactionIndex": "0x3d",
          "logIndex": "0x59",
          "removed": false
        }
      ],
      "logsBloom": "0x0000000000000000000000000000000000000000000000000000000000000000000000000000000000000000000000000008a000000080000000000000000002000000000000000000000000000004000000020000000000000000000000000000000000020000000000000000000000000001800000000000000000000000000000000000000000000000000000000000000000000400000000000000000000000000000000000020000000000000000000000000008000000000000000000000000000010000000000000040000000000000000000000000000000000000000000000000000000000000000000000000000000000000000000000000000000",
      "type": "0x2",
      "transactionHash": "0x8382f03bc9c73dc8aab7b9c9cf8fee6d01b70fa67a94a2600cc5d333958c1df1",
      "transactionIndex": "0x3d",
      "blockHash": "0xa92146da1b279259d5ce2f3e32417276a2e09c20ff2c340b4634242c4ab6abac",
      "blockNumber": "0x905ccf",
      "gasUsed": "0x1a7ab",
      "effectiveGasPrice": "0xf424d",
      "from": "0x8a200122f666af83af2d4f425ac7a35fa5491ca7",
      "to": "0x8ce90712463c87a6d62941d67c3507d090ea9d79",
      "contractAddress": null
    },
    {
      "status": "0x1",
      "cumulativeGasUsed": "0x526cee",
      "logs": [
        {
          "address": "0x8ce90712463c87a6d62941d67c3507d090ea9d79",
          "topics": [
            "0xf29ea8cf6560754479a8e1315af36da0b36abd368847025746c28e718b7d11ca",
            "0x0000000000000000000000000000000000000000000000000000000000000014",
            "0x0000000000000000000000009ba183d182e1423ad9316dbc3eb1f0010ebf4bb7",
            "0x000000000000000000000000000000000000000000000000000000000000022b"
          ],
          "data": "0x0000000000000000000000000000000000000000000000000000000000000007000000000000000000000000000000000000000000000000000000000000000000000000000000000000000000000000000000000000000000013e52b9abe00000000000000000000000000000000000000000000000000000000000000003e8000000000000000000000000e8df60a93b2b328397a8cbf73f0d732aaa11e33d0000000000000000000000008a200122f666af83af2d4f425ac7a35fa5491ca7000000000000000000000000000000000000000000000000000000000000000000000000000000000000000000000000000000000000000000000000000000000000000000000000000000000000000000000000000000000000000000000000",
          "blockHash": "0x685acb7d19d05bf96bad271338e6b4e731465a122e29c23fd8ebe4dde8be96e3",
          "blockNumber": "0x905cd0",
          "blockTimestamp": "0x68f7de84",
          "transactionHash": "0x0531e00fd174fd4656eeeae79b6493693f8451da4131230d47606e6bc45ca025",
          "transactionIndex": "0x3e",
          "logIndex": "0x4f",
          "removed": false
        }
      ],
      "logsBloom": "0x0000000000000000000000000000000000000000000000000000000000000000000000000000000000000000000000000008a000000080000000000000000002000000000000000000000000000004000000020000000000000000000000000000000000020000000000000000000000000001800000000000000000000000000000000000000000000000000000000000000000000400000000000000000000000000000000000020000000000000000000000000008000000000000000000000000000010000000000000040000000000000000000000000000000000000000000000000000000000000000000000000000000000000000000000000000000",
      "type": "0x2",
      "transactionHash": "0x0531e00fd174fd4656eeeae79b6493693f8451da4131230d47606e6bc45ca025",
      "transactionIndex": "0x3e",
      "blockHash": "0x685acb7d19d05bf96bad271338e6b4e731465a122e29c23fd8ebe4dde8be96e3",
      "blockNumber": "0x905cd0",
      "gasUsed": "0x16fd4",
      "effectiveGasPrice": "0xf424d",
      "from": "0x8a200122f666af83af2d4f425ac7a35fa5491ca7",
      "to": "0x8ce90712463c87a6d62941d67c3507d090ea9d79",
      "contractAddress": null
    },
    {
      "status": "0x1",
      "cumulativeGasUsed": "0x5236cd",
      "logs": [],
      "logsBloom": "0x00000000000000000000000000000000000000000000000000000000000000000000000000000000000000000000000000000000000000000000000000000000000000000000000000000000000000000000000000000000000000000000000000000000000000000000000000000000000000000000000000000000000000000000000000000000000000000000000000000000000000000000000000000000000000000000000000000000000000000000000000000000000000000000000000000000000000000000000000000000000000000000000000000000000000000000000000000000000000000000000000000000000000000000000000000000",
      "type": "0x2",
      "transactionHash": "0xde1c8243670bbb0d2f59bfd26d8afd21868c4b1424f994c069475b5198d226c3",
      "transactionIndex": "0x38",
      "blockHash": "0x08387be8a4022d2fb9d927f1007c4e62b18b1e1ac5b5db014cdb94e4d45d6094",
      "blockNumber": "0x905cd1",
      "gasUsed": "0xb288",
      "effectiveGasPrice": "0xf424e",
      "from": "0x8a200122f666af83af2d4f425ac7a35fa5491ca7",
      "to": "0x9ba183d182e1423ad9316dbc3eb1f0010ebf4bb7",
      "contractAddress": null
    }
  ],
  "libraries": [],
  "pending": [],
  "returns": {},
  "timestamp": 1761074833,
  "chain": 11155111,
  "commit": "dc8e79f"
}