{
  "transactions": [
    {
      "hash": "0xfaf53250c5262a50803df943156f6c4883df1097bcb282716d197d4ec79cb90e",
      "transactionType": "CREATE",
      "contractName": "VersionFacet",
      "contractAddress": "0x0d1dc11533788f00c3c9ebfd25a575c235b86080",
      "function": null,
      "arguments": null,
      "transaction": {
        "from": "0xe8df60a93b2b328397a8cbf73f0d732aaa11e33d",
        "gas": "0x37562",
        "value": "0x0",
        "input": "0x60808060405234601557610233908161001b8239f35b600080fdfe608080604052600436101561001357600080fd5b60003560e01c908163bcf81d81146101a5575063d5f6c12c1461003557600080fd5b346101a05760207ffffffffffffffffffffffffffffffffffffffffffffffffffffffffffffffffc3601126101a05760043573ffffffffffffffffffffffffffffffffffffffff7fc8fcad8db84d3cc18b4c41d551ea0ee66dd599cde068d998e57d5e09332c13205416330361011c5760407faffb4b554f7241491c148e4cda65b34ff60f7dba5262c5ec4700974b72c2d282917f2ad3e90873cbe86f6a024e2d91b7abbabc6ce35c355c15912cb7d7df99da23635490807f2ad3e90873cbe86f6a024e2d91b7abbabc6ce35c355c15912cb7d7df99da23635582519182526020820152a1005b60846040517f08c379a000000000000000000000000000000000000000000000000000000000815260206004820152602260248201527f4c69624469616d6f6e643a204d75737420626520636f6e7472616374206f776e60448201527f65720000000000000000000000000000000000000000000000000000000000006064820152fd5b600080fd5b346101a05760007ffffffffffffffffffffffffffffffffffffffffffffffffffffffffffffffffc3601126101a0576020907f2ad3e90873cbe86f6a024e2d91b7abbabc6ce35c355c15912cb7d7df99da2363548152f3fea2646970667358221220958deefbf2a4c8c9d868307df4eb78ef8fa75586181a8ea7b313361a45d0f35c64736f6c634300081c0033",
        "nonce": "0x36b",
        "chainId": "0xaa36a7"
      },
      "additionalContracts": [],
      "isFixedGasLimit": false
    },
    {
      "hash": "0xd10e387c8a58a71092a8fbb31c010791bc0883d5e2f6fe64c7e80b4e1d7cd5de",
      "transactionType": "CREATE",
      "contractName": "VersionInit",
      "contractAddress": "0xa51b895505e97d085bac95aba87d212906b4f4de",
      "function": null,
      "arguments": null,
      "transaction": {
        "from": "0xe8df60a93b2b328397a8cbf73f0d732aaa11e33d",
        "gas": "0x1cf1c",
        "value": "0x0",
        "input": "0x6080806040523460135760af908160198239f35b600080fdfe6004361015600c57600080fd5b60003560e01c63b7b0422d14602057600080fd5b3460745760207ffffffffffffffffffffffffffffffffffffffffffffffffffffffffffffffffc3601126074576004357f2ad3e90873cbe86f6a024e2d91b7abbabc6ce35c355c15912cb7d7df99da236355005b600080fdfea2646970667358221220a03e90b015fb5efcc3160ae1c37874239d15907e33a667d7264f2562994b105c64736f6c634300081c0033",
        "nonce": "0x36c",
        "chainId": "0xaa36a7"
      },
      "additionalContracts": [],
      "isFixedGasLimit": false
    },
    {
      "hash": "0x28343de400e3e6dac1377a2a43491c0a459bfea20f954f1247b4c4a2e68874ff",
      "transactionType": "CALL",
      "contractName": null,
      "contractAddress": "0x8ce90712463c87a6d62941d67c3507d090ea9d79",
      "function": "diamondCut((address,uint8,bytes4[])[],address,bytes)",
      "arguments": [
        "[(0x0d1DC11533788f00C3C9Ebfd25A575c235b86080, 0, [0xd5f6c12c, 0xbcf81d81])]",
        "0xa51B895505E97d085BAc95Aba87d212906b4f4De",
        "0xb7b0422d0000000000000000000000000000000000000000000000000000000000000001"
      ],
      "transaction": {
        "from": "0xe8df60a93b2b328397a8cbf73f0d732aaa11e33d",
        "to": "0x8ce90712463c87a6d62941d67c3507d090ea9d79",
        "gas": "0x4638b",
        "value": "0x0",
        "input": "0x1f931c1c0000000000000000000000000000000000000000000000000000000000000060000000000000000000000000a51b895505e97d085bac95aba87d212906b4f4de0000000000000000000000000000000000000000000000000000000000000160000000000000000000000000000000000000000000000000000000000000000100000000000000000000000000000000000000000000000000000000000000200000000000000000000000000d1dc11533788f00c3c9ebfd25a575c235b86080000000000000000000000000000000000000000000000000000000000000000000000000000000000000000000000000000000000000000000000000000000600000000000000000000000000000000000000000000000000000000000000002d5f6c12c00000000000000000000000000000000000000000000000000000000bcf81d81000000000000000000000000000000000000000000000000000000000000000000000000000000000000000000000000000000000000000000000024b7b0422d000000000000000000000000000000000000000000000000000000000000000100000000000000000000000000000000000000000000000000000000",
        "nonce": "0x36d",
        "chainId": "0xaa36a7"
      },
      "additionalContracts": [],
      "isFixedGasLimit": false
    }
  ],
  "receipts": [
    {
      "status": "0x1",
      "cumulativeGasUsed": "0xf8506b",
      "logs": [],
      "logsBloom": "0x00000000000000000000000000000000000000000000000000000000000000000000000000000000000000000000000000000000000000000000000000000000000000000000000000000000000000000000000000000000000000000000000000000000000000000000000000000000000000000000000000000000000000000000000000000000000000000000000000000000000000000000000000000000000000000000000000000000000000000000000000000000000000000000000000000000000000000000000000000000000000000000000000000000000000000000000000000000000000000000000000000000000000000000000000000000",
      "type": "0x2",
      "transactionHash": "0xfaf53250c5262a50803df943156f6c4883df1097bcb282716d197d4ec79cb90e",
      "transactionIndex": "0x42",
      "blockHash": "0x2c84a52253af599db44e62eece811f58d29599544442701628a129fda6e5b815",
      "blockNumber": "0x9080d5",
      "gasUsed": "0x2a937",
      "effectiveGasPrice": "0xf4249",
      "from": "0xe8df60a93b2b328397a8cbf73f0d732aaa11e33d",
      "to": null,
      "contractAddress": "0x0d1dc11533788f00c3c9ebfd25a575c235b86080"
    },
    {
      "status": "0x1",
      "cumulativeGasUsed": "0x107e36a",
      "logs": [],
      "logsBloom": "0x00000000000000000000000000000000000000000000000000000000000000000000000000000000000000000000000000000000000000000000000000000000000000000000000000000000000000000000000000000000000000000000000000000000000000000000000000000000000000000000000000000000000000000000000000000000000000000000000000000000000000000000000000000000000000000000000000000000000000000000000000000000000000000000000000000000000000000000000000000000000000000000000000000000000000000000000000000000000000000000000000000000000000000000000000000000",
      "type": "0x2",
      "transactionHash": "0xd10e387c8a58a71092a8fbb31c010791bc0883d5e2f6fe64c7e80b4e1d7cd5de",
      "transactionIndex": "0x4b",
      "blockHash": "0x2c84a52253af599db44e62eece811f58d29599544442701628a129fda6e5b815",
      "blockNumber": "0x9080d5",
      "gasUsed": "0x1644b",
      "effectiveGasPrice": "0xf4249",
      "from": "0xe8df60a93b2b328397a8cbf73f0d732aaa11e33d",
      "to": null,
      "contractAddress": "0xa51b895505e97d085bac95aba87d212906b4f4de"
    },
    {
      "status": "0x1",
      "cumulativeGasUsed": "0x10b10d8",
      "logs": [
        {
          "address": "0x8ce90712463c87a6d62941d67c3507d090ea9d79",
          "topics": [
            "0x8faa70878671ccd212d20771b795c50af8fd3ff6cf27f4bde57e5d4de0aeb673"
          ],
          "data": "0x0000000000000000000000000000000000000000000000000000000000000060000000000000000000000000a51b895505e97d085bac95aba87d212906b4f4de0000000000000000000000000000000000000000000000000000000000000160000000000000000000000000000000000000000000000000000000000000000100000000000000000000000000000000000000000000000000000000000000200000000000000000000000000d1dc11533788f00c3c9ebfd25a575c235b86080000000000000000000000000000000000000000000000000000000000000000000000000000000000000000000000000000000000000000000000000000000600000000000000000000000000000000000000000000000000000000000000002d5f6c12c00000000000000000000000000000000000000000000000000000000bcf81d81000000000000000000000000000000000000000000000000000000000000000000000000000000000000000000000000000000000000000000000024b7b0422d000000000000000000000000000000000000000000000000000000000000000100000000000000000000000000000000000000000000000000000000",
          "blockHash": "0x2c84a52253af599db44e62eece811f58d29599544442701628a129fda6e5b815",
          "blockNumber": "0x9080d5",
          "blockTimestamp": "0x68f99c10",
          "transactionHash": "0x28343de400e3e6dac1377a2a43491c0a459bfea20f954f1247b4c4a2e68874ff",
          "transactionIndex": "0x4c",
          "logIndex": "0xa8",
          "removed": false
        }
      ],
      "logsBloom": "0x00000000000000000000000000000000000000000000000000000000000000000000000000000000000000000000000000080000000000000000000000000002000000000000000000000000000000000000000001000000000800000000000000000000000000000000000000000000000000000000000000000000000000000020000000000000000000000000000000000000000000000000000000000000000000000000000000000000000000000000000000000000000000000000000000000000010000000000000000000000000000000000000000000000000000000000000000000000000000000000000000000000000000000000000000000000",
      "type": "0x2",
      "transactionHash": "0x28343de400e3e6dac1377a2a43491c0a459bfea20f954f1247b4c4a2e68874ff",
      "transactionIndex": "0x4c",
      "blockHash": "0x2c84a52253af599db44e62eece811f58d29599544442701628a129fda6e5b815",
      "blockNumber": "0x9080d5",
      "gasUsed": "0x32d6e",
      "effectiveGasPrice": "0xf4249",
      "from": "0xe8df60a93b2b328397a8cbf73f0d732aaa11e33d",
      "to": "0x8ce90712463c87a6d62941d67c3507d090ea9d79",
      "contractAddress": null
    }
  ],
  "libraries": [],
  "pending": [],
  "returns": {},
  "timestamp": 1761188885,
  "chain": 11155111,
  "commit": "e019610"
}