{
  "transactions": [
    {
      "hash": "0x0b0e877bad4a281686004dd0eddb07ddb5564588d871171d57ee403e5800f432",
      "transactionType": "CREATE",
      "contractName": "MockERC20_18",
      "contractAddress": "0xc740ee33a12c21fa7f3cdd426d6051e16eab456e",
      "function": null,
      "arguments": null,
      "transaction": {
        "from": "0xe8df60a93b2b328397a8cbf73f0d732aaa11e33d",
        "gas": "0xbfbaa",
        "value": "0x0",
        "input": "0x60a06040523461033b57604080519081016001600160401b03811182821017610246576040908152600d82526c09adec6d6408aa486646040627609b1b602083015280519081016001600160401b0381118282101761024657604052600681526506d45524332360d41b602082015281516001600160401b03811161024657600354600181811c91168015610331575b602082101461022657601f81116102cc575b50602092601f8211600114610267579281929360009261025c575b50508160011b916000199060031b1c1916176003555b80516001600160401b03811161024657600454600181811c9116801561023c575b602082101461022657601f81116101c1575b50602091601f821160011461015d57918192600092610152575b50508160011b916000199060031b1c1916176004555b60126080526040516108fd90816103418239608051816104040152f35b01519050388061011f565b601f198216926004600052806000209160005b8581106101a957508360019510610190575b505050811b01600455610135565b015160001960f88460031b161c19169055388080610182565b91926020600181928685015181550194019201610170565b60046000527f8a35acfbc15ff81a39ae7d344fd709f28e8600b4aa8c65c6b64bfe7fe36bd19b601f830160051c8101916020841061021c575b601f0160051c01905b8181106102105750610105565b60008155600101610203565b90915081906101fa565b634e487b7160e01b600052602260045260246000fd5b90607f16906100f3565b634e487b7160e01b600052604160045260246000fd5b0151905038806100bc565b601f198216936003600052806000209160005b8681106102b4575083600195961061029b575b505050811b016003556100d2565b015160001960f88460031b161c1916905538808061028d565b9192602060018192868501518155019401920161027a565b60036000527fc2575a0e9e593c00f959f8c92f12db2869c3395a3b0502d05e2516446f71f85b601f830160051c81019160208410610327575b601f0160051c01905b81811061031b57506100a1565b6000815560010161030e565b9091508190610305565b90607f169061008f565b600080fdfe608080604052600436101561001357600080fd5b60003560e01c90816306fdde031461065f57508063095ea7b3146105cc57806318160ddd146105ae57806323b872dd14610428578063313ce567146103ea57806340c10f19146102ff57806370a08231146102b857806395d89b4114610135578063a9059cbb146101045763dd62ed3e1461008d57600080fd5b346100ff5760406003193601126100ff576100a6610786565b73ffffffffffffffffffffffffffffffffffffffff6100c36107a9565b9116600052600160205273ffffffffffffffffffffffffffffffffffffffff604060002091166000526020526020604060002054604051908152f35b600080fd5b346100ff5760406003193601126100ff5761012a610120610786565b60243590336107cc565b602060405160018152f35b346100ff5760006003193601126100ff57604051600090600454918260011c600184169384156102ae575b602082108514610281578394828552908160001461023f57506001146101e2575b5003601f01601f191681019067ffffffffffffffff8211818310176101b3576101af8291826040528261073c565b0390f35b7f4e487b7100000000000000000000000000000000000000000000000000000000600052604160045260246000fd5b6004600090815291507f8a35acfbc15ff81a39ae7d344fd709f28e8600b4aa8c65c6b64bfe7fe36bd19b5b8183106102235750508101602001601f19610181565b602091935080600191548385880101520191019091839261020d565b7fffffffffffffffffffffffffffffffffffffffffffffffffffffffffffffff001660208581019190915291151560051b84019091019150601f199050610181565b6024837f4e487b710000000000000000000000000000000000000000000000000000000081526022600452fd5b90607f1690610160565b346100ff5760206003193601126100ff5773ffffffffffffffffffffffffffffffffffffffff6102e6610786565b1660005260006020526020604060002054604051908152f35b346100ff5760406003193601126100ff57610318610786565b73ffffffffffffffffffffffffffffffffffffffff602435911680156103bb576002549180830180931161038c576020926002557fddf252ad1be2c89b69c2b068fc378daa952ba7f163c4a11628f55a4df523b3ef600093849284845283825260408420818154019055604051908152a380f35b7f4e487b7100000000000000000000000000000000000000000000000000000000600052601160045260246000fd5b7fec442f0500000000000000000000000000000000000000000000000000000000600052600060045260246000fd5b346100ff5760006003193601126100ff57602060405160ff7f0000000000000000000000000000000000000000000000000000000000000000168152f35b346100ff5760606003193601126100ff57610441610786565b6104496107a9565b6044359073ffffffffffffffffffffffffffffffffffffffff831692836000526001602052604060002073ffffffffffffffffffffffffffffffffffffffff33166000526020526040600020547fffffffffffffffffffffffffffffffffffffffffffffffffffffffffffffffff81036104c9575b5061012a93506107cc565b83811061057857841561054957331561051a5761012a946000526001602052604060002073ffffffffffffffffffffffffffffffffffffffff331660005260205283604060002091039055846104be565b7f94280d6200000000000000000000000000000000000000000000000000000000600052600060045260246000fd5b7fe602df0500000000000000000000000000000000000000000000000000000000600052600060045260246000fd5b83907ffb8f41b2000000000000000000000000000000000000000000000000000000006000523360045260245260445260646000fd5b346100ff5760006003193601126100ff576020600254604051908152f35b346100ff5760406003193601126100ff576105e5610786565b6024359033156105495773ffffffffffffffffffffffffffffffffffffffff1690811561051a57336000526001602052604060002082600052602052806040600020556040519081527f8c5be1e5ebec7d5bd14f71427d1e84f3dd0314c0f7b2291e5b200ac8c7c3b92560203392a3602060405160018152f35b346100ff5760006003193601126100ff57600090600354918260011c60018416938415610732575b602082108514610281578394828552908160001461023f57506001146106d5575003601f01601f191681019067ffffffffffffffff8211818310176101b3576101af8291826040528261073c565b6003600090815291507fc2575a0e9e593c00f959f8c92f12db2869c3395a3b0502d05e2516446f71f85b5b8183106107165750508101602001601f19610181565b6020919350806001915483858801015201910190918392610700565b90607f1690610687565b9190916020815282519283602083015260005b848110610770575050601f19601f8460006040809697860101520116010190565b806020809284010151604082860101520161074f565b6004359073ffffffffffffffffffffffffffffffffffffffff821682036100ff57565b6024359073ffffffffffffffffffffffffffffffffffffffff821682036100ff57565b73ffffffffffffffffffffffffffffffffffffffff169081156108985773ffffffffffffffffffffffffffffffffffffffff169182156103bb5760008281528060205260408120548281106108655791604082827fddf252ad1be2c89b69c2b068fc378daa952ba7f163c4a11628f55a4df523b3ef958760209652828652038282205586815280845220818154019055604051908152a3565b6064937fe450d38c0000000000000000000000000000000000000000000000000000000083949352600452602452604452fd5b7f96c6fd1e00000000000000000000000000000000000000000000000000000000600052600060045260246000fdfea2646970667358221220616bcd31caee54d4bfb103156c43c58abded812f5a640175f8b1df2c1ff8e83064736f6c634300081c0033",
        "nonce": "0x3a6",
        "chainId": "0xaa36a7"
      },
      "additionalContracts": [],
      "isFixedGasLimit": false
    },
    {
      "hash": "0x450cd1ffa57aec0de41f713b5ef9cd6f52289a50d55709386bd5d64f8adfa807",
      "transactionType": "CREATE",
      "contractName": "MockUSDC_6",
      "contractAddress": "0xeaefa01b8c4c8126226a8b2da2cf6eb0e5b0bd26",
      "function": null,
      "arguments": null,
      "transaction": {
        "from": "0xe8df60a93b2b328397a8cbf73f0d732aaa11e33d",
        "gas": "0xbfb23",
        "value": "0x0",
        "input": "0x60a06040523461033657604080519081016001600160401b0381118282101761024157604090815260098252684d6f636b205553444360b81b602083015280519081016001600160401b038111828210176102415760405260058152646d5553444360d81b602082015281516001600160401b03811161024157600354600181811c9116801561032c575b602082101461022157601f81116102c7575b50602092601f82116001146102625792819293600092610257575b50508160011b916000199060031b1c1916176003555b80516001600160401b03811161024157600454600181811c91168015610237575b602082101461022157601f81116101bc575b50602091601f82116001146101585791819260009261014d575b50508160011b916000199060031b1c1916176004555b60066080526040516108fd908161033c8239608051816104040152f35b01519050388061011a565b601f198216926004600052806000209160005b8581106101a45750836001951061018b575b505050811b01600455610130565b015160001960f88460031b161c1916905538808061017d565b9192602060018192868501518155019401920161016b565b60046000527f8a35acfbc15ff81a39ae7d344fd709f28e8600b4aa8c65c6b64bfe7fe36bd19b601f830160051c81019160208410610217575b601f0160051c01905b81811061020b5750610100565b600081556001016101fe565b90915081906101f5565b634e487b7160e01b600052602260045260246000fd5b90607f16906100ee565b634e487b7160e01b600052604160045260246000fd5b0151905038806100b7565b601f198216936003600052806000209160005b8681106102af5750836001959610610296575b505050811b016003556100cd565b015160001960f88460031b161c19169055388080610288565b91926020600181928685015181550194019201610275565b60036000527fc2575a0e9e593c00f959f8c92f12db2869c3395a3b0502d05e2516446f71f85b601f830160051c81019160208410610322575b601f0160051c01905b818110610316575061009c565b60008155600101610309565b9091508190610300565b90607f169061008a565b600080fdfe608080604052600436101561001357600080fd5b60003560e01c90816306fdde031461065f57508063095ea7b3146105cc57806318160ddd146105ae57806323b872dd14610428578063313ce567146103ea57806340c10f19146102ff57806370a08231146102b857806395d89b4114610135578063a9059cbb146101045763dd62ed3e1461008d57600080fd5b346100ff5760406003193601126100ff576100a6610786565b73ffffffffffffffffffffffffffffffffffffffff6100c36107a9565b9116600052600160205273ffffffffffffffffffffffffffffffffffffffff604060002091166000526020526020604060002054604051908152f35b600080fd5b346100ff5760406003193601126100ff5761012a610120610786565b60243590336107cc565b602060405160018152f35b346100ff5760006003193601126100ff57604051600090600454918260011c600184169384156102ae575b602082108514610281578394828552908160001461023f57506001146101e2575b5003601f01601f191681019067ffffffffffffffff8211818310176101b3576101af8291826040528261073c565b0390f35b7f4e487b7100000000000000000000000000000000000000000000000000000000600052604160045260246000fd5b6004600090815291507f8a35acfbc15ff81a39ae7d344fd709f28e8600b4aa8c65c6b64bfe7fe36bd19b5b8183106102235750508101602001601f19610181565b602091935080600191548385880101520191019091839261020d565b7fffffffffffffffffffffffffffffffffffffffffffffffffffffffffffffff001660208581019190915291151560051b84019091019150601f199050610181565b6024837f4e487b710000000000000000000000000000000000000000000000000000000081526022600452fd5b90607f1690610160565b346100ff5760206003193601126100ff5773ffffffffffffffffffffffffffffffffffffffff6102e6610786565b1660005260006020526020604060002054604051908152f35b346100ff5760406003193601126100ff57610318610786565b73ffffffffffffffffffffffffffffffffffffffff602435911680156103bb576002549180830180931161038c576020926002557fddf252ad1be2c89b69c2b068fc378daa952ba7f163c4a11628f55a4df523b3ef600093849284845283825260408420818154019055604051908152a380f35b7f4e487b7100000000000000000000000000000000000000000000000000000000600052601160045260246000fd5b7fec442f0500000000000000000000000000000000000000000000000000000000600052600060045260246000fd5b346100ff5760006003193601126100ff57602060405160ff7f0000000000000000000000000000000000000000000000000000000000000000168152f35b346100ff5760606003193601126100ff57610441610786565b6104496107a9565b6044359073ffffffffffffffffffffffffffffffffffffffff831692836000526001602052604060002073ffffffffffffffffffffffffffffffffffffffff33166000526020526040600020547fffffffffffffffffffffffffffffffffffffffffffffffffffffffffffffffff81036104c9575b5061012a93506107cc565b83811061057857841561054957331561051a5761012a946000526001602052604060002073ffffffffffffffffffffffffffffffffffffffff331660005260205283604060002091039055846104be565b7f94280d6200000000000000000000000000000000000000000000000000000000600052600060045260246000fd5b7fe602df0500000000000000000000000000000000000000000000000000000000600052600060045260246000fd5b83907ffb8f41b2000000000000000000000000000000000000000000000000000000006000523360045260245260445260646000fd5b346100ff5760006003193601126100ff576020600254604051908152f35b346100ff5760406003193601126100ff576105e5610786565b6024359033156105495773ffffffffffffffffffffffffffffffffffffffff1690811561051a57336000526001602052604060002082600052602052806040600020556040519081527f8c5be1e5ebec7d5bd14f71427d1e84f3dd0314c0f7b2291e5b200ac8c7c3b92560203392a3602060405160018152f35b346100ff5760006003193601126100ff57600090600354918260011c60018416938415610732575b602082108514610281578394828552908160001461023f57506001146106d5575003601f01601f191681019067ffffffffffffffff8211818310176101b3576101af8291826040528261073c565b6003600090815291507fc2575a0e9e593c00f959f8c92f12db2869c3395a3b0502d05e2516446f71f85b5b8183106107165750508101602001601f19610181565b6020919350806001915483858801015201910190918392610700565b90607f1690610687565b9190916020815282519283602083015260005b848110610770575050601f19601f8460006040809697860101520116010190565b806020809284010151604082860101520161074f565b6004359073ffffffffffffffffffffffffffffffffffffffff821682036100ff57565b6024359073ffffffffffffffffffffffffffffffffffffffff821682036100ff57565b73ffffffffffffffffffffffffffffffffffffffff169081156108985773ffffffffffffffffffffffffffffffffffffffff169182156103bb5760008281528060205260408120548281106108655791604082827fddf252ad1be2c89b69c2b068fc378daa952ba7f163c4a11628f55a4df523b3ef958760209652828652038282205586815280845220818154019055604051908152a3565b6064937fe450d38c0000000000000000000000000000000000000000000000000000000083949352600452602452604452fd5b7f96c6fd1e00000000000000000000000000000000000000000000000000000000600052600060045260246000fdfea26469706673582212204dd16fd3c53985b19c4b55960e2e37a979335ee307a4419e3468bdb680748b4a64736f6c634300081c0033",
        "nonce": "0x3a7",
        "chainId": "0xaa36a7"
      },
      "additionalContracts": [],
      "isFixedGasLimit": false
    },
    {
      "hash": "0x3db16d35caed2cb18c78d3317bc999d28c29cc61f36559f7719a1963511f2afb",
      "transactionType": "CREATE",
      "contractName": "MockWBTC_8",
      "contractAddress": "0xb1a8786fd1bbdb7f56f8cea78a77897a0aa9fab2",
      "function": null,
      "arguments": null,
      "transaction": {
        "from": "0xe8df60a93b2b328397a8cbf73f0d732aaa11e33d",
        "gas": "0xbfb23",
        "value": "0x0",
        "input": "0x60a06040523461033657604080519081016001600160401b0381118282101761024157604090815260098252684d6f636b205742544360b81b602083015280519081016001600160401b038111828210176102415760405260058152646d5742544360d81b602082015281516001600160401b03811161024157600354600181811c9116801561032c575b602082101461022157601f81116102c7575b50602092601f82116001146102625792819293600092610257575b50508160011b916000199060031b1c1916176003555b80516001600160401b03811161024157600454600181811c91168015610237575b602082101461022157601f81116101bc575b50602091601f82116001146101585791819260009261014d575b50508160011b916000199060031b1c1916176004555b60086080526040516108fd908161033c8239608051816104040152f35b01519050388061011a565b601f198216926004600052806000209160005b8581106101a45750836001951061018b575b505050811b01600455610130565b015160001960f88460031b161c1916905538808061017d565b9192602060018192868501518155019401920161016b565b60046000527f8a35acfbc15ff81a39ae7d344fd709f28e8600b4aa8c65c6b64bfe7fe36bd19b601f830160051c81019160208410610217575b601f0160051c01905b81811061020b5750610100565b600081556001016101fe565b90915081906101f5565b634e487b7160e01b600052602260045260246000fd5b90607f16906100ee565b634e487b7160e01b600052604160045260246000fd5b0151905038806100b7565b601f198216936003600052806000209160005b8681106102af5750836001959610610296575b505050811b016003556100cd565b015160001960f88460031b161c19169055388080610288565b91926020600181928685015181550194019201610275565b60036000527fc2575a0e9e593c00f959f8c92f12db2869c3395a3b0502d05e2516446f71f85b601f830160051c81019160208410610322575b601f0160051c01905b818110610316575061009c565b60008155600101610309565b9091508190610300565b90607f169061008a565b600080fdfe608080604052600436101561001357600080fd5b60003560e01c90816306fdde031461065f57508063095ea7b3146105cc57806318160ddd146105ae57806323b872dd14610428578063313ce567146103ea57806340c10f19146102ff57806370a08231146102b857806395d89b4114610135578063a9059cbb146101045763dd62ed3e1461008d57600080fd5b346100ff5760406003193601126100ff576100a6610786565b73ffffffffffffffffffffffffffffffffffffffff6100c36107a9565b9116600052600160205273ffffffffffffffffffffffffffffffffffffffff604060002091166000526020526020604060002054604051908152f35b600080fd5b346100ff5760406003193601126100ff5761012a610120610786565b60243590336107cc565b602060405160018152f35b346100ff5760006003193601126100ff57604051600090600454918260011c600184169384156102ae575b602082108514610281578394828552908160001461023f57506001146101e2575b5003601f01601f191681019067ffffffffffffffff8211818310176101b3576101af8291826040528261073c565b0390f35b7f4e487b7100000000000000000000000000000000000000000000000000000000600052604160045260246000fd5b6004600090815291507f8a35acfbc15ff81a39ae7d344fd709f28e8600b4aa8c65c6b64bfe7fe36bd19b5b8183106102235750508101602001601f19610181565b602091935080600191548385880101520191019091839261020d565b7fffffffffffffffffffffffffffffffffffffffffffffffffffffffffffffff001660208581019190915291151560051b84019091019150601f199050610181565b6024837f4e487b710000000000000000000000000000000000000000000000000000000081526022600452fd5b90607f1690610160565b346100ff5760206003193601126100ff5773ffffffffffffffffffffffffffffffffffffffff6102e6610786565b1660005260006020526020604060002054604051908152f35b346100ff5760406003193601126100ff57610318610786565b73ffffffffffffffffffffffffffffffffffffffff602435911680156103bb576002549180830180931161038c576020926002557fddf252ad1be2c89b69c2b068fc378daa952ba7f163c4a11628f55a4df523b3ef600093849284845283825260408420818154019055604051908152a380f35b7f4e487b7100000000000000000000000000000000000000000000000000000000600052601160045260246000fd5b7fec442f0500000000000000000000000000000000000000000000000000000000600052600060045260246000fd5b346100ff5760006003193601126100ff57602060405160ff7f0000000000000000000000000000000000000000000000000000000000000000168152f35b346100ff5760606003193601126100ff57610441610786565b6104496107a9565b6044359073ffffffffffffffffffffffffffffffffffffffff831692836000526001602052604060002073ffffffffffffffffffffffffffffffffffffffff33166000526020526040600020547fffffffffffffffffffffffffffffffffffffffffffffffffffffffffffffffff81036104c9575b5061012a93506107cc565b83811061057857841561054957331561051a5761012a946000526001602052604060002073ffffffffffffffffffffffffffffffffffffffff331660005260205283604060002091039055846104be565b7f94280d6200000000000000000000000000000000000000000000000000000000600052600060045260246000fd5b7fe602df0500000000000000000000000000000000000000000000000000000000600052600060045260246000fd5b83907ffb8f41b2000000000000000000000000000000000000000000000000000000006000523360045260245260445260646000fd5b346100ff5760006003193601126100ff576020600254604051908152f35b346100ff5760406003193601126100ff576105e5610786565b6024359033156105495773ffffffffffffffffffffffffffffffffffffffff1690811561051a57336000526001602052604060002082600052602052806040600020556040519081527f8c5be1e5ebec7d5bd14f71427d1e84f3dd0314c0f7b2291e5b200ac8c7c3b92560203392a3602060405160018152f35b346100ff5760006003193601126100ff57600090600354918260011c60018416938415610732575b602082108514610281578394828552908160001461023f57506001146106d5575003601f01601f191681019067ffffffffffffffff8211818310176101b3576101af8291826040528261073c565b6003600090815291507fc2575a0e9e593c00f959f8c92f12db2869c3395a3b0502d05e2516446f71f85b5b8183106107165750508101602001601f19610181565b6020919350806001915483858801015201910190918392610700565b90607f1690610687565b9190916020815282519283602083015260005b848110610770575050601f19601f8460006040809697860101520116010190565b806020809284010151604082860101520161074f565b6004359073ffffffffffffffffffffffffffffffffffffffff821682036100ff57565b6024359073ffffffffffffffffffffffffffffffffffffffff821682036100ff57565b73ffffffffffffffffffffffffffffffffffffffff169081156108985773ffffffffffffffffffffffffffffffffffffffff169182156103bb5760008281528060205260408120548281106108655791604082827fddf252ad1be2c89b69c2b068fc378daa952ba7f163c4a11628f55a4df523b3ef958760209652828652038282205586815280845220818154019055604051908152a3565b6064937fe450d38c0000000000000000000000000000000000000000000000000000000083949352600452602452604452fd5b7f96c6fd1e00000000000000000000000000000000000000000000000000000000600052600060045260246000fdfea264697066735822122018dac3af1e1ee7be65d26afa2db1338f2239e4b2d506a8d496fbc8d90195654064736f6c634300081c0033",
        "nonce": "0x3a8",
        "chainId": "0xaa36a7"
      },
      "additionalContracts": [],
      "isFixedGasLimit": false
    },
    {
      "hash": "0xf4d5b659ec1421e23229f09ef1708bb8abd9850f80aa03991a710c431b1f8f3f",
      "transactionType": "CREATE",
      "contractName": "MockEURS_2",
      "contractAddress": "0xe06e78ab6314993fca9106536aecfe4284aa791a",
      "function": null,
      "arguments": null,
      "transaction": {
        "from": "0xe8df60a93b2b328397a8cbf73f0d732aaa11e33d",
        "gas": "0xbfb23",
        "value": "0x0",
        "input": "0x60a06040523461033657604080519081016001600160401b0381118282101761024157604090815260098252684d6f636b204555525360b81b602083015280519081016001600160401b038111828210176102415760405260058152646d4555525360d81b602082015281516001600160401b03811161024157600354600181811c9116801561032c575b602082101461022157601f81116102c7575b50602092601f82116001146102625792819293600092610257575b50508160011b916000199060031b1c1916176003555b80516001600160401b03811161024157600454600181811c91168015610237575b602082101461022157601f81116101bc575b50602091601f82116001146101585791819260009261014d575b50508160011b916000199060031b1c1916176004555b60026080526040516108fd908161033c8239608051816104040152f35b01519050388061011a565b601f198216926004600052806000209160005b8581106101a45750836001951061018b575b505050811b01600455610130565b015160001960f88460031b161c1916905538808061017d565b9192602060018192868501518155019401920161016b565b60046000527f8a35acfbc15ff81a39ae7d344fd709f28e8600b4aa8c65c6b64bfe7fe36bd19b601f830160051c81019160208410610217575b601f0160051c01905b81811061020b5750610100565b600081556001016101fe565b90915081906101f5565b634e487b7160e01b600052602260045260246000fd5b90607f16906100ee565b634e487b7160e01b600052604160045260246000fd5b0151905038806100b7565b601f198216936003600052806000209160005b8681106102af5750836001959610610296575b505050811b016003556100cd565b015160001960f88460031b161c19169055388080610288565b91926020600181928685015181550194019201610275565b60036000527fc2575a0e9e593c00f959f8c92f12db2869c3395a3b0502d05e2516446f71f85b601f830160051c81019160208410610322575b601f0160051c01905b818110610316575061009c565b60008155600101610309565b9091508190610300565b90607f169061008a565b600080fdfe608080604052600436101561001357600080fd5b60003560e01c90816306fdde031461065f57508063095ea7b3146105cc57806318160ddd146105ae57806323b872dd14610428578063313ce567146103ea57806340c10f19146102ff57806370a08231146102b857806395d89b4114610135578063a9059cbb146101045763dd62ed3e1461008d57600080fd5b346100ff5760406003193601126100ff576100a6610786565b73ffffffffffffffffffffffffffffffffffffffff6100c36107a9565b9116600052600160205273ffffffffffffffffffffffffffffffffffffffff604060002091166000526020526020604060002054604051908152f35b600080fd5b346100ff5760406003193601126100ff5761012a610120610786565b60243590336107cc565b602060405160018152f35b346100ff5760006003193601126100ff57604051600090600454918260011c600184169384156102ae575b602082108514610281578394828552908160001461023f57506001146101e2575b5003601f01601f191681019067ffffffffffffffff8211818310176101b3576101af8291826040528261073c565b0390f35b7f4e487b7100000000000000000000000000000000000000000000000000000000600052604160045260246000fd5b6004600090815291507f8a35acfbc15ff81a39ae7d344fd709f28e8600b4aa8c65c6b64bfe7fe36bd19b5b8183106102235750508101602001601f19610181565b602091935080600191548385880101520191019091839261020d565b7fffffffffffffffffffffffffffffffffffffffffffffffffffffffffffffff001660208581019190915291151560051b84019091019150601f199050610181565b6024837f4e487b710000000000000000000000000000000000000000000000000000000081526022600452fd5b90607f1690610160565b346100ff5760206003193601126100ff5773ffffffffffffffffffffffffffffffffffffffff6102e6610786565b1660005260006020526020604060002054604051908152f35b346100ff5760406003193601126100ff57610318610786565b73ffffffffffffffffffffffffffffffffffffffff602435911680156103bb576002549180830180931161038c576020926002557fddf252ad1be2c89b69c2b068fc378daa952ba7f163c4a11628f55a4df523b3ef600093849284845283825260408420818154019055604051908152a380f35b7f4e487b7100000000000000000000000000000000000000000000000000000000600052601160045260246000fd5b7fec442f0500000000000000000000000000000000000000000000000000000000600052600060045260246000fd5b346100ff5760006003193601126100ff57602060405160ff7f0000000000000000000000000000000000000000000000000000000000000000168152f35b346100ff5760606003193601126100ff57610441610786565b6104496107a9565b6044359073ffffffffffffffffffffffffffffffffffffffff831692836000526001602052604060002073ffffffffffffffffffffffffffffffffffffffff33166000526020526040600020547fffffffffffffffffffffffffffffffffffffffffffffffffffffffffffffffff81036104c9575b5061012a93506107cc565b83811061057857841561054957331561051a5761012a946000526001602052604060002073ffffffffffffffffffffffffffffffffffffffff331660005260205283604060002091039055846104be565b7f94280d6200000000000000000000000000000000000000000000000000000000600052600060045260246000fd5b7fe602df0500000000000000000000000000000000000000000000000000000000600052600060045260246000fd5b83907ffb8f41b2000000000000000000000000000000000000000000000000000000006000523360045260245260445260646000fd5b346100ff5760006003193601126100ff576020600254604051908152f35b346100ff5760406003193601126100ff576105e5610786565b6024359033156105495773ffffffffffffffffffffffffffffffffffffffff1690811561051a57336000526001602052604060002082600052602052806040600020556040519081527f8c5be1e5ebec7d5bd14f71427d1e84f3dd0314c0f7b2291e5b200ac8c7c3b92560203392a3602060405160018152f35b346100ff5760006003193601126100ff57600090600354918260011c60018416938415610732575b602082108514610281578394828552908160001461023f57506001146106d5575003601f01601f191681019067ffffffffffffffff8211818310176101b3576101af8291826040528261073c565b6003600090815291507fc2575a0e9e593c00f959f8c92f12db2869c3395a3b0502d05e2516446f71f85b5b8183106107165750508101602001601f19610181565b6020919350806001915483858801015201910190918392610700565b90607f1690610687565b9190916020815282519283602083015260005b848110610770575050601f19601f8460006040809697860101520116010190565b806020809284010151604082860101520161074f565b6004359073ffffffffffffffffffffffffffffffffffffffff821682036100ff57565b6024359073ffffffffffffffffffffffffffffffffffffffff821682036100ff57565b73ffffffffffffffffffffffffffffffffffffffff169081156108985773ffffffffffffffffffffffffffffffffffffffff169182156103bb5760008281528060205260408120548281106108655791604082827fddf252ad1be2c89b69c2b068fc378daa952ba7f163c4a11628f55a4df523b3ef958760209652828652038282205586815280845220818154019055604051908152a3565b6064937fe450d38c0000000000000000000000000000000000000000000000000000000083949352600452602452604452fd5b7f96c6fd1e00000000000000000000000000000000000000000000000000000000600052600060045260246000fdfea264697066735822122070c5594faf0d1555422334305eb9d51b05f99552aaa7f90cbd9d04c48ed6057d64736f6c634300081c0033",
        "nonce": "0x3a9",
        "chainId": "0xaa36a7"
      },
      "additionalContracts": [],
      "isFixedGasLimit": false
    },
    {
      "hash": "0xa10e493fc9c9847b3e988213160ffc7aed1df31b6590dd9f747bc2d44aa967d0",
      "transactionType": "CREATE",
      "contractName": "MockUSDTLike_6",
      "contractAddress": "0xd11db19892f8c9c89a03ba6efd636795cbbc0d74",
      "function": null,
      "arguments": null,
      "transaction": {
        "from": "0xe8df60a93b2b328397a8cbf73f0d732aaa11e33d",
        "gas": "0xa2c44",
        "value": "0x0",
        "input": "0x6080806040523460155761085f908161001b8239f35b600080fdfe6080604052600436101561001257600080fd5b60003560e01c806306fdde03146105b0578063095ea7b31461046157806318160ddd1461044357806323b872dd146102af578063313ce5671461029357806340c10f191461020c57806370a08231146101c557806395d89b4114610129578063a9059cbb146101015763dd62ed3e1461008a57600080fd5b346100fc5760406003193601126100fc576100a361067d565b73ffffffffffffffffffffffffffffffffffffffff6100c06106a0565b9116600052600260205273ffffffffffffffffffffffffffffffffffffffff604060002091166000526020526020604060002054604051908152f35b600080fd5b346100fc5760406003193601126100fc5761012761011d61067d565b60243590336106d0565b005b346100fc5760006003193601126100fc57604051604081019080821067ffffffffffffffff8311176101965761019291604052600581527f6d55534454000000000000000000000000000000000000000000000000000000602082015260405191829182610615565b0390f35b7f4e487b7100000000000000000000000000000000000000000000000000000000600052604160045260246000fd5b346100fc5760206003193601126100fc5773ffffffffffffffffffffffffffffffffffffffff6101f361067d565b1660005260016020526020604060002054604051908152f35b346100fc5760406003193601126100fc5761022561067d565b60007fddf252ad1be2c89b69c2b068fc378daa952ba7f163c4a11628f55a4df523b3ef602073ffffffffffffffffffffffffffffffffffffffff602435941693848452600182526040842061027b8282546106c3565b90556102888185546106c3565b8455604051908152a3005b346100fc5760006003193601126100fc57602060405160068152f35b346100fc5760606003193601126100fc576102c861067d565b6102d06106a0565b6044359073ffffffffffffffffffffffffffffffffffffffff831692836000526002602052604060002073ffffffffffffffffffffffffffffffffffffffff3316600052602052604060002054937fffffffffffffffffffffffffffffffffffffffffffffffffffffffffffffffff8503610351575b5061012793506106d0565b8385106103e5578385039485116103b6576000818152600260209081526040808320338085529083529281902088905551968752610127969192917f8c5be1e5ebec7d5bd14f71427d1e84f3dd0314c0f7b2291e5b200ac8c7c3b9259190a384610346565b7f4e487b7100000000000000000000000000000000000000000000000000000000600052601160045260246000fd5b60646040517f08c379a000000000000000000000000000000000000000000000000000000000815260206004820152602060248201527f555344544c696b653a20696e73756666696369656e7420616c6c6f77616e63656044820152fd5b346100fc5760006003193601126100fc576020600054604051908152f35b346100fc5760406003193601126100fc5761047a61067d565b60243590336000526002602052604060002073ffffffffffffffffffffffffffffffffffffffff821660005260205260406000205482151590816105a6575b506105225773ffffffffffffffffffffffffffffffffffffffff9033600052600260205260406000208282166000526020528260406000205560405192835216907f8c5be1e5ebec7d5bd14f71427d1e84f3dd0314c0f7b2291e5b200ac8c7c3b92560203392a3005b60846040517f08c379a000000000000000000000000000000000000000000000000000000000815260206004820152602360248201527f555344544c696b653a206d75737420726573657420616c6c6f77616e6365207460448201527f6f203000000000000000000000000000000000000000000000000000000000006064820152fd5b90501515836104b9565b346100fc5760006003193601126100fc57604051604081019080821067ffffffffffffffff8311176101965761019291604052600981527f4d6f636b205553445400000000000000000000000000000000000000000000006020820152604051918291825b9190916020815282519283602083015260005b8481106106675750507fffffffffffffffffffffffffffffffffffffffffffffffffffffffffffffffe0601f8460006040809697860101520116010190565b8060208092840101516040828601015201610628565b6004359073ffffffffffffffffffffffffffffffffffffffff821682036100fc57565b6024359073ffffffffffffffffffffffffffffffffffffffff821682036100fc57565b919082018092116103b657565b919073ffffffffffffffffffffffffffffffffffffffff169182156107cb5773ffffffffffffffffffffffffffffffffffffffff169081600052600160205260406000205481811061076d57817fddf252ad1be2c89b69c2b068fc378daa952ba7f163c4a11628f55a4df523b3ef9260209285600052600184520360406000205584600052600182526040600020818154019055604051908152a3565b60646040517f08c379a000000000000000000000000000000000000000000000000000000000815260206004820152601e60248201527f555344544c696b653a20696e73756666696369656e742062616c616e636500006044820152fd5b60646040517f08c379a000000000000000000000000000000000000000000000000000000000815260206004820152601a60248201527f555344544c696b653a207472616e7366657220746f207a65726f0000000000006044820152fdfea2646970667358221220c422feb005359836c1271893366a3207eba3a0c32fd59669655ff1bee9e0f5f464736f6c634300081c0033",
        "nonce": "0x3aa",
        "chainId": "0xaa36a7"
      },
      "additionalContracts": [],
      "isFixedGasLimit": false
    },
    {
      "hash": "0xfe8af803b716c3459e35e3e57cee58e0c17eb54cc90a0405cdabded8b1c1ba75",
      "transactionType": "CALL",
      "contractName": "MockERC20_18",
      "contractAddress": "0xc740ee33a12c21fa7f3cdd426d6051e16eab456e",
      "function": "mint(address,uint256)",
      "arguments": [
        "0xE8dF60a93b2B328397a8CBf73f0d732aaa11e33D",
        "1000000000000000000000000"
      ],
      "transaction": {
        "from": "0xe8df60a93b2b328397a8cbf73f0d732aaa11e33d",
        "to": "0xc740ee33a12c21fa7f3cdd426d6051e16eab456e",
        "gas": "0x1850a",
        "value": "0x0",
        "input": "0x40c10f19000000000000000000000000e8df60a93b2b328397a8cbf73f0d732aaa11e33d00000000000000000000000000000000000000000000d3c21bcecceda1000000",
        "nonce": "0x3ab",
        "chainId": "0xaa36a7"
      },
      "additionalContracts": [],
      "isFixedGasLimit": false
    },
    {
      "hash": "0xaedba1fcfdf72207c4c3549cf9c3988ec68748e0e2b86684876ae77dece3774a",
      "transactionType": "CALL",
      "contractName": "MockUSDC_6",
      "contractAddress": "0xeaefa01b8c4c8126226a8b2da2cf6eb0e5b0bd26",
      "function": "mint(address,uint256)",
      "arguments": [
        "0xE8dF60a93b2B328397a8CBf73f0d732aaa11e33D",
        "1000000000000"
      ],
      "transaction": {
        "from": "0xe8df60a93b2b328397a8cbf73f0d732aaa11e33d",
        "to": "0xeaefa01b8c4c8126226a8b2da2cf6eb0e5b0bd26",
        "gas": "0x16f3a",
        "value": "0x0",
        "input": "0x40c10f19000000000000000000000000e8df60a93b2b328397a8cbf73f0d732aaa11e33d000000000000000000000000000000000000000000000000000000e8d4a51000",
        "nonce": "0x3ac",
        "chainId": "0xaa36a7"
      },
      "additionalContracts": [],
      "isFixedGasLimit": false
    },
    {
      "hash": "0xc6bc2fe7d50be43dfbeea53906f551a55ba2c2745645484aab81441dd69c5ca5",
      "transactionType": "CALL",
      "contractName": "MockWBTC_8",
      "contractAddress": "0xb1a8786fd1bbdb7f56f8cea78a77897a0aa9fab2",
      "function": "mint(address,uint256)",
      "arguments": [
        "0xE8dF60a93b2B328397a8CBf73f0d732aaa11e33D",
        "100000000000000"
      ],
      "transaction": {
        "from": "0xe8df60a93b2b328397a8cbf73f0d732aaa11e33d",
        "to": "0xb1a8786fd1bbdb7f56f8cea78a77897a0aa9fab2",
        "gas": "0x184e7",
        "value": "0x0",
        "input": "0x40c10f19000000000000000000000000e8df60a93b2b328397a8cbf73f0d732aaa11e33d00000000000000000000000000000000000000000000000000005af3107a4000",
        "nonce": "0x3ad",
        "chainId": "0xaa36a7"
      },
      "additionalContracts": [],
      "isFixedGasLimit": false
    },
    {
      "hash": "0x9f24a5e264fbe1f9991e9c503dd09be388a351f0e54401cd1d39acf9c7070c00",
      "transactionType": "CALL",
      "contractName": "MockEURS_2",
      "contractAddress": "0xe06e78ab6314993fca9106536aecfe4284aa791a",
      "function": "mint(address,uint256)",
      "arguments": [
        "0xE8dF60a93b2B328397a8CBf73f0d732aaa11e33D",
        "100000000"
      ],
      "transaction": {
        "from": "0xe8df60a93b2b328397a8cbf73f0d732aaa11e33d",
        "to": "0xe06e78ab6314993fca9106536aecfe4284aa791a",
        "gas": "0x184c4",
        "value": "0x0",
        "input": "0x40c10f19000000000000000000000000e8df60a93b2b328397a8cbf73f0d732aaa11e33d0000000000000000000000000000000000000000000000000000000005f5e100",
        "nonce": "0x3ae",
        "chainId": "0xaa36a7"
      },
      "additionalContracts": [],
      "isFixedGasLimit": false
    },
    {
      "hash": "0x09cb64fe75eebf3072d1afd67645fc5c40def46f162afd57327decbb0f979c68",
      "transactionType": "CALL",
      "contractName": "MockUSDTLike_6",
      "contractAddress": "0xd11db19892f8c9c89a03ba6efd636795cbbc0d74",
      "function": "mint(address,uint256)",
      "arguments": [
        "0xE8dF60a93b2B328397a8CBf73f0d732aaa11e33D",
        "1000000000000"
      ],
      "transaction": {
        "from": "0xe8df60a93b2b328397a8cbf73f0d732aaa11e33d",
        "to": "0xd11db19892f8c9c89a03ba6efd636795cbbc0d74",
        "gas": "0x18514",
        "value": "0x0",
        "input": "0x40c10f19000000000000000000000000e8df60a93b2b328397a8cbf73f0d732aaa11e33d000000000000000000000000000000000000000000000000000000e8d4a51000",
        "nonce": "0x3af",
        "chainId": "0xaa36a7"
      },
      "additionalContracts": [],
      "isFixedGasLimit": false
    },
    {
      "hash": "0xb64c88107c005054fff749d0109c8d3211ee54f067c4cd37cacf771f9b7fe33e",
      "transactionType": "CALL",
      "contractName": "MockERC20_18",
      "contractAddress": "0xc740ee33a12c21fa7f3cdd426d6051e16eab456e",
      "function": "mint(address,uint256)",
      "arguments": [
        "0x8a200122f666af83aF2D4f425aC7A35fa5491ca7",
        "1000000000000000000000000"
      ],
      "transaction": {
        "from": "0xe8df60a93b2b328397a8cbf73f0d732aaa11e33d",
        "to": "0xc740ee33a12c21fa7f3cdd426d6051e16eab456e",
        "gas": "0x11329",
        "value": "0x0",
        "input": "0x40c10f190000000000000000000000008a200122f666af83af2d4f425ac7a35fa5491ca700000000000000000000000000000000000000000000d3c21bcecceda1000000",
        "nonce": "0x3b0",
        "chainId": "0xaa36a7"
      },
      "additionalContracts": [],
      "isFixedGasLimit": false
    },
    {
      "hash": "0x0b72e01d6200e09e0dfc952e04a9a25cf84327c8bb0743082a5b81d2f3406bd4",
      "transactionType": "CALL",
      "contractName": "MockUSDC_6",
      "contractAddress": "0xeaefa01b8c4c8126226a8b2da2cf6eb0e5b0bd26",
      "function": "mint(address,uint256)",
      "arguments": [
        "0x8a200122f666af83aF2D4f425aC7A35fa5491ca7",
        "1000000000000"
      ],
      "transaction": {
        "from": "0xe8df60a93b2b328397a8cbf73f0d732aaa11e33d",
        "to": "0xeaefa01b8c4c8126226a8b2da2cf6eb0e5b0bd26",
        "gas": "0x12324",
        "value": "0x0",
        "input": "0x40c10f190000000000000000000000008a200122f666af83af2d4f425ac7a35fa5491ca7000000000000000000000000000000000000000000000000000000e8d4a51000",
        "nonce": "0x3b1",
        "chainId": "0xaa36a7"
      },
      "additionalContracts": [],
      "isFixedGasLimit": false
    },
    {
      "hash": "0x3b3ddcfffc1ce2826f52ee3c0ac06439fb24ac15ec43c983e94c58875de3a264",
      "transactionType": "CALL",
      "contractName": "MockWBTC_8",
      "contractAddress": "0xb1a8786fd1bbdb7f56f8cea78a77897a0aa9fab2",
      "function": "mint(address,uint256)",
      "arguments": [
        "0x8a200122f666af83aF2D4f425aC7A35fa5491ca7",
        "100000000000000"
      ],
      "transaction": {
        "from": "0xe8df60a93b2b328397a8cbf73f0d732aaa11e33d",
        "to": "0xb1a8786fd1bbdb7f56f8cea78a77897a0aa9fab2",
        "gas": "0x11308",
        "value": "0x0",
        "input": "0x40c10f190000000000000000000000008a200122f666af83af2d4f425ac7a35fa5491ca700000000000000000000000000000000000000000000000000005af3107a4000",
        "nonce": "0x3b2",
        "chainId": "0xaa36a7"
      },
      "additionalContracts": [],
      "isFixedGasLimit": false
    },
    {
      "hash": "0xa6993bd710dabcb009d3c6c6fb17e802228bc70c6df3fd6ad06b46c0fdebcb25",
      "transactionType": "CALL",
      "contractName": "MockEURS_2",
      "contractAddress": "0xe06e78ab6314993fca9106536aecfe4284aa791a",
      "function": "mint(address,uint256)",
      "arguments": [
        "0x8a200122f666af83aF2D4f425aC7A35fa5491ca7",
        "100000000"
      ],
      "transaction": {
        "from": "0xe8df60a93b2b328397a8cbf73f0d732aaa11e33d",
        "to": "0xe06e78ab6314993fca9106536aecfe4284aa791a",
        "gas": "0x112e7",
        "value": "0x0",
        "input": "0x40c10f190000000000000000000000008a200122f666af83af2d4f425ac7a35fa5491ca70000000000000000000000000000000000000000000000000000000005f5e100",
        "nonce": "0x3b3",
        "chainId": "0xaa36a7"
      },
      "additionalContracts": [],
      "isFixedGasLimit": false
    },
    {
      "hash": "0x393441cf1ce136dcb51d79a50d58373edf9ef6c41cffa6a4903707e05a25f32a",
      "transactionType": "CALL",
      "contractName": "MockUSDTLike_6",
      "contractAddress": "0xd11db19892f8c9c89a03ba6efd636795cbbc0d74",
      "function": "mint(address,uint256)",
      "arguments": [
        "0x8a200122f666af83aF2D4f425aC7A35fa5491ca7",
        "1000000000000"
      ],
      "transaction": {
        "from": "0xe8df60a93b2b328397a8cbf73f0d732aaa11e33d",
        "to": "0xd11db19892f8c9c89a03ba6efd636795cbbc0d74",
        "gas": "0x11332",
        "value": "0x0",
        "input": "0x40c10f190000000000000000000000008a200122f666af83af2d4f425ac7a35fa5491ca7000000000000000000000000000000000000000000000000000000e8d4a51000",
        "nonce": "0x3b4",
        "chainId": "0xaa36a7"
      },
      "additionalContracts": [],
      "isFixedGasLimit": false
    },
    {
      "hash": "0x3f97b45c7017080732979b2d18d93366d6e0f70cc11830777f7e4eaa2d0c7658",
      "transactionType": "CALL",
      "contractName": "MockERC20_18",
      "contractAddress": "0xc740ee33a12c21fa7f3cdd426d6051e16eab456e",
      "function": "mint(address,uint256)",
      "arguments": [
        "0xf034e8ad11F249c8081d9da94852bE1734bc11a4",
        "1000000000000000000000000"
      ],
      "transaction": {
        "from": "0xe8df60a93b2b328397a8cbf73f0d732aaa11e33d",
        "to": "0xc740ee33a12c21fa7f3cdd426d6051e16eab456e",
        "gas": "0x11329",
        "value": "0x0",
        "input": "0x40c10f19000000000000000000000000f034e8ad11f249c8081d9da94852be1734bc11a400000000000000000000000000000000000000000000d3c21bcecceda1000000",
        "nonce": "0x3b5",
        "chainId": "0xaa36a7"
      },
      "additionalContracts": [],
      "isFixedGasLimit": false
    },
    {
      "hash": "0x23dd7b5b1e17d74569bc7a02ce4bf1e89100644160d03d1d90c35be787e1d8e0",
      "transactionType": "CALL",
      "contractName": "MockUSDC_6",
      "contractAddress": "0xeaefa01b8c4c8126226a8b2da2cf6eb0e5b0bd26",
      "function": "mint(address,uint256)",
      "arguments": [
        "0xf034e8ad11F249c8081d9da94852bE1734bc11a4",
        "1000000000000"
      ],
      "transaction": {
        "from": "0xe8df60a93b2b328397a8cbf73f0d732aaa11e33d",
        "to": "0xeaefa01b8c4c8126226a8b2da2cf6eb0e5b0bd26",
        "gas": "0x12324",
        "value": "0x0",
        "input": "0x40c10f19000000000000000000000000f034e8ad11f249c8081d9da94852be1734bc11a4000000000000000000000000000000000000000000000000000000e8d4a51000",
        "nonce": "0x3b6",
        "chainId": "0xaa36a7"
      },
      "additionalContracts": [],
      "isFixedGasLimit": false
    },
    {
      "hash": "0x0d6233e9290cb6a5d63f440905e66c9ecde2f84e82e9d475fcb16b91a91bfd50",
      "transactionType": "CALL",
      "contractName": "MockWBTC_8",
      "contractAddress": "0xb1a8786fd1bbdb7f56f8cea78a77897a0aa9fab2",
      "function": "mint(address,uint256)",
      "arguments": [
        "0xf034e8ad11F249c8081d9da94852bE1734bc11a4",
        "100000000000000"
      ],
      "transaction": {
        "from": "0xe8df60a93b2b328397a8cbf73f0d732aaa11e33d",
        "to": "0xb1a8786fd1bbdb7f56f8cea78a77897a0aa9fab2",
        "gas": "0x11308",
        "value": "0x0",
        "input": "0x40c10f19000000000000000000000000f034e8ad11f249c8081d9da94852be1734bc11a400000000000000000000000000000000000000000000000000005af3107a4000",
        "nonce": "0x3b7",
        "chainId": "0xaa36a7"
      },
      "additionalContracts": [],
      "isFixedGasLimit": false
    },
    {
      "hash": "0x80a803ab371a2ec64677849458c64411e20750d68253bd577f057f88124fbc7b",
      "transactionType": "CALL",
      "contractName": "MockEURS_2",
      "contractAddress": "0xe06e78ab6314993fca9106536aecfe4284aa791a",
      "function": "mint(address,uint256)",
      "arguments": [
        "0xf034e8ad11F249c8081d9da94852bE1734bc11a4",
        "100000000"
      ],
      "transaction": {
        "from": "0xe8df60a93b2b328397a8cbf73f0d732aaa11e33d",
        "to": "0xe06e78ab6314993fca9106536aecfe4284aa791a",
        "gas": "0x112e7",
        "value": "0x0",
        "input": "0x40c10f19000000000000000000000000f034e8ad11f249c8081d9da94852be1734bc11a40000000000000000000000000000000000000000000000000000000005f5e100",
        "nonce": "0x3b8",
        "chainId": "0xaa36a7"
      },
      "additionalContracts": [],
      "isFixedGasLimit": false
    },
    {
      "hash": "0xf93f87380c24ad52b4254a45fcce3c8f83aed54dfc164c2455bd2f84d433f2d9",
      "transactionType": "CALL",
      "contractName": "MockUSDTLike_6",
      "contractAddress": "0xd11db19892f8c9c89a03ba6efd636795cbbc0d74",
      "function": "mint(address,uint256)",
      "arguments": [
        "0xf034e8ad11F249c8081d9da94852bE1734bc11a4",
        "1000000000000"
      ],
      "transaction": {
        "from": "0xe8df60a93b2b328397a8cbf73f0d732aaa11e33d",
        "to": "0xd11db19892f8c9c89a03ba6efd636795cbbc0d74",
        "gas": "0x11332",
        "value": "0x0",
        "input": "0x40c10f19000000000000000000000000f034e8ad11f249c8081d9da94852be1734bc11a4000000000000000000000000000000000000000000000000000000e8d4a51000",
        "nonce": "0x3b9",
        "chainId": "0xaa36a7"
      },
      "additionalContracts": [],
      "isFixedGasLimit": false
    }
  ],
  "receipts": [
    {
      "status": "0x1",
      "cumulativeGasUsed": "0xcc4d09",
      "logs": [],
      "logsBloom": "0x00000000000000000000000000000000000000000000000000000000000000000000000000000000000000000000000000000000000000000000000000000000000000000000000000000000000000000000000000000000000000000000000000000000000000000000000000000000000000000000000000000000000000000000000000000000000000000000000000000000000000000000000000000000000000000000000000000000000000000000000000000000000000000000000000000000000000000000000000000000000000000000000000000000000000000000000000000000000000000000000000000000000000000000000000000000",
      "type": "0x2",
      "transactionHash": "0x0b0e877bad4a281686004dd0eddb07ddb5564588d871171d57ee403e5800f432",
      "transactionIndex": "0x23",
      "blockHash": "0xbba0b6a2d210d72e2f6309bfe116d3538eb379b910621abfd9fc04fefb25686e",
      "blockNumber": "0x9a9278",
      "gasUsed": "0x93882",
      "effectiveGasPrice": "0x41484e1a",
      "from": "0xe8df60a93b2b328397a8cbf73f0d732aaa11e33d",
      "to": null,
      "contractAddress": "0xc740ee33a12c21fa7f3cdd426d6051e16eab456e"
    },
    {
      "status": "0x1",
      "cumulativeGasUsed": "0xd58523",
      "logs": [],
      "logsBloom": "0x00000000000000000000000000000000000000000000000000000000000000000000000000000000000000000000000000000000000000000000000000000000000000000000000000000000000000000000000000000000000000000000000000000000000000000000000000000000000000000000000000000000000000000000000000000000000000000000000000000000000000000000000000000000000000000000000000000000000000000000000000000000000000000000000000000000000000000000000000000000000000000000000000000000000000000000000000000000000000000000000000000000000000000000000000000000",
      "type": "0x2",
      "transactionHash": "0x450cd1ffa57aec0de41f713b5ef9cd6f52289a50d55709386bd5d64f8adfa807",
      "transactionIndex": "0x24",
      "blockHash": "0xbba0b6a2d210d72e2f6309bfe116d3538eb379b910621abfd9fc04fefb25686e",
      "blockNumber": "0x9a9278",
      "gasUsed": "0x9381a",
      "effectiveGasPrice": "0x41484e1a",
      "from": "0xe8df60a93b2b328397a8cbf73f0d732aaa11e33d",
      "to": null,
      "contractAddress": "0xeaefa01b8c4c8126226a8b2da2cf6eb0e5b0bd26"
    },
    {
      "status": "0x1",
      "cumulativeGasUsed": "0xdebd3d",
      "logs": [],
      "logsBloom": "0x00000000000000000000000000000000000000000000000000000000000000000000000000000000000000000000000000000000000000000000000000000000000000000000000000000000000000000000000000000000000000000000000000000000000000000000000000000000000000000000000000000000000000000000000000000000000000000000000000000000000000000000000000000000000000000000000000000000000000000000000000000000000000000000000000000000000000000000000000000000000000000000000000000000000000000000000000000000000000000000000000000000000000000000000000000000",
      "type": "0x2",
      "transactionHash": "0x3db16d35caed2cb18c78d3317bc999d28c29cc61f36559f7719a1963511f2afb",
      "transactionIndex": "0x25",
      "blockHash": "0xbba0b6a2d210d72e2f6309bfe116d3538eb379b910621abfd9fc04fefb25686e",
      "blockNumber": "0x9a9278",
      "gasUsed": "0x9381a",
      "effectiveGasPrice": "0x41484e1a",
      "from": "0xe8df60a93b2b328397a8cbf73f0d732aaa11e33d",
      "to": null,
      "contractAddress": "0xb1a8786fd1bbdb7f56f8cea78a77897a0aa9fab2"
    },
    {
      "status": "0x1",
      "cumulativeGasUsed": "0xe7f557",
      "logs": [],
      "logsBloom": "0x00000000000000000000000000000000000000000000000000000000000000000000000000000000000000000000000000000000000000000000000000000000000000000000000000000000000000000000000000000000000000000000000000000000000000000000000000000000000000000000000000000000000000000000000000000000000000000000000000000000000000000000000000000000000000000000000000000000000000000000000000000000000000000000000000000000000000000000000000000000000000000000000000000000000000000000000000000000000000000000000000000000000000000000000000000000",
      "type": "0x2",
      "transactionHash": "0xf4d5b659ec1421e23229f09ef1708bb8abd9850f80aa03991a710c431b1f8f3f",
      "transactionIndex": "0x26",
      "blockHash": "0xbba0b6a2d210d72e2f6309bfe116d3538eb379b910621abfd9fc04fefb25686e",
      "blockNumber": "0x9a9278",
      "gasUsed": "0x9381a",
      "effectiveGasPrice": "0x41484e1a",
      "from": "0xe8df60a93b2b328397a8cbf73f0d732aaa11e33d",
      "to": null,
      "contractAddress": "0xe06e78ab6314993fca9106536aecfe4284aa791a"
    },
    {
      "status": "0x1",
      "cumulativeGasUsed": "0xefc927",
      "logs": [],
      "logsBloom": "0x00000000000000000000000000000000000000000000000000000000000000000000000000000000000000000000000000000000000000000000000000000000000000000000000000000000000000000000000000000000000000000000000000000000000000000000000000000000000000000000000000000000000000000000000000000000000000000000000000000000000000000000000000000000000000000000000000000000000000000000000000000000000000000000000000000000000000000000000000000000000000000000000000000000000000000000000000000000000000000000000000000000000000000000000000000000",
      "type": "0x2",
      "transactionHash": "0xa10e493fc9c9847b3e988213160ffc7aed1df31b6590dd9f747bc2d44aa967d0",
      "transactionIndex": "0x27",
      "blockHash": "0xbba0b6a2d210d72e2f6309bfe116d3538eb379b910621abfd9fc04fefb25686e",
      "blockNumber": "0x9a9278",
      "gasUsed": "0x7d3d0",
      "effectiveGasPrice": "0x41484e1a",
      "from": "0xe8df60a93b2b328397a8cbf73f0d732aaa11e33d",
      "to": null,
      "contractAddress": "0xd11db19892f8c9c89a03ba6efd636795cbbc0d74"
    },
    {
      "status": "0x1",
      "cumulativeGasUsed": "0xf0d32a",
      "logs": [
        {
          "address": "0xc740ee33a12c21fa7f3cdd426d6051e16eab456e",
          "topics": [
            "0xddf252ad1be2c89b69c2b068fc378daa952ba7f163c4a11628f55a4df523b3ef",
            "0x0000000000000000000000000000000000000000000000000000000000000000",
            "0x000000000000000000000000e8df60a93b2b328397a8cbf73f0d732aaa11e33d"
          ],
          "data": "0x00000000000000000000000000000000000000000000d3c21bcecceda1000000",
          "blockHash": "0xbba0b6a2d210d72e2f6309bfe116d3538eb379b910621abfd9fc04fefb25686e",
          "blockNumber": "0x9a9278",
          "blockTimestamp": "0x6977d930",
          "transactionHash": "0xfe8af803b716c3459e35e3e57cee58e0c17eb54cc90a0405cdabded8b1c1ba75",
          "transactionIndex": "0x28",
          "logIndex": "0x80",
          "removed": false
        }
      ],
      "logsBloom": "0x00000000000000000000000000000000000000000000000000040000000000000000000000000000000000400000000000000000000000000000000000000000000000000000000000000008000000000000000000000000000000000000000000000000020000000000000000000800000000000000000000000010000000000000000000080000000000000000000000000010000000000000000000000000000020000000000000000000000000000000000000000000000000000000000000000002000000000000000000000000000000000000000000000000000020000000000000000000100000000000000000000000000000000000000000000000",
      "type": "0x2",
      "transactionHash": "0xfe8af803b716c3459e35e3e57cee58e0c17eb54cc90a0405cdabded8b1c1ba75",
      "transactionIndex": "0x28",
      "blockHash": "0xbba0b6a2d210d72e2f6309bfe116d3538eb379b910621abfd9fc04fefb25686e",
      "blockNumber": "0x9a9278",
      "gasUsed": "0x10a03",
      "effectiveGasPrice": "0x41484e1a",
      "from": "0xe8df60a93b2b328397a8cbf73f0d732aaa11e33d",
      "to": "0xc740ee33a12c21fa7f3cdd426d6051e16eab456e",
      "contractAddress": null
    },
    {
      "status": "0x1",
      "cumulativeGasUsed": "0xf1dd09",
      "logs": [
        {
          "address": "0xeaefa01b8c4c8126226a8b2da2cf6eb0e5b0bd26",
          "topics": [
            "0xddf252ad1be2c89b69c2b068fc378daa952ba7f163c4a11628f55a4df523b3ef",
            "0x0000000000000000000000000000000000000000000000000000000000000000",
            "0x000000000000000000000000e8df60a93b2b328397a8cbf73f0d732aaa11e33d"
          ],
          "data": "0x000000000000000000000000000000000000000000000000000000e8d4a51000",
          "blockHash": "0xbba0b6a2d210d72e2f6309bfe116d3538eb379b910621abfd9fc04fefb25686e",
          "blockNumber": "0x9a9278",
          "blockTimestamp": "0x6977d930",
          "transactionHash": "0xaedba1fcfdf72207c4c3549cf9c3988ec68748e0e2b86684876ae77dece3774a",
          "transactionIndex": "0x29",
          "logIndex": "0x81",
          "removed": false
        }
      ],
      "logsBloom": "0x00000000000000000000000000000000000000000000000000000000000000000000000000000000000000400000000000000000000000000000000000000000000000000000000000000008000000000010000000000000000000000000000000000000020000000000000000000800000000000000000000000010000000000000000000000000000000040000000000000000000000000000000000000000000020000000000000000000000000000000000000000000000000000000000000200002000000000000000000000000000000000000000000000000000020000000000000000000100000000000000000000000000000000000000000000000",
      "type": "0x2",
      "transactionHash": "0xaedba1fcfdf72207c4c3549cf9c3988ec68748e0e2b86684876ae77dece3774a",
      "transactionIndex": "0x29",
      "blockHash": "0xbba0b6a2d210d72e2f6309bfe116d3538eb379b910621abfd9fc04fefb25686e",
      "blockNumber": "0x9a9278",
      "gasUsed": "0x109df",
      "effectiveGasPrice": "0x41484e1a",
      "from": "0xe8df60a93b2b328397a8cbf73f0d732aaa11e33d",
      "to": "0xeaefa01b8c4c8126226a8b2da2cf6eb0e5b0bd26",
      "contractAddress": null
    },
    {
      "status": "0x1",
      "cumulativeGasUsed": "0xf2e6f4",
      "logs": [
        {
          "address": "0xb1a8786fd1bbdb7f56f8cea78a77897a0aa9fab2",
          "topics": [
            "0xddf252ad1be2c89b69c2b068fc378daa952ba7f163c4a11628f55a4df523b3ef",
            "0x0000000000000000000000000000000000000000000000000000000000000000",
            "0x000000000000000000000000e8df60a93b2b328397a8cbf73f0d732aaa11e33d"
          ],
          "data": "0x00000000000000000000000000000000000000000000000000005af3107a4000",
          "blockHash": "0xbba0b6a2d210d72e2f6309bfe116d3538eb379b910621abfd9fc04fefb25686e",
          "blockNumber": "0x9a9278",
          "blockTimestamp": "0x6977d930",
          "transactionHash": "0xc6bc2fe7d50be43dfbeea53906f551a55ba2c2745645484aab81441dd69c5ca5",
          "transactionIndex": "0x2a",
          "logIndex": "0x82",
          "removed": false
        }
      ],
      "logsBloom": "0x00000000000000000000000000000000000000000000000000000000000000000000000000000000000000400000000000000000000000000000000000000000000000000000000000000008000000000000000000000000000000000000000000000000020000000000000000000800000000000000000000000010000000000000000000000000000000000000000000000000000000000000000040000000000020000000000000000000000000000000000000000000000800000000000000000002000000000000000000000000000000000000000000000000000020000000000000000000100000000200000000000000000000000000000000000000",
      "type": "0x2",
      "transactionHash": "0xc6bc2fe7d50be43dfbeea53906f551a55ba2c2745645484aab81441dd69c5ca5",
      "transactionIndex": "0x2a",
      "blockHash": "0xbba0b6a2d210d72e2f6309bfe116d3538eb379b910621abfd9fc04fefb25686e",
      "blockNumber": "0x9a9278",
      "gasUsed": "0x109eb",
      "effectiveGasPrice": "0x41484e1a",
      "from": "0xe8df60a93b2b328397a8cbf73f0d732aaa11e33d",
      "to": "0xb1a8786fd1bbdb7f56f8cea78a77897a0aa9fab2",
      "contractAddress": null
    },
    {
      "status": "0x1",
      "cumulativeGasUsed": "0xf3f0c7",
      "logs": [
        {
          "address": "0xe06e78ab6314993fca9106536aecfe4284aa791a",
          "topics": [
            "0xddf252ad1be2c89b69c2b068fc378daa952ba7f163c4a11628f55a4df523b3ef",
            "0x0000000000000000000000000000000000000000000000000000000000000000",
            "0x000000000000000000000000e8df60a93b2b328397a8cbf73f0d732aaa11e33d"
          ],
          "data": "0x0000000000000000000000000000000000000000000000000000000005f5e100",
          "blockHash": "0xbba0b6a2d210d72e2f6309bfe116d3538eb379b910621abfd9fc04fefb25686e",
          "blockNumber": "0x9a9278",
          "blockTimestamp": "0x6977d930",
          "transactionHash": "0x9f24a5e264fbe1f9991e9c503dd09be388a351f0e54401cd1d39acf9c7070c00",
          "transactionIndex": "0x2b",
          "logIndex": "0x83",
          "removed": false
        }
      ],
      "logsBloom": "0x00000000000000000000000000000000000000000000000000000000000000000000000000000000000000400000000000000000000000000000000000000000000000000000000000000008000000000000000000000000000000000000000000000000020000000000000000000800000000000000000000000010000000000000000010000000000000000000000000000000000000000000000000800000000020000000000000000000000000000000000000000000000000000000000000000002000000000000000000000000000000000000000000000000000020000000000000000000100000000000000000000000000000000000000080000000",
      "type": "0x2",
      "transactionHash": "0x9f24a5e264fbe1f9991e9c503dd09be388a351f0e54401cd1d39acf9c7070c00",
      "transactionIndex": "0x2b",
      "blockHash": "0xbba0b6a2d210d72e2f6309bfe116d3538eb379b910621abfd9fc04fefb25686e",
      "blockNumber": "0x9a9278",
      "gasUsed": "0x109d3",
      "effectiveGasPrice": "0x41484e1a",
      "from": "0xe8df60a93b2b328397a8cbf73f0d732aaa11e33d",
      "to": "0xe06e78ab6314993fca9106536aecfe4284aa791a",
      "contractAddress": null
    },
    {
      "status": "0x1",
      "cumulativeGasUsed": "0xf4fad1",
      "logs": [
        {
          "address": "0xd11db19892f8c9c89a03ba6efd636795cbbc0d74",
          "topics": [
            "0xddf252ad1be2c89b69c2b068fc378daa952ba7f163c4a11628f55a4df523b3ef",
            "0x0000000000000000000000000000000000000000000000000000000000000000",
            "0x000000000000000000000000e8df60a93b2b328397a8cbf73f0d732aaa11e33d"
          ],
          "data": "0x000000000000000000000000000000000000000000000000000000e8d4a51000",
          "blockHash": "0xbba0b6a2d210d72e2f6309bfe116d3538eb379b910621abfd9fc04fefb25686e",
          "blockNumber": "0x9a9278",
          "blockTimestamp": "0x6977d930",
          "transactionHash": "0x09cb64fe75eebf3072d1afd67645fc5c40def46f162afd57327decbb0f979c68",
          "transactionIndex": "0x2c",
          "logIndex": "0x84",
          "removed": false
        }
      ],
      "logsBloom": "0x00000000000000000000000000000000000000000000000000000000000000000000000000000800000000400000000000000000000000000000000000000000000000000000000000000008000000000000000000000000000000000000000000000000020000000000000000000800000000000000000000000010000000000000000000000000000000000000000000000000000000000000000000000000000020000000000000000000000000000080000000000000000000000000000000000002000000000000000000000000000000000000000000000000000020000000000000000000100000000080000000000000000000000000000000000000",
      "type": "0x2",
      "transactionHash": "0x09cb64fe75eebf3072d1afd67645fc5c40def46f162afd57327decbb0f979c68",
      "transactionIndex": "0x2c",
      "blockHash": "0xbba0b6a2d210d72e2f6309bfe116d3538eb379b910621abfd9fc04fefb25686e",
      "blockNumber": "0x9a9278",
      "gasUsed": "0x10a0a",
      "effectiveGasPrice": "0x41484e1a",
      "from": "0xe8df60a93b2b328397a8cbf73f0d732aaa11e33d",
      "to": "0xd11db19892f8c9c89a03ba6efd636795cbbc0d74",
      "contractAddress": null
    },
    {
      "status": "0x1",
      "cumulativeGasUsed": "0xf5c208",
      "logs": [
        {
          "address": "0xc740ee33a12c21fa7f3cdd426d6051e16eab456e",
          "topics": [
            "0xddf252ad1be2c89b69c2b068fc378daa952ba7f163c4a11628f55a4df523b3ef",
            "0x0000000000000000000000000000000000000000000000000000000000000000",
            "0x0000000000000000000000008a200122f666af83af2d4f425ac7a35fa5491ca7"
          ],
          "data": "0x00000000000000000000000000000000000000000000d3c21bcecceda1000000",
          "blockHash": "0xbba0b6a2d210d72e2f6309bfe116d3538eb379b910621abfd9fc04fefb25686e",
          "blockNumber": "0x9a9278",
          "blockTimestamp": "0x6977d930",
          "transactionHash": "0xb64c88107c005054fff749d0109c8d3211ee54f067c4cd37cacf771f9b7fe33e",
          "transactionIndex": "0x2d",
          "logIndex": "0x85",
          "removed": false
        }
      ],
      "logsBloom": "0x00000000000000000000000000000000000000000000000000040000000000000000000000000000000000000000000000000000000000000000000000000000000000000000000000000008000000000000000000000000000100000000000000000000020000000000000000000800000000000000000000000010000000000000000000080000000000000000000000000010000000000020000000000008000000000000000000000000000000000000000000000000000000000000000000000002000000000000000000000000000000000000000000000000000020000000000000000000000000000000000000000000000000000000000000000000",
      "type": "0x2",
      "transactionHash": "0xb64c88107c005054fff749d0109c8d3211ee54f067c4cd37cacf771f9b7fe33e",
      "transactionIndex": "0x2d",
      "blockHash": "0xbba0b6a2d210d72e2f6309bfe116d3538eb379b910621abfd9fc04fefb25686e",
      "blockNumber": "0x9a9278",
      "gasUsed": "0xc737",
      "effectiveGasPrice": "0x41484e1a",
      "from": "0xe8df60a93b2b328397a8cbf73f0d732aaa11e33d",
      "to": "0xc740ee33a12c21fa7f3cdd426d6051e16eab456e",
      "contractAddress": null
    },
    {
      "status": "0x1",
      "cumulativeGasUsed": "0xf6891b",
      "logs": [
        {
          "address": "0xeaefa01b8c4c8126226a8b2da2cf6eb0e5b0bd26",
          "topics": [
            "0xddf252ad1be2c89b69c2b068fc378daa952ba7f163c4a11628f55a4df523b3ef",
            "0x0000000000000000000000000000000000000000000000000000000000000000",
            "0x0000000000000000000000008a200122f666af83af2d4f425ac7a35fa5491ca7"
          ],
          "data": "0x000000000000000000000000000000000000000000000000000000e8d4a51000",
          "blockHash": "0xbba0b6a2d210d72e2f6309bfe116d3538eb379b910621abfd9fc04fefb25686e",
          "blockNumber": "0x9a9278",
          "blockTimestamp": "0x6977d930",
          "transactionHash": "0x0b72e01d6200e09e0dfc952e04a9a25cf84327c8bb0743082a5b81d2f3406bd4",
          "transactionIndex": "0x2e",
          "logIndex": "0x86",
          "removed": false
        }
      ],
      "logsBloom": "0x00000000000000000000000000000000000000000000000000000000000000000000000000000000000000000000000000000000000000000000000000000000000000000000000000000008000000000010000000000000000100000000000000000000020000000000000000000800000000000000000000000010000000000000000000000000000000040000000000000000000000000020000000000008000000000000000000000000000000000000000000000000000000000000000000200002000000000000000000000000000000000000000000000000000020000000000000000000000000000000000000000000000000000000000000000000",
      "type": "0x2",
      "transactionHash": "0x0b72e01d6200e09e0dfc952e04a9a25cf84327c8bb0743082a5b81d2f3406bd4",
      "transactionIndex": "0x2e",
      "blockHash": "0xbba0b6a2d210d72e2f6309bfe116d3538eb379b910621abfd9fc04fefb25686e",
      "blockNumber": "0x9a9278",
      "gasUsed": "0xc713",
      "effectiveGasPrice": "0x41484e1a",
      "from": "0xe8df60a93b2b328397a8cbf73f0d732aaa11e33d",
      "to": "0xeaefa01b8c4c8126226a8b2da2cf6eb0e5b0bd26",
      "contractAddress": null
    },
    {
      "status": "0x1",
      "cumulativeGasUsed": "0xf7503a",
      "logs": [
        {
          "address": "0xb1a8786fd1bbdb7f56f8cea78a77897a0aa9fab2",
          "topics": [
            "0xddf252ad1be2c89b69c2b068fc378daa952ba7f163c4a11628f55a4df523b3ef",
            "0x0000000000000000000000000000000000000000000000000000000000000000",
            "0x0000000000000000000000008a200122f666af83af2d4f425ac7a35fa5491ca7"
          ],
          "data": "0x00000000000000000000000000000000000000000000000000005af3107a4000",
          "blockHash": "0xbba0b6a2d210d72e2f6309bfe116d3538eb379b910621abfd9fc04fefb25686e",
          "blockNumber": "0x9a9278",
          "blockTimestamp": "0x6977d930",
          "transactionHash": "0x3b3ddcfffc1ce2826f52ee3c0ac06439fb24ac15ec43c983e94c58875de3a264",
          "transactionIndex": "0x2f",
          "logIndex": "0x87",
          "removed": false
        }
      ],
      "logsBloom": "0x00000000000000000000000000000000000000000000000000000000000000000000000000000000000000000000000000000000000000000000000000000000000000000000000000000008000000000000000000000000000100000000000000000000020000000000000000000800000000000000000000000010000000000000000000000000000000000000000000000000000000000020000040000008000000000000000000000000000000000000000000000000000800000000000000000002000000000000000000000000000000000000000000000000000020000000000000000000000000000200000000000000000000000000000000000000",
      "type": "0x2",
      "transactionHash": "0x3b3ddcfffc1ce2826f52ee3c0ac06439fb24ac15ec43c983e94c58875de3a264",
      "transactionIndex": "0x2f",
      "blockHash": "0xbba0b6a2d210d72e2f6309bfe116d3538eb379b910621abfd9fc04fefb25686e",
      "blockNumber": "0x9a9278",
      "gasUsed": "0xc71f",
      "effectiveGasPrice": "0x41484e1a",
      "from": "0xe8df60a93b2b328397a8cbf73f0d732aaa11e33d",
      "to": "0xb1a8786fd1bbdb7f56f8cea78a77897a0aa9fab2",
      "contractAddress": null
    },
    {
      "status": "0x1",
      "cumulativeGasUsed": "0xf81741",
      "logs": [
        {
          "address": "0xe06e78ab6314993fca9106536aecfe4284aa791a",
          "topics": [
            "0xddf252ad1be2c89b69c2b068fc378daa952ba7f163c4a11628f55a4df523b3ef",
            "0x0000000000000000000000000000000000000000000000000000000000000000",
            "0x0000000000000000000000008a200122f666af83af2d4f425ac7a35fa5491ca7"
          ],
          "data": "0x0000000000000000000000000000000000000000000000000000000005f5e100",
          "blockHash": "0xbba0b6a2d210d72e2f6309bfe116d3538eb379b910621abfd9fc04fefb25686e",
          "blockNumber": "0x9a9278",
          "blockTimestamp": "0x6977d930",
          "transactionHash": "0xa6993bd710dabcb009d3c6c6fb17e802228bc70c6df3fd6ad06b46c0fdebcb25",
          "transactionIndex": "0x30",
          "logIndex": "0x88",
          "removed": false
        }
      ],
      "logsBloom": "0x00000000000000000000000000000000000000000000000000000000000000000000000000000000000000000000000000000000000000000000000000000000000000000000000000000008000000000000000000000000000100000000000000000000020000000000000000000800000000000000000000000010000000000000000010000000000000000000000000000000000000000020000000800008000000000000000000000000000000000000000000000000000000000000000000000002000000000000000000000000000000000000000000000000000020000000000000000000000000000000000000000000000000000000000080000000",
      "type": "0x2",
      "transactionHash": "0xa6993bd710dabcb009d3c6c6fb17e802228bc70c6df3fd6ad06b46c0fdebcb25",
      "transactionIndex": "0x30",
      "blockHash": "0xbba0b6a2d210d72e2f6309bfe116d3538eb379b910621abfd9fc04fefb25686e",
      "blockNumber": "0x9a9278",
      "gasUsed": "0xc707",
      "effectiveGasPrice": "0x41484e1a",
      "from": "0xe8df60a93b2b328397a8cbf73f0d732aaa11e33d",
      "to": "0xe06e78ab6314993fca9106536aecfe4284aa791a",
      "contractAddress": null
    },
    {
      "status": "0x1",
      "cumulativeGasUsed": "0xf8de7f",
      "logs": [
        {
          "address": "0xd11db19892f8c9c89a03ba6efd636795cbbc0d74",
          "topics": [
            "0xddf252ad1be2c89b69c2b068fc378daa952ba7f163c4a11628f55a4df523b3ef",
            "0x0000000000000000000000000000000000000000000000000000000000000000",
            "0x0000000000000000000000008a200122f666af83af2d4f425ac7a35fa5491ca7"
          ],
          "data": "0x000000000000000000000000000000000000000000000000000000e8d4a51000",
          "blockHash": "0xbba0b6a2d210d72e2f6309bfe116d3538eb379b910621abfd9fc04fefb25686e",
          "blockNumber": "0x9a9278",
          "blockTimestamp": "0x6977d930",
          "transactionHash": "0x393441cf1ce136dcb51d79a50d58373edf9ef6c41cffa6a4903707e05a25f32a",
          "transactionIndex": "0x31",
          "logIndex": "0x89",
          "removed": false
        }
      ],
      "logsBloom": "0x00000000000000000000000000000000000000000000000000000000000000000000000000000800000000000000000000000000000000000000000000000000000000000000000000000008000000000000000000000000000100000000000000000000020000000000000000000800000000000000000000000010000000000000000000000000000000000000000000000000000000000020000000000008000000000000000000000000000000000080000000000000000000000000000000000002000000000000000000000000000000000000000000000000000020000000000000000000000000000080000000000000000000000000000000000000",
      "type": "0x2",
      "transactionHash": "0x393441cf1ce136dcb51d79a50d58373edf9ef6c41cffa6a4903707e05a25f32a",
      "transactionIndex": "0x31",
      "blockHash": "0xbba0b6a2d210d72e2f6309bfe116d3538eb379b910621abfd9fc04fefb25686e",
      "blockNumber": "0x9a9278",
      "gasUsed": "0xc73e",
      "effectiveGasPrice": "0x41484e1a",
      "from": "0xe8df60a93b2b328397a8cbf73f0d732aaa11e33d",
      "to": "0xd11db19892f8c9c89a03ba6efd636795cbbc0d74",
      "contractAddress": null
    },
    {
      "status": "0x1",
      "cumulativeGasUsed": "0xf9a5b6",
      "logs": [
        {
          "address": "0xc740ee33a12c21fa7f3cdd426d6051e16eab456e",
          "topics": [
            "0xddf252ad1be2c89b69c2b068fc378daa952ba7f163c4a11628f55a4df523b3ef",
            "0x0000000000000000000000000000000000000000000000000000000000000000",
            "0x000000000000000000000000f034e8ad11f249c8081d9da94852be1734bc11a4"
          ],
          "data": "0x00000000000000000000000000000000000000000000d3c21bcecceda1000000",
          "blockHash": "0xbba0b6a2d210d72e2f6309bfe116d3538eb379b910621abfd9fc04fefb25686e",
          "blockNumber": "0x9a9278",
          "blockTimestamp": "0x6977d930",
          "transactionHash": "0x3f97b45c7017080732979b2d18d93366d6e0f70cc11830777f7e4eaa2d0c7658",
          "transactionIndex": "0x32",
          "logIndex": "0x8a",
          "removed": false
        }
      ],
      "logsBloom": "0x00000000000000000000000000000000000000000000000000040000000000000000000000000000000000000000000000000000000000000000000000000000000000000000000000000008000000000000000000000000000000000000000000000000020000000000000000000800000000000000000000040010000000000000000000080000000800000000000000000010000000000000000000000000000000000000000000000000000000000000000000000000000000000000000000000002000000000000000000000000000000000000000000000001000020000000000000000000000000000000000000000000000000000000000000000000",
      "type": "0x2",
      "transactionHash": "0x3f97b45c7017080732979b2d18d93366d6e0f70cc11830777f7e4eaa2d0c7658",
      "transactionIndex": "0x32",
      "blockHash": "0xbba0b6a2d210d72e2f6309bfe116d3538eb379b910621abfd9fc04fefb25686e",
      "blockNumber": "0x9a9278",
      "gasUsed": "0xc737",
      "effectiveGasPrice": "0x41484e1a",
      "from": "0xe8df60a93b2b328397a8cbf73f0d732aaa11e33d",
      "to": "0xc740ee33a12c21fa7f3cdd426d6051e16eab456e",
      "contractAddress": null
    },
    {
      "status": "0x1",
      "cumulativeGasUsed": "0x183d793",
      "logs": [
        {
          "address": "0xeaefa01b8c4c8126226a8b2da2cf6eb0e5b0bd26",
          "topics": [
            "0xddf252ad1be2c89b69c2b068fc378daa952ba7f163c4a11628f55a4df523b3ef",
            "0x0000000000000000000000000000000000000000000000000000000000000000",
            "0x000000000000000000000000f034e8ad11f249c8081d9da94852be1734bc11a4"
          ],
          "data": "0x000000000000000000000000000000000000000000000000000000e8d4a51000",
          "blockHash": "0xff6002e921ebcac3add3cf4f317775dbfb99f06c641be4473e3dcdd5d084d427",
          "blockNumber": "0x9a9279",
          "blockTimestamp": "0x6977d948",
          "transactionHash": "0x23dd7b5b1e17d74569bc7a02ce4bf1e89100644160d03d1d90c35be787e1d8e0",
          "transactionIndex": "0x36",
          "logIndex": "0xa5",
          "removed": false
        }
      ],
      "logsBloom": "0x00000000000000000000000000000000000000000000000000000000000000000000000000000000000000000000000000000000000000000000000000000000000000000000000000000008000000000010000000000000000000000000000000000000020000000000000000000800000000000000000000040010000000000000000000000000000800040000000000000000000000000000000000000000000000000000000000000000000000000000000000000000000000000000000000200002000000000000000000000000000000000000000000000001000020000000000000000000000000000000000000000000000000000000000000000000",
      "type": "0x2",
      "transactionHash": "0x23dd7b5b1e17d74569bc7a02ce4bf1e89100644160d03d1d90c35be787e1d8e0",
      "transactionIndex": "0x36",
      "blockHash": "0xff6002e921ebcac3add3cf4f317775dbfb99f06c641be4473e3dcdd5d084d427",
      "blockNumber": "0x9a9279",
      "gasUsed": "0xc713",
      "effectiveGasPrice": "0x40509a3e",
      "from": "0xe8df60a93b2b328397a8cbf73f0d732aaa11e33d",
      "to": "0xeaefa01b8c4c8126226a8b2da2cf6eb0e5b0bd26",
      "contractAddress": null
    },
    {
      "status": "0x1",
      "cumulativeGasUsed": "0x1849eb2",
      "logs": [
        {
          "address": "0xb1a8786fd1bbdb7f56f8cea78a77897a0aa9fab2",
          "topics": [
            "0xddf252ad1be2c89b69c2b068fc378daa952ba7f163c4a11628f55a4df523b3ef",
            "0x0000000000000000000000000000000000000000000000000000000000000000",
            "0x000000000000000000000000f034e8ad11f249c8081d9da94852be1734bc11a4"
          ],
          "data": "0x00000000000000000000000000000000000000000000000000005af3107a4000",
          "blockHash": "0xff6002e921ebcac3add3cf4f317775dbfb99f06c641be4473e3dcdd5d084d427",
          "blockNumber": "0x9a9279",
          "blockTimestamp": "0x6977d948",
          "transactionHash": "0x0d6233e9290cb6a5d63f440905e66c9ecde2f84e82e9d475fcb16b91a91bfd50",
          "transactionIndex": "0x37",
          "logIndex": "0xa6",
          "removed": false
        }
      ],
      "logsBloom": "0x00000000000000000000000000000000000000000000000000000000000000000000000000000000000000000000000000000000000000000000000000000000000000000000000000000008000000000000000000000000000000000000000000000000020000000000000000000800000000000000000000040010000000000000000000000000000800000000000000000000000000000000000040000000000000000000000000000000000000000000000000000000000800000000000000000002000000000000000000000000000000000000000000000001000020000000000000000000000000000200000000000000000000000000000000000000",
      "type": "0x2",
      "transactionHash": "0x0d6233e9290cb6a5d63f440905e66c9ecde2f84e82e9d475fcb16b91a91bfd50",
      "transactionIndex": "0x37",
      "blockHash": "0xff6002e921ebcac3add3cf4f317775dbfb99f06c641be4473e3dcdd5d084d427",
      "blockNumber": "0x9a9279",
      "gasUsed": "0xc71f",
      "effectiveGasPrice": "0x40509a3e",
      "from": "0xe8df60a93b2b328397a8cbf73f0d732aaa11e33d",
      "to": "0xb1a8786fd1bbdb7f56f8cea78a77897a0aa9fab2",
      "contractAddress": null
    },
    {
      "status": "0x1",
      "cumulativeGasUsed": "0x18565b9",
      "logs": [
        {
          "address": "0xe06e78ab6314993fca9106536aecfe4284aa791a",
          "topics": [
            "0xddf252ad1be2c89b69c2b068fc378daa952ba7f163c4a11628f55a4df523b3ef",
            "0x0000000000000000000000000000000000000000000000000000000000000000",
            "0x000000000000000000000000f034e8ad11f249c8081d9da94852be1734bc11a4"
          ],
          "data": "0x0000000000000000000000000000000000000000000000000000000005f5e100",
          "blockHash": "0xff6002e921ebcac3add3cf4f317775dbfb99f06c641be4473e3dcdd5d084d427",
          "blockNumber": "0x9a9279",
          "blockTimestamp": "0x6977d948",
          "transactionHash": "0x80a803ab371a2ec64677849458c64411e20750d68253bd577f057f88124fbc7b",
          "transactionIndex": "0x38",
          "logIndex": "0xa7",
          "removed": false
        }
      ],
      "logsBloom": "0x00000000000000000000000000000000000000000000000000000000000000000000000000000000000000000000000000000000000000000000000000000000000000000000000000000008000000000000000000000000000000000000000000000000020000000000000000000800000000000000000000040010000000000000000010000000000800000000000000000000000000000000000000800000000000000000000000000000000000000000000000000000000000000000000000000002000000000000000000000000000000000000000000000001000020000000000000000000000000000000000000000000000000000000000080000000",
      "type": "0x2",
      "transactionHash": "0x80a803ab371a2ec64677849458c64411e20750d68253bd577f057f88124fbc7b",
      "transactionIndex": "0x38",
      "blockHash": "0xff6002e921ebcac3add3cf4f317775dbfb99f06c641be4473e3dcdd5d084d427",
      "blockNumber": "0x9a9279",
      "gasUsed": "0xc707",
      "effectiveGasPrice": "0x40509a3e",
      "from": "0xe8df60a93b2b328397a8cbf73f0d732aaa11e33d",
      "to": "0xe06e78ab6314993fca9106536aecfe4284aa791a",
      "contractAddress": null
    },
    {
      "status": "0x1",
      "cumulativeGasUsed": "0x1862cf7",
      "logs": [
        {
          "address": "0xd11db19892f8c9c89a03ba6efd636795cbbc0d74",
          "topics": [
            "0xddf252ad1be2c89b69c2b068fc378daa952ba7f163c4a11628f55a4df523b3ef",
            "0x0000000000000000000000000000000000000000000000000000000000000000",
            "0x000000000000000000000000f034e8ad11f249c8081d9da94852be1734bc11a4"
          ],
          "data": "0x000000000000000000000000000000000000000000000000000000e8d4a51000",
          "blockHash": "0xff6002e921ebcac3add3cf4f317775dbfb99f06c641be4473e3dcdd5d084d427",
          "blockNumber": "0x9a9279",
          "blockTimestamp": "0x6977d948",
          "transactionHash": "0xf93f87380c24ad52b4254a45fcce3c8f83aed54dfc164c2455bd2f84d433f2d9",
          "transactionIndex": "0x39",
          "logIndex": "0xa8",
          "removed": false
        }
      ],
      "logsBloom": "0x00000000000000000000000000000000000000000000000000000000000000000000000000000800000000000000000000000000000000000000000000000000000000000000000000000008000000000000000000000000000000000000000000000000020000000000000000000800000000000000000000040010000000000000000000000000000800000000000000000000000000000000000000000000000000000000000000000000000000000080000000000000000000000000000000000002000000000000000000000000000000000000000000000001000020000000000000000000000000000080000000000000000000000000000000000000",
      "type": "0x2",
      "transactionHash": "0xf93f87380c24ad52b4254a45fcce3c8f83aed54dfc164c2455bd2f84d433f2d9",
      "transactionIndex": "0x39",
      "blockHash": "0xff6002e921ebcac3add3cf4f317775dbfb99f06c641be4473e3dcdd5d084d427",
      "blockNumber": "0x9a9279",
      "gasUsed": "0xc73e",
      "effectiveGasPrice": "0x40509a3e",
      "from": "0xe8df60a93b2b328397a8cbf73f0d732aaa11e33d",
      "to": "0xd11db19892f8c9c89a03ba6efd636795cbbc0d74",
      "contractAddress": null
    }
  ],
  "libraries": [],
  "pending": [],
  "returns": {},
  "timestamp": 1769462095,
  "chain": 11155111,
  "commit": "a934a61"
}